{
  "contractName": "FlightSuretyApp",
  "abi": [
    {
      "constant": true,
      "inputs": [],
      "name": "REGISTRATION_FEE",
      "outputs": [
        {
          "name": "",
          "type": "uint256"
        }
      ],
      "payable": false,
      "stateMutability": "view",
      "type": "function"
    },
    {
      "inputs": [],
      "payable": false,
      "stateMutability": "nonpayable",
      "type": "constructor"
    },
    {
      "anonymous": false,
      "inputs": [
        {
          "indexed": false,
          "name": "index",
          "type": "uint8"
        },
        {
          "indexed": false,
          "name": "airline",
          "type": "address"
        }
      ],
      "name": "eventApprovedAirline",
      "type": "event"
    },
    {
      "anonymous": false,
      "inputs": [
        {
          "indexed": false,
          "name": "flightID",
          "type": "bytes32"
        }
      ],
      "name": "eventRegisterFlight",
      "type": "event"
    },
    {
      "anonymous": false,
      "inputs": [
        {
          "indexed": false,
          "name": "airline",
          "type": "address"
        },
        {
          "indexed": false,
          "name": "flightID",
          "type": "bytes32"
        },
        {
          "indexed": false,
          "name": "status",
          "type": "uint8"
        }
      ],
      "name": "eventUpdateFlightStatus",
      "type": "event"
    },
    {
      "anonymous": false,
      "inputs": [
        {
          "indexed": false,
          "name": "airline",
          "type": "address"
        },
        {
          "indexed": false,
          "name": "flight",
          "type": "string"
        },
        {
          "indexed": false,
          "name": "timestamp",
          "type": "uint256"
        },
        {
          "indexed": false,
          "name": "status",
          "type": "uint8"
        }
      ],
      "name": "FlightStatusInfo",
      "type": "event"
    },
    {
      "anonymous": false,
      "inputs": [
        {
          "indexed": false,
          "name": "airline",
          "type": "address"
        },
        {
          "indexed": false,
          "name": "flight",
          "type": "string"
        },
        {
          "indexed": false,
          "name": "timestamp",
          "type": "uint256"
        },
        {
          "indexed": false,
          "name": "status",
          "type": "uint8"
        }
      ],
      "name": "OracleReport",
      "type": "event"
    },
    {
      "anonymous": false,
      "inputs": [
        {
          "indexed": false,
          "name": "index",
          "type": "uint8"
        },
        {
          "indexed": false,
          "name": "airline",
          "type": "address"
        },
        {
          "indexed": false,
          "name": "flight",
          "type": "string"
        },
        {
          "indexed": false,
          "name": "timestamp",
          "type": "uint256"
        }
      ],
      "name": "OracleRequest",
      "type": "event"
    },
    {
      "constant": false,
      "inputs": [],
      "name": "getAccountType",
      "outputs": [
        {
          "name": "",
          "type": "uint8"
        }
      ],
      "payable": false,
      "stateMutability": "nonpayable",
      "type": "function"
    },
    {
      "constant": true,
      "inputs": [],
      "name": "isOperational",
      "outputs": [
        {
          "name": "",
          "type": "bool"
        }
      ],
      "payable": false,
      "stateMutability": "view",
      "type": "function"
    },
    {
      "constant": false,
      "inputs": [
        {
          "name": "mode",
          "type": "bool"
        }
      ],
      "name": "setOperatingStatus",
      "outputs": [],
      "payable": false,
      "stateMutability": "nonpayable",
      "type": "function"
    },
    {
      "constant": false,
      "inputs": [
        {
          "name": "name",
          "type": "string"
        }
      ],
      "name": "registerAirline",
      "outputs": [],
      "payable": false,
      "stateMutability": "nonpayable",
      "type": "function"
    },
    {
      "constant": false,
      "inputs": [
        {
          "name": "airlineAccount",
          "type": "address"
        }
      ],
      "name": "approveAirline",
      "outputs": [],
      "payable": false,
      "stateMutability": "nonpayable",
      "type": "function"
    },
    {
      "constant": false,
      "inputs": [],
      "name": "fund",
      "outputs": [],
      "payable": true,
      "stateMutability": "payable",
      "type": "function"
    },
    {
      "constant": false,
      "inputs": [
        {
          "name": "airlineName",
          "type": "string"
        },
        {
          "name": "flightName",
          "type": "string"
        },
        {
          "name": "timestamp",
          "type": "uint256"
        },
        {
          "name": "passengerName",
          "type": "string"
        }
      ],
      "name": "buy",
      "outputs": [],
      "payable": true,
      "stateMutability": "payable",
      "type": "function"
    },
    {
      "constant": false,
      "inputs": [
        {
          "name": "amount",
          "type": "uint256"
        }
      ],
      "name": "withdraw",
      "outputs": [],
      "payable": false,
      "stateMutability": "nonpayable",
      "type": "function"
    },
    {
      "constant": false,
      "inputs": [],
      "name": "getAirlineStatus",
      "outputs": [
        {
          "name": "",
          "type": "uint8"
        }
      ],
      "payable": false,
      "stateMutability": "nonpayable",
      "type": "function"
    },
    {
      "constant": false,
      "inputs": [
        {
          "name": "flight",
          "type": "string"
        },
        {
          "name": "timestamp",
          "type": "uint256"
        }
      ],
      "name": "registerFlight",
      "outputs": [],
      "payable": false,
      "stateMutability": "nonpayable",
      "type": "function"
    },
    {
      "constant": false,
      "inputs": [
        {
          "name": "flight",
          "type": "string"
        },
        {
          "name": "timestamp",
          "type": "uint256"
        },
        {
          "name": "statusCode",
          "type": "uint8"
        }
      ],
      "name": "updateFlightStatus",
      "outputs": [],
      "payable": false,
      "stateMutability": "nonpayable",
      "type": "function"
    },
    {
      "constant": false,
      "inputs": [
        {
          "name": "updater",
          "type": "address"
        },
        {
          "name": "airlineName",
          "type": "string"
        },
        {
          "name": "flightName",
          "type": "string"
        },
        {
          "name": "timestamp",
          "type": "uint256"
        },
        {
          "name": "passengerName",
          "type": "string"
        },
        {
          "name": "statusCode",
          "type": "uint8"
        }
      ],
      "name": "listenFlightStatuUpdatesUpdate",
      "outputs": [],
      "payable": false,
      "stateMutability": "nonpayable",
      "type": "function"
    },
    {
      "constant": false,
      "inputs": [
        {
          "name": "name",
          "type": "string"
        }
      ],
      "name": "registerPassenger",
      "outputs": [],
      "payable": false,
      "stateMutability": "nonpayable",
      "type": "function"
    },
    {
      "constant": false,
      "inputs": [],
      "name": "registerOracle",
      "outputs": [],
      "payable": true,
      "stateMutability": "payable",
      "type": "function"
    },
    {
      "constant": true,
      "inputs": [],
      "name": "getRegistrationFee",
      "outputs": [
        {
          "name": "",
          "type": "uint256"
        }
      ],
      "payable": false,
      "stateMutability": "pure",
      "type": "function"
    },
    {
      "constant": true,
      "inputs": [],
      "name": "getMyIndexes",
      "outputs": [
        {
          "name": "",
          "type": "uint8[3]"
        }
      ],
      "payable": false,
      "stateMutability": "view",
      "type": "function"
    },
    {
      "constant": false,
      "inputs": [
        {
          "name": "index",
          "type": "uint8"
        },
        {
          "name": "airline",
          "type": "address"
        },
        {
          "name": "flight",
          "type": "string"
        },
        {
          "name": "timestamp",
          "type": "uint256"
        },
        {
          "name": "statusCode",
          "type": "uint8"
        }
      ],
      "name": "submitOracleResponse",
      "outputs": [],
      "payable": false,
      "stateMutability": "nonpayable",
      "type": "function"
    }
  ],
  "bytecode": "0x608060405260018060146101000a81548160ff0219169083151502179055506000600360006101000a81548160ff021916908360ff16021790555034801561004657600080fd5b50336000806101000a81548173ffffffffffffffffffffffffffffffffffffffff021916908373ffffffffffffffffffffffffffffffffffffffff16021790555033600160006101000a81548173ffffffffffffffffffffffffffffffffffffffff021916908373ffffffffffffffffffffffffffffffffffffffff160217905550600160009054906101000a900473ffffffffffffffffffffffffffffffffffffffff1673ffffffffffffffffffffffffffffffffffffffff166329df66cc336040518263ffffffff1660e01b8152600401808273ffffffffffffffffffffffffffffffffffffffff1673ffffffffffffffffffffffffffffffffffffffff16815260200180602001828103825260078152602001807f44454641554c540000000000000000000000000000000000000000000000000081525060200192505050600060405180830381600087803b1580156101a257600080fd5b505af11580156101b6573d6000803e3d6000fd5b5050505061324d806101c96000396000f3fe6080604052600436106101095760003560e01c806352d6a0a311610095578063b60d428811610064578063b60d428814610702578063c10f27001461070c578063cd905dff146107d6578063ee833caa14610805578063fdb04c8a1461083657610109565b806352d6a0a3146105265780635f1cc0e61461055757806364b4f751146105aa57806384b733ca146105d557610109565b806325205210116100dc578063252052101461037a5780632e1a7d4d14610400578063339d25901461043b57806339cfc99514610445578063419ca9af146104d557610109565b80630946e8071461010e5780630b5fdc4214610139578063110466ed146101d65780631a615fd414610213575b600080fd5b34801561011a57600080fd5b506101236108bc565b6040518082815260200191505060405180910390f35b34801561014557600080fd5b506101d46004803603606081101561015c57600080fd5b810190808035906020019064010000000081111561017957600080fd5b82018360208201111561018b57600080fd5b803590602001918460018302840111640100000000831117156101ad57600080fd5b909192939192939080359060200190929190803560ff1690602001909291905050506108cc565b005b3480156101e257600080fd5b50610211600480360360208110156101f957600080fd5b81019080803515159060200190929190505050610b88565b005b34801561021f57600080fd5b50610378600480360360c081101561023657600080fd5b81019080803573ffffffffffffffffffffffffffffffffffffffff1690602001909291908035906020019064010000000081111561027357600080fd5b82018360208201111561028557600080fd5b803590602001918460018302840111640100000000831117156102a757600080fd5b9091929391929390803590602001906401000000008111156102c857600080fd5b8201836020820111156102da57600080fd5b803590602001918460018302840111640100000000831117156102fc57600080fd5b9091929391929390803590602001909291908035906020019064010000000081111561032757600080fd5b82018360208201111561033957600080fd5b8035906020019184600183028401116401000000008311171561035b57600080fd5b9091929391929390803560ff169060200190929190505050610cf8565b005b34801561038657600080fd5b506103fe6004803603602081101561039d57600080fd5b81019080803590602001906401000000008111156103ba57600080fd5b8201836020820111156103cc57600080fd5b803590602001918460018302840111640100000000831117156103ee57600080fd5b9091929391929390505050610fe9565b005b34801561040c57600080fd5b506104396004803603602081101561042357600080fd5b810190808035906020019092919050505061114b565b005b6104436112d4565b005b34801561045157600080fd5b506104d36004803603604081101561046857600080fd5b810190808035906020019064010000000081111561048557600080fd5b82018360208201111561049757600080fd5b803590602001918460018302840111640100000000831117156104b957600080fd5b9091929391929390803590602001909291905050506113fa565b005b3480156104e157600080fd5b50610524600480360360208110156104f857600080fd5b81019080803573ffffffffffffffffffffffffffffffffffffffff1690602001909291905050506115a1565b005b34801561053257600080fd5b5061053b61184a565b604051808260ff1660ff16815260200191505060405180910390f35b34801561056357600080fd5b5061056c611882565b6040518082600360200280838360005b8381101561059757808201518184015260208101905061057c565b5050505090500191505060405180910390f35b3480156105b657600080fd5b506105bf6119f5565b6040518082815260200191505060405180910390f35b610700600480360360808110156105eb57600080fd5b810190808035906020019064010000000081111561060857600080fd5b82018360208201111561061a57600080fd5b8035906020019184600183028401116401000000008311171561063c57600080fd5b90919293919293908035906020019064010000000081111561065d57600080fd5b82018360208201111561066f57600080fd5b8035906020019184600183028401116401000000008311171561069157600080fd5b909192939192939080359060200190929190803590602001906401000000008111156106bc57600080fd5b8201836020820111156106ce57600080fd5b803590602001918460018302840111640100000000831117156106f057600080fd5b9091929391929390505050611a01565b005b61070a611cf1565b005b34801561071857600080fd5b506107d4600480360360a081101561072f57600080fd5b81019080803560ff169060200190929190803573ffffffffffffffffffffffffffffffffffffffff1690602001909291908035906020019064010000000081111561077957600080fd5b82018360208201111561078b57600080fd5b803590602001918460018302840111640100000000831117156107ad57600080fd5b909192939192939080359060200190929190803560ff169060200190929190505050611ed2565b005b3480156107e257600080fd5b506107eb6124f9565b604051808215151515815260200191505060405180910390f35b34801561081157600080fd5b5061081a6125bb565b604051808260ff1660ff16815260200191505060405180910390f35b34801561084257600080fd5b506108ba6004803603602081101561085957600080fd5b810190808035906020019064010000000081111561087657600080fd5b82018360208201111561088857600080fd5b803590602001918460018302840111640100000000831117156108aa57600080fd5b909192939192939050505061285a565b005b6000670de0b6b3a7640000905090565b600160149054906101000a900460ff16610931576040517f08c379a000000000000000000000000000000000000000000000000000000000815260040180806020018281038252602581526020018061318d6025913960400191505060405180910390fd5b3361093b816129bc565b610990576040517f08c379a00000000000000000000000000000000000000000000000000000000081526004018080602001828103825260288152602001806131216028913960400191505060405180910390fd5b6109df3386868080601f016020809104026020016040519081016040528093929190818152602001838380828437600081840152601f19601f8201169050808301925050505050505085612a9f565b6002600082815260200190815260200160002060009054906101000a900473ffffffffffffffffffffffffffffffffffffffff1673ffffffffffffffffffffffffffffffffffffffff163373ffffffffffffffffffffffffffffffffffffffff1614610ab3576040517f08c379a00000000000000000000000000000000000000000000000000000000081526004018080602001828103825260138152602001807f4e6f74206120666c69676874206f776e65722e0000000000000000000000000081525060200191505060405180910390fd5b6000610b043388888080601f016020809104026020016040519081016040528093929190818152602001838380828437600081840152601f19601f8201169050808301925050505050505087612a9f565b90507f029a3f1d54054fb826aa6503ceba4424858dc0b660a751dfd9881d615deec1c5338286604051808473ffffffffffffffffffffffffffffffffffffffff1673ffffffffffffffffffffffffffffffffffffffff1681526020018381526020018260ff1660ff168152602001935050505060405180910390a150505050505050565b6000809054906101000a900473ffffffffffffffffffffffffffffffffffffffff1673ffffffffffffffffffffffffffffffffffffffff163373ffffffffffffffffffffffffffffffffffffffff1614610c4a576040517f08c379a000000000000000000000000000000000000000000000000000000000815260040180806020018281038252601c8152602001807f43616c6c6572206973206e6f7420636f6e7472616374206f776e65720000000081525060200191505060405180910390fd5b600160009054906101000a900473ffffffffffffffffffffffffffffffffffffffff1673ffffffffffffffffffffffffffffffffffffffff1663500b94aa826040518263ffffffff1660e01b81526004018082151515158152602001915050600060405180830381600087803b158015610cc357600080fd5b505af1158015610cd7573d6000803e3d6000fd5b5050505080600160146101000a81548160ff02191690831515021790555050565b600160149054906101000a900460ff16610d5d576040517f08c379a000000000000000000000000000000000000000000000000000000000815260040180806020018281038252602581526020018061318d6025913960400191505060405180910390fd5b6000610e87600160009054906101000a900473ffffffffffffffffffffffffffffffffffffffff1673ffffffffffffffffffffffffffffffffffffffff16638e6d88ca8b8b6040518363ffffffff1660e01b815260040180806020018281038252848482818152602001925080828437600081840152601f19601f820116905080830192505050935050505060206040518083038186803b158015610e0157600080fd5b505afa158015610e15573d6000803e3d6000fd5b505050506040513d6020811015610e2b57600080fd5b810190808051906020019092919050505088888080601f016020809104026020016040519081016040528093929190818152602001838380828437600081840152601f19601f8201169050808301925050505050505087612a9f565b90508973ffffffffffffffffffffffffffffffffffffffff166002600083815260200190815260200160002060009054906101000a900473ffffffffffffffffffffffffffffffffffffffff1673ffffffffffffffffffffffffffffffffffffffff1614610f40576040517f08c379a00000000000000000000000000000000000000000000000000000000081526004018080602001828103825260248152602001806131fe6024913960400191505060405180910390fd5b8160ff16601460ff161415610fdd57600160009054906101000a900473ffffffffffffffffffffffffffffffffffffffff1673ffffffffffffffffffffffffffffffffffffffff1663a8d81fb4826040518263ffffffff1660e01b815260040180828152602001915050600060405180830381600087803b158015610fc457600080fd5b505af1158015610fd8573d6000803e3d6000fd5b505050505b50505050505050505050565b33610ff3816129bc565b80611003575061100281612b5b565b5b15611059576040517f08c379a00000000000000000000000000000000000000000000000000000000081526004018080602001828103825260238152602001806131496023913960400191505060405180910390fd5b600160009054906101000a900473ffffffffffffffffffffffffffffffffffffffff1673ffffffffffffffffffffffffffffffffffffffff166329df66cc3385856040518463ffffffff1660e01b8152600401808473ffffffffffffffffffffffffffffffffffffffff1673ffffffffffffffffffffffffffffffffffffffff168152602001806020018281038252848482818152602001925080828437600081840152601f19601f820116905080830192505050945050505050600060405180830381600087803b15801561112e57600080fd5b505af1158015611142573d6000803e3d6000fd5b50505050505050565b600160149054906101000a900460ff166111b0576040517f08c379a000000000000000000000000000000000000000000000000000000000815260040180806020018281038252602581526020018061318d6025913960400191505060405180910390fd5b336111ba81612b5b565b61120f576040517f08c379a00000000000000000000000000000000000000000000000000000000081526004018080602001828103825260298152602001806131b26029913960400191505060405180910390fd5b600160009054906101000a900473ffffffffffffffffffffffffffffffffffffffff1673ffffffffffffffffffffffffffffffffffffffff1663f3fef3a333846040518363ffffffff1660e01b8152600401808373ffffffffffffffffffffffffffffffffffffffff1673ffffffffffffffffffffffffffffffffffffffff16815260200182815260200192505050600060405180830381600087803b1580156112b857600080fd5b505af11580156112cc573d6000803e3d6000fd5b505050505050565b670de0b6b3a7640000341015611352576040517f08c379a000000000000000000000000000000000000000000000000000000000815260040180806020018281038252601c8152602001807f526567697374726174696f6e206665652069732072657175697265640000000081525060200191505060405180910390fd5b61135a612fcf565b61136333612c3e565b9050604051806040016040528060011515815260200182815250600460003373ffffffffffffffffffffffffffffffffffffffff1673ffffffffffffffffffffffffffffffffffffffff16815260200190815260200160002060008201518160000160006101000a81548160ff0219169083151502179055506020820151816001019060036113f3929190612ff1565b5090505050565b600160149054906101000a900460ff1661145f576040517f08c379a000000000000000000000000000000000000000000000000000000000815260040180806020018281038252602581526020018061318d6025913960400191505060405180910390fd5b33611469816129bc565b6114be576040517f08c379a00000000000000000000000000000000000000000000000000000000081526004018080602001828103825260288152602001806131216028913960400191505060405180910390fd5b600061150f3386868080601f016020809104026020016040519081016040528093929190818152602001838380828437600081840152601f19601f8201169050808301925050505050505085612a9f565b9050336002600083815260200190815260200160002060006101000a81548173ffffffffffffffffffffffffffffffffffffffff021916908373ffffffffffffffffffffffffffffffffffffffff1602179055507fc0d3746fdb923f9b90c69401fec84ba18801de177690249322689a723be83189816040518082815260200191505060405180910390a15050505050565b336115ab816129bc565b611600576040517f08c379a00000000000000000000000000000000000000000000000000000000081526004018080602001828103825260288152602001806131216028913960400191505060405180910390fd5b600160009054906101000a900473ffffffffffffffffffffffffffffffffffffffff1673ffffffffffffffffffffffffffffffffffffffff166372dd8bcb83336040518363ffffffff1660e01b8152600401808373ffffffffffffffffffffffffffffffffffffffff1673ffffffffffffffffffffffffffffffffffffffff1681526020018273ffffffffffffffffffffffffffffffffffffffff1673ffffffffffffffffffffffffffffffffffffffff16815260200192505050600060405180830381600087803b1580156116d557600080fd5b505af11580156116e9573d6000803e3d6000fd5b50505050600160009054906101000a900473ffffffffffffffffffffffffffffffffffffffff1673ffffffffffffffffffffffffffffffffffffffff1663673448dd836040518263ffffffff1660e01b8152600401808273ffffffffffffffffffffffffffffffffffffffff1673ffffffffffffffffffffffffffffffffffffffff16815260200191505060206040518083038186803b15801561178c57600080fd5b505afa1580156117a0573d6000803e3d6000fd5b505050506040513d60208110156117b657600080fd5b810190808051906020019092919050505015611846577f6738444db39abbc0f703de7b74776a83d0a0b55dbbff2a22255885bddda774966117f683612dca565b83604051808360ff1660ff1681526020018273ffffffffffffffffffffffffffffffffffffffff1673ffffffffffffffffffffffffffffffffffffffff1681526020019250505060405180910390a15b5050565b6000611855336129bc565b1561186357600a905061187f565b61186c33612b5b565b1561187a576014905061187f565b600090505b90565b61188a612fcf565b600460003373ffffffffffffffffffffffffffffffffffffffff1673ffffffffffffffffffffffffffffffffffffffff16815260200190815260200160002060000160009054906101000a900460ff1661194c576040517f08c379a000000000000000000000000000000000000000000000000000000000815260040180806020018281038252601b8152602001807f4e6f74207265676973746572656420617320616e206f7261636c65000000000081525060200191505060405180910390fd5b600460003373ffffffffffffffffffffffffffffffffffffffff1673ffffffffffffffffffffffffffffffffffffffff1681526020019081526020016000206001016003806020026040519081016040528092919082600380156119eb576020028201916000905b82829054906101000a900460ff1660ff16815260200190600101906020826000010492830192600103820291508084116119b45790505b5050505050905090565b670de0b6b3a764000081565b600160149054906101000a900460ff16611a66576040517f08c379a000000000000000000000000000000000000000000000000000000000815260040180806020018281038252602581526020018061318d6025913960400191505060405180910390fd5b33611a7081612b5b565b611ac5576040517f08c379a00000000000000000000000000000000000000000000000000000000081526004018080602001828103825260298152602001806131b26029913960400191505060405180910390fd5b6000611bef600160009054906101000a900473ffffffffffffffffffffffffffffffffffffffff1673ffffffffffffffffffffffffffffffffffffffff16638e6d88ca8b8b6040518363ffffffff1660e01b815260040180806020018281038252848482818152602001925080828437600081840152601f19601f820116905080830192505050935050505060206040518083038186803b158015611b6957600080fd5b505afa158015611b7d573d6000803e3d6000fd5b505050506040513d6020811015611b9357600080fd5b810190808051906020019092919050505088888080601f016020809104026020016040519081016040528093929190818152602001838380828437600081840152601f19601f8201169050808301925050505050505087612a9f565b90506000611c1a600a611c0c600f34612eba90919063ffffffff16565b612f4090919063ffffffff16565b9050600160009054906101000a900473ffffffffffffffffffffffffffffffffffffffff1673ffffffffffffffffffffffffffffffffffffffff1663f3eb52a3838787856040518563ffffffff1660e01b815260040180858152602001806020018381526020018281038252858582818152602001925080828437600081840152601f19601f82011690508083019250505095505050505050600060405180830381600087803b158015611ccd57600080fd5b505af1158015611ce1573d6000803e3d6000fd5b5050505050505050505050505050565b600160149054906101000a900460ff16611d56576040517f08c379a000000000000000000000000000000000000000000000000000000000815260040180806020018281038252602581526020018061318d6025913960400191505060405180910390fd5b33611d60816129bc565b611db5576040517f08c379a00000000000000000000000000000000000000000000000000000000081526004018080602001828103825260288152602001806131216028913960400191505060405180910390fd5b678ac7230489e80000341015611e16576040517f08c379a00000000000000000000000000000000000000000000000000000000081526004018080602001828103825260368152602001806130eb6036913960400191505060405180910390fd5b600160009054906101000a900473ffffffffffffffffffffffffffffffffffffffff1673ffffffffffffffffffffffffffffffffffffffff166345f9fc78336040518263ffffffff1660e01b8152600401808273ffffffffffffffffffffffffffffffffffffffff1673ffffffffffffffffffffffffffffffffffffffff168152602001915050600060405180830381600087803b158015611eb757600080fd5b505af1158015611ecb573d6000803e3d6000fd5b5050505050565b600160149054906101000a900460ff16611f37576040517f08c379a000000000000000000000000000000000000000000000000000000000815260040180806020018281038252602581526020018061318d6025913960400191505060405180910390fd5b8560ff16600460003373ffffffffffffffffffffffffffffffffffffffff1673ffffffffffffffffffffffffffffffffffffffff168152602001908152602001600020600101600060038110611f8957fe5b602091828204019190069054906101000a900460ff1660ff16148061201657508560ff16600460003373ffffffffffffffffffffffffffffffffffffffff1673ffffffffffffffffffffffffffffffffffffffff168152602001908152602001600020600101600160038110611ffb57fe5b602091828204019190069054906101000a900460ff1660ff16145b8061208957508560ff16600460003373ffffffffffffffffffffffffffffffffffffffff1673ffffffffffffffffffffffffffffffffffffffff16815260200190815260200160002060010160026003811061206e57fe5b602091828204019190069054906101000a900460ff1660ff16145b6120de576040517f08c379a00000000000000000000000000000000000000000000000000000000081526004018080602001828103825260238152602001806131db6023913960400191505060405180910390fd5b60008686868686604051602001808660ff1660ff1660f81b81526001018573ffffffffffffffffffffffffffffffffffffffff1673ffffffffffffffffffffffffffffffffffffffff1660601b815260140184848082843780830192505050828152602001955050505050506040516020818303038152906040528051906020012090506005600082815260200190815260200160002060000160149054906101000a900460ff166121db576040517f08c379a000000000000000000000000000000000000000000000000000000000815260040180806020018281038252602f8152602001806130bc602f913960400191505060405180910390fd5b6005600082815260200190815260200160002060010160008360ff1660ff1681526020019081526020016000203390806001815401808255809150509060018203906000526020600020016000909192909190916101000a81548173ffffffffffffffffffffffffffffffffffffffff021916908373ffffffffffffffffffffffffffffffffffffffff160217905550507f43c853095c2752648493c88b4baac4d580d2594ffb00c6f1d4242d844514f7838686868686604051808673ffffffffffffffffffffffffffffffffffffffff1673ffffffffffffffffffffffffffffffffffffffff168152602001806020018481526020018360ff1660ff1681526020018281038252868682818152602001925080828437600081840152601f19601f820116905080830192505050965050505050505060405180910390a160036005600083815260200190815260200160002060010160008460ff1660ff16815260200190815260200160002080549050106124f0577fe23f5229de535c091e3b7bec2665f5d698192d3b31393066e8987b7a05076b6c8686868686604051808673ffffffffffffffffffffffffffffffffffffffff1673ffffffffffffffffffffffffffffffffffffffff168152602001806020018481526020018360ff1660ff1681526020018281038252868682818152602001925080828437600081840152601f19601f820116905080830192505050965050505050505060405180910390a18160ff16601460ff1614156124ef57600061245e8787878080601f016020809104026020016040519081016040528093929190818152602001838380828437600081840152601f19601f8201169050808301925050505050505086612a9f565b9050600160009054906101000a900473ffffffffffffffffffffffffffffffffffffffff1673ffffffffffffffffffffffffffffffffffffffff1663a8d81fb4826040518263ffffffff1660e01b815260040180828152602001915050600060405180830381600087803b1580156124d557600080fd5b505af11580156124e9573d6000803e3d6000fd5b50505050505b5b50505050505050565b6000600160149054906101000a900460ff1680156125b65750600160009054906101000a900473ffffffffffffffffffffffffffffffffffffffff1673ffffffffffffffffffffffffffffffffffffffff1663cd905dff6040518163ffffffff1660e01b815260040160206040518083038186803b15801561257a57600080fd5b505afa15801561258e573d6000803e3d6000fd5b505050506040513d60208110156125a457600080fd5b81019080805190602001909291905050505b905090565b6000600160149054906101000a900460ff16612622576040517f08c379a000000000000000000000000000000000000000000000000000000000815260040180806020018281038252602581526020018061318d6025913960400191505060405180910390fd5b3361262c816129bc565b612681576040517f08c379a00000000000000000000000000000000000000000000000000000000081526004018080602001828103825260288152602001806131216028913960400191505060405180910390fd5b600160009054906101000a900473ffffffffffffffffffffffffffffffffffffffff1673ffffffffffffffffffffffffffffffffffffffff16635689b249336040518263ffffffff1660e01b8152600401808273ffffffffffffffffffffffffffffffffffffffff1673ffffffffffffffffffffffffffffffffffffffff16815260200191505060206040518083038186803b15801561272057600080fd5b505afa158015612734573d6000803e3d6000fd5b505050506040513d602081101561274a57600080fd5b8101908080519060200190929190505050156127695760149150612856565b600160009054906101000a900473ffffffffffffffffffffffffffffffffffffffff1673ffffffffffffffffffffffffffffffffffffffff1663673448dd336040518263ffffffff1660e01b8152600401808273ffffffffffffffffffffffffffffffffffffffff1673ffffffffffffffffffffffffffffffffffffffff16815260200191505060206040518083038186803b15801561280857600080fd5b505afa15801561281c573d6000803e3d6000fd5b505050506040513d602081101561283257600080fd5b81019080805190602001909291905050501561285157600a9150612856565b600091505b5090565b33612864816129bc565b80612874575061287381612b5b565b5b156128ca576040517f08c379a00000000000000000000000000000000000000000000000000000000081526004018080602001828103825260238152602001806131496023913960400191505060405180910390fd5b600160009054906101000a900473ffffffffffffffffffffffffffffffffffffffff1673ffffffffffffffffffffffffffffffffffffffff1663cb1b1a8a3385856040518463ffffffff1660e01b8152600401808473ffffffffffffffffffffffffffffffffffffffff1673ffffffffffffffffffffffffffffffffffffffff168152602001806020018281038252848482818152602001925080828437600081840152601f19601f820116905080830192505050945050505050600060405180830381600087803b15801561299f57600080fd5b505af11580156129b3573d6000803e3d6000fd5b50505050505050565b6000600160009054906101000a900473ffffffffffffffffffffffffffffffffffffffff1673ffffffffffffffffffffffffffffffffffffffff16630e248a11836040518263ffffffff1660e01b8152600401808273ffffffffffffffffffffffffffffffffffffffff1673ffffffffffffffffffffffffffffffffffffffff16815260200191505060206040518083038186803b158015612a5d57600080fd5b505afa158015612a71573d6000803e3d6000fd5b505050506040513d6020811015612a8757600080fd5b81019080805190602001909291905050509050919050565b6000838383604051602001808473ffffffffffffffffffffffffffffffffffffffff1673ffffffffffffffffffffffffffffffffffffffff1660601b815260140183805190602001908083835b60208310612b0f5780518252602082019150602081019050602083039250612aec565b6001836020036101000a03801982511681845116808217855250505050505090500182815260200193505050506040516020818303038152906040528051906020012090509392505050565b6000600160009054906101000a900473ffffffffffffffffffffffffffffffffffffffff1673ffffffffffffffffffffffffffffffffffffffff16631dd13a1d836040518263ffffffff1660e01b8152600401808273ffffffffffffffffffffffffffffffffffffffff1673ffffffffffffffffffffffffffffffffffffffff16815260200191505060206040518083038186803b158015612bfc57600080fd5b505afa158015612c10573d6000803e3d6000fd5b505050506040513d6020811015612c2657600080fd5b81019080805190602001909291905050509050919050565b612c46612fcf565b612c4e612fcf565b612c5783612dca565b81600060038110612c6457fe5b602002019060ff16908160ff168152505080600060038110612c8257fe5b602002015181600160038110612c9457fe5b602002019060ff16908160ff16815250505b80600060038110612cb357fe5b602002015160ff1681600160038110612cc857fe5b602002015160ff161415612d0257612cdf83612dca565b81600160038110612cec57fe5b602002019060ff16908160ff1681525050612ca6565b80600160038110612d0f57fe5b602002015181600260038110612d2157fe5b602002019060ff16908160ff16815250505b80600060038110612d4057fe5b602002015160ff1681600260038110612d5557fe5b602002015160ff161480612d90575080600160038110612d7157fe5b602002015160ff1681600260038110612d8657fe5b602002015160ff16145b15612dc157612d9e83612dca565b81600260038110612dab57fe5b602002019060ff16908160ff1681525050612d33565b80915050919050565b600080600a905060008160ff166003600081819054906101000a900460ff168092919060010191906101000a81548160ff021916908360ff16021790555060ff1643034085604051602001808381526020018273ffffffffffffffffffffffffffffffffffffffff1673ffffffffffffffffffffffffffffffffffffffff1660601b8152601401925050506040516020818303038152906040528051906020012060001c81612e7557fe5b06905060fa600360009054906101000a900460ff1660ff161115612eb0576000600360006101000a81548160ff021916908360ff1602179055505b8092505050919050565b600080831415612ecd5760009050612f3a565b6000828402905082848281612ede57fe5b0414612f35576040517f08c379a000000000000000000000000000000000000000000000000000000000815260040180806020018281038252602181526020018061316c6021913960400191505060405180910390fd5b809150505b92915050565b6000808211612fb7576040517f08c379a000000000000000000000000000000000000000000000000000000000815260040180806020018281038252601a8152602001807f536166654d6174683a206469766973696f6e206279207a65726f00000000000081525060200191505060405180910390fd5b6000828481612fc257fe5b0490508091505092915050565b6040518060600160405280600390602082028038833980820191505090505090565b826003601f0160209004810192821561307a5791602002820160005b8382111561304b57835183826101000a81548160ff021916908360ff160217905550926020019260010160208160000104928301926001030261300d565b80156130785782816101000a81549060ff021916905560010160208160000104928301926001030261304b565b505b509050613087919061308b565b5090565b6130b891905b808211156130b457600081816101000a81549060ff021916905550600101613091565b5090565b9056fe466c69676874206f722074696d657374616d7020646f206e6f74206d61746368206f7261636c6520726571756573744e6f7420656e6f7567682066756e6420616d6f756e742e2053686f756c64206265206c6172676572207468656e20313020657468657254686973206163636f756e74206973206e6f7420616e20616972706c616e65206163636f756e742e54686973206163636f756e7420697320616c726561647920726567697374657265642e536166654d6174683a206d756c7469706c69636174696f6e206f766572666c6f77436f6e74726163742069732063757272656e746c79206e6f74206f7065726174696f6e616c54686973206163636f756e74206973206e6f7420616e2070617373656e676572206163636f756e742e496e64657820646f6573206e6f74206d61746368206f7261636c6520726571756573744169726c696e65732063616e206f6e6c79207570646174652069747320666c696768742ea165627a7a72305820b5961eb1b979e061af562395584d9a797ade1f2b74d5553c42045543ee081e6b0029",
  "source": "//pragma solidity ^0.4.25;\npragma solidity >=0.4.25 <0.6.0;\n\n\n// It's important to avoid vulnerabilities due to numeric overflow bugs\n// OpenZeppelin's SafeMath library, when used correctly, protects agains such bugs\n// More info: https://www.nccgroup.trust/us/about-us/newsroom-and-events/blog/2018/november/smart-contract-insecurity-bad-arithmetic/\n\nimport \"../node_modules/openzeppelin-solidity/contracts/math/SafeMath.sol\";\nimport \"./FlightSuretyData.sol\";\n\n/************************************************** */\n/* FlightSurety Smart Contract                      */\n/************************************************** */\ncontract FlightSuretyApp {\n    using SafeMath for uint256; // Allow SafeMath functions to be called for all uint256 types (similar to \"prototype\" in Javascript)\n\n    /********************************************************************************************/\n    /*                                       DATA VARIABLES                                     */\n    /********************************************************************************************/\n\n    // Airline Registration Status Code\n    uint8 private constant STATUS_CODE_REGISTERED = 0;\n    uint8 private constant STATUS_CODE_APPROVED = 10;\n    uint8 private constant STATUS_CODE_APPROVED_FUNDED = 20;\n    uint8 private constant STATUS_CODE_REJECTED = 99;\n    // Flight status codees\n    uint8 private constant STATUS_CODE_UNKNOWN = 0;\n    uint8 private constant STATUS_CODE_ON_TIME = 10;\n    uint8 private constant STATUS_CODE_LATE_AIRLINE = 20;\n    uint8 private constant STATUS_CODE_LATE_WEATHER = 30;\n    uint8 private constant STATUS_CODE_LATE_TECHNICAL = 40;\n    uint8 private constant STATUS_CODE_LATE_OTHER = 50;\n    // Account Type\n    uint8 private constant TYPE_UNDEFINED = 0;\n    uint8 private constant TYPE_AIRPLANE = 10;\n    uint8 private constant TYPE_PASSENGER = 20;\n\n    uint256 private constant CREDIT_RATE = 15;\n    uint256 private constant DIV_RATE = 10;\n\n    address private contractOwner;          // Account used to deploy contract\n    FlightSuretyData private flightSuretyData;\n    bool private operational = true;\n\n    /********************************************************************************************/\n    /*                                            EVENTS                                        */\n    /********************************************************************************************/\n    //event eventRegisteredAirline(address airline);\n    event eventApprovedAirline(uint8 index, address airline);\n    //event eventFundedAirline(address airline);\n\n    event eventRegisterFlight(bytes32 flightID);\n    event eventUpdateFlightStatus(address airline, bytes32 flightID, uint8 status);\n\n\n    /********************************************************************************************/\n    /*                                       FUNCTION MODIFIERS                                 */\n    /********************************************************************************************/\n\n    // Modifiers help avoid duplication of code. They are typically used to validate something\n    // before a function is allowed to be executed.\n\n    /**\n    * @dev Modifier that requires the \"operational\" boolean variable to be \"true\"\n    *      This is used on all state changing functions to pause the contract in\n    *      the event there is an issue that needs to be fixed\n    */\n    modifier requireIsOperational()\n    {\n         // Modify to call data contract's status\n        require(operational, \"Contract is currently not operational\");\n        _;  // All modifiers require an \"_\" which indicates where the function body will be added\n    }\n\n    /**\n    * @dev Modifier that requires the \"ContractOwner\" account to be the function caller\n    */\n    modifier requireContractOwner()\n    {\n        require(msg.sender == contractOwner, \"Caller is not contract owner\");\n        _;\n    }\n\n    modifier enoughFundAmount() {\n        require(msg.value >= 10 ether, 'Not enough fund amount. Should be larger then 10 ether');\n        _;\n    }\n\n    /**\n    * @dev Modifier that requires the the account is not registered yet\n    */\n    modifier onlyNewAccount(address account) {\n        require(!(_isAirline(account) || _isPassenger(account)), \"This account is already registered.\");\n        _;\n    }\n\n    /**\n    * @dev Modifier that requires the  account is airline\n    */\n    modifier onlyAirline(address account) {\n        require(_isAirline(account), \"This account is not an airplane account.\");\n        _;\n    }\n\n    /**\n    * @dev Modifier that requires the account is passenger\n    */\n    modifier onlyPassenger(address account) {\n        require(_isPassenger(account), \"This account is not an passenger account.\");\n        _;\n    }\n\n    function _isAirline(address account) private returns (bool) {\n        return flightSuretyData.isAirline(account);\n    }\n    function _isPassenger(address account) private returns (bool) {\n        return flightSuretyData.isPassenger(account);\n    }\n\n    function getAccountType() public returns (uint8) {\n        if(_isAirline(msg.sender)) {\n            return TYPE_AIRPLANE;\n        } else if (_isPassenger(msg.sender)) {\n            return TYPE_PASSENGER;\n        } else {\n            return TYPE_UNDEFINED;\n        }\n    }\n\n    /********************************************************************************************/\n    /*                                       CONSTRUCTOR                                        */\n    /********************************************************************************************/\n\n    /**\n    * @dev Contract constructor\n    *\n    */\n    constructor () public\n    {\n        contractOwner = msg.sender;\n        flightSuretyData = FlightSuretyData(msg.sender);\n        flightSuretyData.addAirline(msg.sender, \"DEFAULT\");\n    }\n\n    /********************************************************************************************/\n    /*                                       UTILITY FUNCTIONS                                  */\n    /********************************************************************************************/\n\n    function isOperational()\n        public\n        view\n        returns(bool)\n    {\n        return operational && flightSuretyData.isOperational();  // Modify to call data contract's status\n    }\n\n    function setOperatingStatus(\n            bool mode )\n        external\n        requireContractOwner {\n\n        flightSuretyData.setOperational(mode);\n        operational = mode;\n    }\n\n    /********************************************************************************************/\n    /*                                     SMART CONTRACT FUNCTIONS                             */\n    /********************************************************************************************/\n\n   /**\n    * @dev Add an airline to the registration queue\n    *\n    */\n    function registerAirline(string calldata name)\n        external\n        onlyNewAccount(msg.sender)\n    {\n        flightSuretyData.addAirline(msg.sender, name);\n        //emit eventRegisteredAirline(msg.sender);\n    }\n\n    function approveAirline(address airlineAccount)\n        external\n        onlyAirline(msg.sender)\n    {\n        flightSuretyData.approveAirline(airlineAccount, msg.sender);\n        if ( flightSuretyData.isApproved(airlineAccount)) {\n            emit eventApprovedAirline(getRandomIndex(airlineAccount), airlineAccount);\n        }\n    }\n\n    function fund()\n        external\n        payable\n        requireIsOperational\n        onlyAirline(msg.sender)\n        enoughFundAmount\n    { // check if got enough fund or not\n        flightSuretyData.funded(msg.sender);\n        //emit eventFundedAirline(msg.sender);\n    }\n\n    function buy(\n            string calldata airlineName,\n            string calldata flightName,\n            uint256 timestamp,\n            string calldata passengerName)\n        external\n        payable\n        requireIsOperational\n        onlyPassenger(msg.sender)\n    {\n        bytes32 flightKey = getFlightKey(\n                    flightSuretyData.getAirline(airlineName),\n                    flightName,\n                    timestamp);\n        uint256 amountCreditedToPassenger = msg.value.mul(CREDIT_RATE).div(DIV_RATE);\n        flightSuretyData.insurance(flightKey, passengerName, amountCreditedToPassenger);\n    }\n\n    function withdraw(\n            uint256 amount)\n        external\n        requireIsOperational\n        onlyPassenger(msg.sender)\n    {\n        flightSuretyData.withdraw(msg.sender, amount);\n    }\n\n    function getAirlineStatus()\n        external\n        requireIsOperational\n        onlyAirline(msg.sender)\n        returns (uint8) {\n\n        if(flightSuretyData.isFunded(msg.sender)) {\n            return STATUS_CODE_APPROVED_FUNDED;\n        } else if(flightSuretyData.isApproved(msg.sender)) {\n            return STATUS_CODE_APPROVED;\n        } else {\n            return STATUS_CODE_REGISTERED;\n        }  // rejection is out of scope\n    }\n\n    mapping(bytes32 => address) private flightProvider;\n    modifier onlyFlightProvider(bytes32 flightKey) {\n        require(msg.sender == flightProvider[flightKey], \"Not a flight owner.\");\n        _;\n    }\n   /**\n    * @dev Register a future flight for insuring.\n    *\n    */\n    function registerFlight(string calldata flight, uint256 timestamp)\n        external\n        requireIsOperational\n        onlyAirline(msg.sender)\n    {\n        bytes32 flightKey = getFlightKey(\n                                msg.sender,\n                                flight,\n                                timestamp);\n        flightProvider[flightKey] = msg.sender;\n        emit eventRegisterFlight(flightKey);\n    }\n\n    // // @todo Reconsider if querying with address is good  or not\n    // function getFlightsByPassenger(address passenger)\n    //     external\n    //     requireIsOperational\n    // {\n\n    // }\n\n    // // @todo Reconsider if querying with address is good  or not\n    // function getFlightsByAirline(address airline)\n    //     external\n    //     requireIsOperational\n    // {\n\n    // }\n\n    // function getFlightStatus (address airline, string calldata flight, uint256 timestamp )\n    //     external\n    //     requireIsOperational\n    // {\n\n    // }\n\n    // @todo avoid other airlines to update the flight. Maybe better use /api in the oracle server\n    function updateFlightStatus(string calldata flight, uint256 timestamp, uint8 statusCode )\n        external\n        requireIsOperational\n        onlyAirline(msg.sender)\n        onlyFlightProvider(getFlightKey(msg.sender, flight, timestamp))\n    {\n        bytes32 flightKey = getFlightKey(\n                                msg.sender,\n                                flight,\n                                timestamp);\n        emit eventUpdateFlightStatus(msg.sender, flightKey, statusCode);\n    }\n\n\n   /**\n    * @dev Called after oracle has updated flight status\n    *\n    */\n    function listenFlightStatuUpdatesUpdate(\n            address updater,\n            string calldata airlineName,\n            string calldata flightName,\n            uint256 timestamp,\n            string calldata passengerName,\n            uint8 statusCode)\n        external\n        requireIsOperational\n    {\n        bytes32 flightKey =  getFlightKey(\n                                flightSuretyData.getAirline(airlineName),\n                                flightName,\n                                timestamp);\n        require(flightProvider[flightKey] == updater, \"Airlines can only update its flight.\");\n        //bytes32 insuranceId;\n        if( STATUS_CODE_LATE_AIRLINE == statusCode ){\n            flightSuretyData.addPayment(flightKey);\n        }\n    }\n\n    // function fetchFlightStatus(\n    //         address airline,\n    //         string calldata flight,\n    //         uint256 timestamp)\n    //     external\n    // {\n    //     uint8 index = getRandomIndex(msg.sender);\n\n    //     // Generate a unique key for storing the request\n    //     bytes32 key = keccak256(abi.encodePacked(index, airline, flight, timestamp));\n    //     oracleResponses[key] = ResponseInfo({\n    //                                             requester: msg.sender,\n    //                                             isOpen: true\n    //                                         });\n\n    //     emit OracleRequest(index, airline, flight, timestamp);\n    // }\n\n   /**\n    * @dev Add a passenger to the registration queue\n    *\n    */\n    function registerPassenger(string calldata name)\n        external\n        onlyNewAccount(msg.sender)\n    {\n        flightSuretyData.addPassenger(msg.sender, name);\n        //emit eventRegisteredAirline(msg.sender);\n    }\n\n// region ORACLE MANAGEMENT\n\n    // Incremented to add pseudo-randomness at various points\n    uint8 private nonce = 0;\n\n    // Fee to be paid when registering oracle\n    uint256 public constant REGISTRATION_FEE = 1 ether;\n\n    // Number of oracles that must respond for valid status\n    uint256 private constant MIN_RESPONSES = 3;\n\n\n    struct Oracle {\n        bool isRegistered;\n        uint8[3] indexes;\n    }\n\n    // Track all registered oracles\n    mapping(address => Oracle) private oracles;\n\n    // Model for responses from oracles\n    struct ResponseInfo {\n        address requester;                              // Account that requested status\n        bool isOpen;                                    // If open, oracle responses are accepted\n        mapping(uint8 => address[]) responses;          // Mapping key is the status code reported\n                                                        // This lets us group responses and identify\n                                                        // the response that majority of the oracles\n    }\n\n    // Track all oracle responses\n    // Key = hash(index, flight, timestamp)\n    mapping(bytes32 => ResponseInfo) private oracleResponses;\n\n    // Event fired each time an oracle submits a response\n    event FlightStatusInfo(address airline, string flight, uint256 timestamp, uint8 status);\n\n    event OracleReport(address airline, string flight, uint256 timestamp, uint8 status);\n\n    // Event fired when flight status request is submitted\n    // Oracles track this and if they have a matching index\n    // they fetch data and submit a response\n    event OracleRequest(uint8 index, address airline, string flight, uint256 timestamp);\n\n    // Register an oracle with the contract\n    function registerOracle ()\n        external\n        payable\n    {\n        // Require registration fee\n        require(msg.value >= REGISTRATION_FEE, \"Registration fee is required\");\n\n        uint8[3] memory indexes = generateIndexes(msg.sender);\n\n        oracles[msg.sender] = Oracle(\n            {isRegistered: true, indexes: indexes});\n    }\n\n    function getRegistrationFee()\n        public\n        pure\n        returns (uint256)\n    {\n        return REGISTRATION_FEE;\n    }\n\n    function getMyIndexes()\n        external\n        view\n        returns(uint8[3] memory)\n    {\n        require(oracles[msg.sender].isRegistered, \"Not registered as an oracle\");\n\n        return oracles[msg.sender].indexes;\n    }\n\n    // Called by oracle when a response is available to an outstanding request\n    // For the response to be accepted, there must be a pending request that is open\n    // and matches one of the three Indexes randomly assigned to the oracle at the\n    // time of registration (i.e. uninvited oracles are not welcome)\n    function submitOracleResponse(\n            uint8 index,\n            address airline,\n            string calldata flight,\n            uint256 timestamp,\n            uint8 statusCode                        )\n        external\n        requireIsOperational\n    {\n        require((oracles[msg.sender].indexes[0] == index)\n         || (oracles[msg.sender].indexes[1] == index)\n         || (oracles[msg.sender].indexes[2] == index), \"Index does not match oracle request\");\n\n        bytes32 key = keccak256(abi.encodePacked(index, airline, flight, timestamp));\n        require(oracleResponses[key].isOpen, \"Flight or timestamp do not match oracle request\");\n\n        oracleResponses[key].responses[statusCode].push(msg.sender);\n\n        // Information isn't considered verified until at least MIN_RESPONSES\n        // oracles respond with the *** same *** information\n        emit OracleReport(airline, flight, timestamp, statusCode);\n        if (oracleResponses[key].responses[statusCode].length >= MIN_RESPONSES) {\n\n            emit FlightStatusInfo(airline, flight, timestamp, statusCode);\n\n            // Handle flight status as appropriate\n\n            if( STATUS_CODE_LATE_AIRLINE == statusCode ){\n                bytes32 flightKey =  getFlightKey(\n                                airline,\n                                flight,\n                                timestamp);\n                flightSuretyData.addPayment(flightKey);\n            }\n        //    processFlightStatus(airline, flight, timestamp, statusCode);\n        }\n    }\n\n    function getFlightKey(\n            address airline,\n            string memory flight,\n            uint256 timestamp)\n        pure\n        internal\n        returns(bytes32)\n    {\n        return keccak256(abi.encodePacked(airline, flight, timestamp));\n    }\n\n    // Returns array of three non-duplicating integers from 0-9\n    function generateIndexes(\n            address account)\n        internal\n        returns(uint8[3] memory)\n    {\n        uint8[3] memory indexes;\n        indexes[0] = getRandomIndex(account);\n\n        indexes[1] = indexes[0];\n        while(indexes[1] == indexes[0]) {\n            indexes[1] = getRandomIndex(account);\n        }\n\n        indexes[2] = indexes[1];\n        while((indexes[2] == indexes[0]) || (indexes[2] == indexes[1])) {\n            indexes[2] = getRandomIndex(account);\n        }\n\n        return indexes;\n    }\n\n    // Returns array of three non-duplicating integers from 0-9\n    function getRandomIndex(\n            address account)\n        internal\n        returns (uint8)\n    {\n        uint8 maxValue = 10;\n\n        // Pseudo random number...the incrementing nonce adds variation\n        uint8 random = uint8(uint256(keccak256(abi.encodePacked(blockhash(block.number - nonce++), account))) % maxValue);\n\n        if (nonce > 250) {\n            nonce = 0;  // Can only fetch blockhashes for last 256 blocks so we adapt\n        }\n\n        return random;\n    }\n\n// endregion\n\n}",
  "sourcePath": "/home/hajime/git/BlockchainDevND/projects/project_FlightSurety/contracts/FlightSuretyApp.sol",
  "compiler": {
    "name": "solc",
    "version": "0.5.8+commit.23d335f2.Emscripten.clang"
  },
  "schemaVersion": "3.0.11",
  "updatedAt": "2019-09-26T08:04:12.647Z",
  "devdoc": {
    "methods": {
      "constructor": {
        "details": "Contract constructor    "
      },
      "listenFlightStatuUpdatesUpdate(address,string,string,uint256,string,uint8)": {
        "details": "Called after oracle has updated flight status    "
      },
      "registerAirline(string)": {
        "details": "Add an airline to the registration queue    "
      },
      "registerFlight(string,uint256)": {
        "details": "Register a future flight for insuring.    "
      },
      "registerPassenger(string)": {
        "details": "Add a passenger to the registration queue    "
      }
    }
  },
  "userdoc": {
    "methods": {
      "isOperational()": {
        "notice": "*****************************************************************************************"
      }
    },
    "notice": "************************************************ "
  }
}