{
  "contractName": "Base",
  "abi": [
    {
      "constant": false,
      "inputs": [
        {
          "internalType": "uint256",
          "name": "stage",
          "type": "uint256"
        }
      ],
      "name": "initialize",
      "outputs": [],
      "payable": false,
      "stateMutability": "nonpayable",
      "type": "function"
    }
  ],
  "bytecode": "0x608060405234801561001057600080fd5b506101d9806100206000396000f3fe608060405234801561001057600080fd5b506004361061002b5760003560e01c8063fe4b84df14610030575b600080fd5b61005c6004803603602081101561004657600080fd5b810190808035906020019092919050505061005e565b005b600060019054906101000a900460ff168061007d575061007c610165565b5b8061009457506000809054906101000a900460ff16155b6100e9576040517f08c379a000000000000000000000000000000000000000000000000000000000815260040180806020018281038252602e815260200180610177602e913960400191505060405180910390fd5b60008060019054906101000a900460ff161590508015610139576001600060016101000a81548160ff02191690831515021790555060016000806101000a81548160ff0219169083151502179055505b8160338190555080156101615760008060016101000a81548160ff0219169083151502179055505b5050565b600080303b9050600081149150509056fe436f6e747261637420696e7374616e63652068617320616c7265616479206265656e20696e697469616c697a6564a265627a7a72315820e62d1ebc689ae025f29a427dc98d4a5f238569c4906bd8f5dc02324b7d1cd11864736f6c634300050c0032",
  "source": "pragma solidity >0.5.0 <0.6.0;\n\n//ipmort \"zos-lib/contracts/migrations/Migratable.sol\";\nimport \"zos-lib/contracts/Initializable.sol\";\n\ncontract Base is Initializable {\n\n    uint256 private _stage;\n    function initialize(uint256 stage) initializer public {\n        _stage = stage;\n    }\n}\n\n",
  "sourcePath": "/home/hajime/git/BlockchainDevND/lessons/updatable/contracts/Base.sol",
  "compiler": {
    "name": "solc",
    "version": "0.5.12+commit.7709ece9.Emscripten.clang"
  },
  "schemaVersion": "3.0.19",
  "updatedAt": "2019-11-26T04:21:07.922Z",
  "devdoc": {
    "methods": {}
  },
  "userdoc": {
    "methods": {}
  }
}