{
  "contractName": "BaseUp",
  "abi": [
    {
      "constant": false,
      "inputs": [
        {
          "internalType": "bool",
          "name": "operational",
          "type": "bool"
        }
      ],
      "name": "initialize",
      "outputs": [],
      "payable": false,
      "stateMutability": "nonpayable",
      "type": "function"
    },
    {
      "constant": false,
      "inputs": [],
      "name": "isOperational",
      "outputs": [
        {
          "internalType": "bool",
          "name": "",
          "type": "bool"
        }
      ],
      "payable": false,
      "stateMutability": "nonpayable",
      "type": "function"
    },
    {
      "constant": false,
      "inputs": [
        {
          "internalType": "bool",
          "name": "_setOperational",
          "type": "bool"
        }
      ],
      "name": "setOperational",
      "outputs": [],
      "payable": false,
      "stateMutability": "nonpayable",
      "type": "function"
    },
    {
      "constant": false,
      "inputs": [],
      "name": "forceOperational",
      "outputs": [],
      "payable": false,
      "stateMutability": "nonpayable",
      "type": "function"
    }
  ],
  "bytecode": "0x608060405234801561001057600080fd5b5061030b806100206000396000f3fe608060405234801561001057600080fd5b506004361061004c5760003560e01c8063500b94aa14610051578063cd905dff14610081578063d53a822f146100a3578063f5b47b82146100d3575b600080fd5b61007f6004803603602081101561006757600080fd5b810190808035151590602001909291905050506100dd565b005b610089610108565b604051808215151515815260200191505060405180910390f35b6100d1600480360360208110156100b957600080fd5b8101908080351515906020019092919050505061011f565b005b6100db61027a565b005b6100e5610108565b6100eb57fe5b80603360146101000a81548160ff02191690831515021790555050565b6000603360149054906101000a900460ff16905090565b600060019054906101000a900460ff168061013e575061013d610297565b5b8061015557506000809054906101000a900460ff16155b6101aa576040517f08c379a000000000000000000000000000000000000000000000000000000000815260040180806020018281038252602e8152602001806102a9602e913960400191505060405180910390fd5b60008060019054906101000a900460ff1615905080156101fa576001600060016101000a81548160ff02191690831515021790555060016000806101000a81548160ff0219169083151502179055505b33603360006101000a81548173ffffffffffffffffffffffffffffffffffffffff021916908373ffffffffffffffffffffffffffffffffffffffff16021790555081603360146101000a81548160ff02191690831515021790555080156102765760008060016101000a81548160ff0219169083151502179055505b5050565b6001603360146101000a81548160ff021916908315150217905550565b600080303b9050600081149150509056fe436f6e747261637420696e7374616e63652068617320616c7265616479206265656e20696e697469616c697a6564a265627a7a723158203fd30403e94a0ac22a732fc10fc4e504ee8f3c34adae1d3cba2a348f5d96929064736f6c634300050c0032",
  "source": "pragma solidity >0.5.0 <0.6.0;\n\nimport \"./Base.sol\";\n\ncontract BaseUp is Base {\n  function forceOperational() public {\n      __isOperational = true;\n  }\n}",
  "sourcePath": "/home/hajime/git/BlockchainDevND/lessons/updatable/contracts/BaseUp.sol",
  "compiler": {
    "name": "solc",
    "version": "0.5.12+commit.7709ece9.Emscripten.clang"
  },
  "schemaVersion": "3.0.19",
  "updatedAt": "2019-11-26T07:59:00.235Z",
  "devdoc": {
    "methods": {}
  },
  "userdoc": {
    "methods": {}
  }
}