{
  "contractName": "Base",
  "abi": [
    {
      "constant": false,
      "inputs": [
        {
          "internalType": "bool",
          "name": "operational",
          "type": "bool"
        }
      ],
      "name": "initialize",
      "outputs": [],
      "payable": false,
      "stateMutability": "nonpayable",
      "type": "function"
    },
    {
      "constant": false,
      "inputs": [
        {
          "internalType": "bool",
          "name": "_setOperational",
          "type": "bool"
        }
      ],
      "name": "setOperational",
      "outputs": [],
      "payable": false,
      "stateMutability": "nonpayable",
      "type": "function"
    },
    {
      "constant": false,
      "inputs": [],
      "name": "isOperational",
      "outputs": [
        {
          "internalType": "bool",
          "name": "",
          "type": "bool"
        }
      ],
      "payable": false,
      "stateMutability": "nonpayable",
      "type": "function"
    }
  ],
  "bytecode": "0x608060405234801561001057600080fd5b506102d9806100206000396000f3fe608060405234801561001057600080fd5b50600436106100415760003560e01c8063500b94aa14610046578063cd905dff14610076578063d53a822f14610098575b600080fd5b6100746004803603602081101561005c57600080fd5b810190808035151590602001909291905050506100c8565b005b61007e6100f3565b604051808215151515815260200191505060405180910390f35b6100c6600480360360208110156100ae57600080fd5b8101908080351515906020019092919050505061010a565b005b6100d06100f3565b6100d657fe5b80603360146101000a81548160ff02191690831515021790555050565b6000603360149054906101000a900460ff16905090565b600060019054906101000a900460ff16806101295750610128610265565b5b8061014057506000809054906101000a900460ff16155b610195576040517f08c379a000000000000000000000000000000000000000000000000000000000815260040180806020018281038252602e815260200180610277602e913960400191505060405180910390fd5b60008060019054906101000a900460ff1615905080156101e5576001600060016101000a81548160ff02191690831515021790555060016000806101000a81548160ff0219169083151502179055505b33603360006101000a81548173ffffffffffffffffffffffffffffffffffffffff021916908373ffffffffffffffffffffffffffffffffffffffff16021790555081603360146101000a81548160ff02191690831515021790555080156102615760008060016101000a81548160ff0219169083151502179055505b5050565b600080303b9050600081149150509056fe436f6e747261637420696e7374616e63652068617320616c7265616479206265656e20696e697469616c697a6564a265627a7a72315820b4b38361aedcfbe4c3208ee05eeb933ccf29f508d1da04070b3d90ac04bb21d364736f6c634300050c0032",
  "source": "pragma solidity >0.5.0 <0.6.0;\n\n//ipmort \"zos-lib/contracts/migrations/Migratable.sol\";\nimport \"zos-lib/contracts/Initializable.sol\";\n\ncontract Base is Initializable {\n    address internal _owner;\n    bool internal __isOperational;\n    \n    function initialize(bool operational) initializer public {\n        _owner = msg.sender;\n        __isOperational = operational;\n    }\n\n    modifier _isOperational() {\n        assert(isOperational());\n        _;\n    }\n\n    function setOperational(bool _setOperational)\n        public\n        _isOperational()\n    {\n        __isOperational = _setOperational;\n    }\n\n    function isOperational()\n        public\n        returns(bool)\n    {\n        return __isOperational;\n    }\n}\n\n",
  "sourcePath": "/home/hajime/git/BlockchainDevND/lessons/updatable/contracts/Base.sol",
  "compiler": {
    "name": "solc",
    "version": "0.5.12+commit.7709ece9.Emscripten.clang"
  },
  "schemaVersion": "3.0.19",
  "updatedAt": "2019-11-26T07:59:00.234Z",
  "devdoc": {
    "methods": {}
  },
  "userdoc": {
    "methods": {}
  }
}