{
  "contractName": "Update",
  "abi": [
    {
      "anonymous": false,
      "inputs": [
        {
          "indexed": false,
          "internalType": "uint256",
          "name": "",
          "type": "uint256"
        }
      ],
      "name": "evEvent",
      "type": "event"
    },
    {
      "constant": false,
      "inputs": [
        {
          "internalType": "uint256",
          "name": "stage",
          "type": "uint256"
        }
      ],
      "name": "initialize",
      "outputs": [],
      "payable": false,
      "stateMutability": "nonpayable",
      "type": "function"
    },
    {
      "constant": false,
      "inputs": [
        {
          "internalType": "uint256",
          "name": "update",
          "type": "uint256"
        }
      ],
      "name": "emitEvent",
      "outputs": [],
      "payable": false,
      "stateMutability": "nonpayable",
      "type": "function"
    }
  ],
  "bytecode": "0x608060405234801561001057600080fd5b5061024c806100206000396000f3fe608060405234801561001057600080fd5b50600436106100365760003560e01c80634d43bec91461003b578063fe4b84df14610069575b600080fd5b6100676004803603602081101561005157600080fd5b8101908080359060200190929190505050610097565b005b6100956004803603602081101561007f57600080fd5b81019080803590602001909291905050506100d1565b005b7f367ea350d420642239eff2f651100ff90f7f85eb3351fff44bdf8223ce9c2ddc816040518082815260200191505060405180910390a150565b600060019054906101000a900460ff16806100f057506100ef6101d8565b5b8061010757506000809054906101000a900460ff16155b61015c576040517f08c379a000000000000000000000000000000000000000000000000000000000815260040180806020018281038252602e8152602001806101ea602e913960400191505060405180910390fd5b60008060019054906101000a900460ff1615905080156101ac576001600060016101000a81548160ff02191690831515021790555060016000806101000a81548160ff0219169083151502179055505b8160338190555080156101d45760008060016101000a81548160ff0219169083151502179055505b5050565b600080303b9050600081149150509056fe436f6e747261637420696e7374616e63652068617320616c7265616479206265656e20696e697469616c697a6564a265627a7a72315820efadc8de081a5d0d720be220662c2695d20472cc8704671f5e2a92bf4695a0f764736f6c634300050c0032",
  "source": "pragma solidity >0.5.0 <0.6.0;\n\nimport \"./Base.sol\";\n\ncontract Update is Base {\n  uint256 private_update;\n\n  event evEvent(uint256);\n\n  function emitEvent(uint update) public {\n    emit evEvent(update);\n  }\n}",
  "sourcePath": "/home/hajime/git/BlockchainDevND/lessons/updatable/contracts/Update.sol",
  "compiler": {
    "name": "solc",
    "version": "0.5.12+commit.7709ece9.Emscripten.clang"
  },
  "schemaVersion": "3.0.19",
  "updatedAt": "2019-11-26T04:21:07.924Z",
  "devdoc": {
    "methods": {}
  },
  "userdoc": {
    "methods": {}
  }
}