{
  "contractName": "FlightSuretyApp",
  "abi": [
    {
      "constant": true,
      "inputs": [],
      "name": "REGISTRATION_FEE",
      "outputs": [
        {
          "name": "",
          "type": "uint256"
        }
      ],
      "payable": false,
      "stateMutability": "view",
      "type": "function"
    },
    {
      "inputs": [],
      "payable": false,
      "stateMutability": "nonpayable",
      "type": "constructor"
    },
    {
      "anonymous": false,
      "inputs": [
        {
          "indexed": false,
          "name": "index",
          "type": "uint8"
        },
        {
          "indexed": false,
          "name": "airline",
          "type": "address"
        }
      ],
      "name": "eventApprovedAirline",
      "type": "event"
    },
    {
      "anonymous": false,
      "inputs": [
        {
          "indexed": false,
          "name": "flightID",
          "type": "bytes32"
        }
      ],
      "name": "eventRegisterFlight",
      "type": "event"
    },
    {
      "anonymous": false,
      "inputs": [
        {
          "indexed": false,
          "name": "airline",
          "type": "address"
        },
        {
          "indexed": false,
          "name": "flightID",
          "type": "bytes32"
        },
        {
          "indexed": false,
          "name": "status",
          "type": "uint8"
        }
      ],
      "name": "eventUpdateFlightStatus",
      "type": "event"
    },
    {
      "anonymous": false,
      "inputs": [
        {
          "indexed": false,
          "name": "airline",
          "type": "address"
        },
        {
          "indexed": false,
          "name": "flight",
          "type": "string"
        },
        {
          "indexed": false,
          "name": "timestamp",
          "type": "uint256"
        },
        {
          "indexed": false,
          "name": "status",
          "type": "uint8"
        }
      ],
      "name": "FlightStatusInfo",
      "type": "event"
    },
    {
      "anonymous": false,
      "inputs": [
        {
          "indexed": false,
          "name": "airline",
          "type": "address"
        },
        {
          "indexed": false,
          "name": "flight",
          "type": "string"
        },
        {
          "indexed": false,
          "name": "timestamp",
          "type": "uint256"
        },
        {
          "indexed": false,
          "name": "status",
          "type": "uint8"
        }
      ],
      "name": "OracleReport",
      "type": "event"
    },
    {
      "anonymous": false,
      "inputs": [
        {
          "indexed": false,
          "name": "index",
          "type": "uint8"
        },
        {
          "indexed": false,
          "name": "airline",
          "type": "address"
        },
        {
          "indexed": false,
          "name": "flight",
          "type": "string"
        },
        {
          "indexed": false,
          "name": "timestamp",
          "type": "uint256"
        }
      ],
      "name": "OracleRequest",
      "type": "event"
    },
    {
      "constant": true,
      "inputs": [],
      "name": "getAccountType",
      "outputs": [
        {
          "name": "",
          "type": "uint8"
        }
      ],
      "payable": false,
      "stateMutability": "view",
      "type": "function"
    },
    {
      "constant": true,
      "inputs": [],
      "name": "isOperational",
      "outputs": [
        {
          "name": "",
          "type": "bool"
        }
      ],
      "payable": false,
      "stateMutability": "view",
      "type": "function"
    },
    {
      "constant": false,
      "inputs": [
        {
          "name": "mode",
          "type": "bool"
        }
      ],
      "name": "setOperatingStatus",
      "outputs": [],
      "payable": false,
      "stateMutability": "nonpayable",
      "type": "function"
    },
    {
      "constant": false,
      "inputs": [
        {
          "name": "name",
          "type": "string"
        }
      ],
      "name": "registerAirline",
      "outputs": [],
      "payable": false,
      "stateMutability": "nonpayable",
      "type": "function"
    },
    {
      "constant": false,
      "inputs": [
        {
          "name": "airlineAccount",
          "type": "address"
        }
      ],
      "name": "approveAirline",
      "outputs": [],
      "payable": false,
      "stateMutability": "nonpayable",
      "type": "function"
    },
    {
      "constant": false,
      "inputs": [],
      "name": "fund",
      "outputs": [],
      "payable": true,
      "stateMutability": "payable",
      "type": "function"
    },
    {
      "constant": true,
      "inputs": [],
      "name": "getAirlineStatus",
      "outputs": [
        {
          "name": "",
          "type": "uint8"
        }
      ],
      "payable": false,
      "stateMutability": "view",
      "type": "function"
    },
    {
      "constant": false,
      "inputs": [
        {
          "name": "flight",
          "type": "string"
        },
        {
          "name": "timestamp",
          "type": "uint256"
        }
      ],
      "name": "registerFlight",
      "outputs": [],
      "payable": false,
      "stateMutability": "nonpayable",
      "type": "function"
    },
    {
      "constant": false,
      "inputs": [
        {
          "name": "flight",
          "type": "string"
        },
        {
          "name": "timestamp",
          "type": "uint256"
        },
        {
          "name": "statusCode",
          "type": "uint8"
        }
      ],
      "name": "updateFlightStatus",
      "outputs": [],
      "payable": false,
      "stateMutability": "nonpayable",
      "type": "function"
    },
    {
      "constant": false,
      "inputs": [
        {
          "name": "updater",
          "type": "address"
        },
        {
          "name": "airlineName",
          "type": "string"
        },
        {
          "name": "flightName",
          "type": "string"
        },
        {
          "name": "timestamp",
          "type": "uint256"
        },
        {
          "name": "statusCode",
          "type": "uint8"
        }
      ],
      "name": "listenFlightStatuUpdatesUpdate",
      "outputs": [],
      "payable": false,
      "stateMutability": "nonpayable",
      "type": "function"
    },
    {
      "constant": false,
      "inputs": [
        {
          "name": "name",
          "type": "string"
        }
      ],
      "name": "registerPassenger",
      "outputs": [],
      "payable": false,
      "stateMutability": "nonpayable",
      "type": "function"
    },
    {
      "constant": false,
      "inputs": [
        {
          "name": "airlineName",
          "type": "string"
        },
        {
          "name": "flightName",
          "type": "string"
        },
        {
          "name": "timestamp",
          "type": "uint256"
        },
        {
          "name": "passengerName",
          "type": "string"
        }
      ],
      "name": "buy",
      "outputs": [],
      "payable": true,
      "stateMutability": "payable",
      "type": "function"
    },
    {
      "constant": false,
      "inputs": [
        {
          "name": "amount",
          "type": "uint256"
        }
      ],
      "name": "withdraw",
      "outputs": [],
      "payable": false,
      "stateMutability": "nonpayable",
      "type": "function"
    },
    {
      "constant": false,
      "inputs": [],
      "name": "registerOracle",
      "outputs": [],
      "payable": true,
      "stateMutability": "payable",
      "type": "function"
    },
    {
      "constant": true,
      "inputs": [],
      "name": "getRegistrationFee",
      "outputs": [
        {
          "name": "",
          "type": "uint256"
        }
      ],
      "payable": false,
      "stateMutability": "pure",
      "type": "function"
    },
    {
      "constant": true,
      "inputs": [],
      "name": "getMyIndexes",
      "outputs": [
        {
          "name": "",
          "type": "uint8[3]"
        }
      ],
      "payable": false,
      "stateMutability": "view",
      "type": "function"
    },
    {
      "constant": false,
      "inputs": [
        {
          "name": "index",
          "type": "uint8"
        },
        {
          "name": "airline",
          "type": "address"
        },
        {
          "name": "flight",
          "type": "string"
        },
        {
          "name": "timestamp",
          "type": "uint256"
        },
        {
          "name": "statusCode",
          "type": "uint8"
        }
      ],
      "name": "submitOracleResponse",
      "outputs": [],
      "payable": false,
      "stateMutability": "nonpayable",
      "type": "function"
    }
  ],
  "bytecode": "0x608060405260018060146101000a81548160ff0219169083151502179055506000600360006101000a81548160ff021916908360ff1602179055503480156200004757600080fd5b50336000806101000a81548173ffffffffffffffffffffffffffffffffffffffff021916908373ffffffffffffffffffffffffffffffffffffffff16021790555033604051620000979062000131565b808273ffffffffffffffffffffffffffffffffffffffff1673ffffffffffffffffffffffffffffffffffffffff168152602001915050604051809103906000f080158015620000ea573d6000803e3d6000fd5b50600160006101000a81548173ffffffffffffffffffffffffffffffffffffffff021916908373ffffffffffffffffffffffffffffffffffffffff1602179055506200013f565b61275c806200320983390190565b6130ba806200014f6000396000f3fe6080604052600436106101095760003560e01c80635f1cc0e611610095578063b60d428811610064578063b60d4288146106ad578063c10f2700146106b7578063cd905dff14610781578063ee833caa146107b0578063fdb04c8a146107e157610109565b80635f1cc0e6146103f057806364b4f751146104435780636ba6e8ac1461046e57806384b733ca1461058057610109565b80632e1a7d4d116100dc5780632e1a7d4d14610299578063339d2590146102d457806339cfc995146102de578063419ca9af1461036e57806352d6a0a3146103bf57610109565b80630946e8071461010e5780630b5fdc4214610139578063110466ed146101d65780632520521014610213575b600080fd5b34801561011a57600080fd5b50610123610867565b6040518082815260200191505060405180910390f35b34801561014557600080fd5b506101d46004803603606081101561015c57600080fd5b810190808035906020019064010000000081111561017957600080fd5b82018360208201111561018b57600080fd5b803590602001918460018302840111640100000000831117156101ad57600080fd5b909192939192939080359060200190929190803560ff169060200190929190505050610877565b005b3480156101e257600080fd5b50610211600480360360208110156101f957600080fd5b81019080803515159060200190929190505050610b33565b005b34801561021f57600080fd5b506102976004803603602081101561023657600080fd5b810190808035906020019064010000000081111561025357600080fd5b82018360208201111561026557600080fd5b8035906020019184600183028401116401000000008311171561028757600080fd5b9091929391929390505050610c12565b005b3480156102a557600080fd5b506102d2600480360360208110156102bc57600080fd5b8101908080359060200190929190505050610d74565b005b6102dc610efd565b005b3480156102ea57600080fd5b5061036c6004803603604081101561030157600080fd5b810190808035906020019064010000000081111561031e57600080fd5b82018360208201111561033057600080fd5b8035906020019184600183028401116401000000008311171561035257600080fd5b909192939192939080359060200190929190505050611023565b005b34801561037a57600080fd5b506103bd6004803603602081101561039157600080fd5b81019080803573ffffffffffffffffffffffffffffffffffffffff1690602001909291905050506111ca565b005b3480156103cb57600080fd5b506103d4611473565b604051808260ff1660ff16815260200191505060405180910390f35b3480156103fc57600080fd5b506104056114ab565b6040518082600360200280838360005b83811015610430578082015181840152602081019050610415565b5050505090500191505060405180910390f35b34801561044f57600080fd5b5061045861161e565b6040518082815260200191505060405180910390f35b34801561047a57600080fd5b5061057e600480360360a081101561049157600080fd5b81019080803573ffffffffffffffffffffffffffffffffffffffff169060200190929190803590602001906401000000008111156104ce57600080fd5b8201836020820111156104e057600080fd5b8035906020019184600183028401116401000000008311171561050257600080fd5b90919293919293908035906020019064010000000081111561052357600080fd5b82018360208201111561053557600080fd5b8035906020019184600183028401116401000000008311171561055757600080fd5b909192939192939080359060200190929190803560ff16906020019092919050505061162a565b005b6106ab6004803603608081101561059657600080fd5b81019080803590602001906401000000008111156105b357600080fd5b8201836020820111156105c557600080fd5b803590602001918460018302840111640100000000831117156105e757600080fd5b90919293919293908035906020019064010000000081111561060857600080fd5b82018360208201111561061a57600080fd5b8035906020019184600183028401116401000000008311171561063c57600080fd5b9091929391929390803590602001909291908035906020019064010000000081111561066757600080fd5b82018360208201111561067957600080fd5b8035906020019184600183028401116401000000008311171561069b57600080fd5b9091929391929390505050611919565b005b6106b5611c09565b005b3480156106c357600080fd5b5061077f600480360360a08110156106da57600080fd5b81019080803560ff169060200190929190803573ffffffffffffffffffffffffffffffffffffffff1690602001909291908035906020019064010000000081111561072457600080fd5b82018360208201111561073657600080fd5b8035906020019184600183028401116401000000008311171561075857600080fd5b909192939192939080359060200190929190803560ff169060200190929190505050611dea565b005b34801561078d57600080fd5b50610796612411565b604051808215151515815260200191505060405180910390f35b3480156107bc57600080fd5b506107c5612428565b604051808260ff1660ff16815260200191505060405180910390f35b3480156107ed57600080fd5b506108656004803603602081101561080457600080fd5b810190808035906020019064010000000081111561082157600080fd5b82018360208201111561083357600080fd5b8035906020019184600183028401116401000000008311171561085557600080fd5b90919293919293905050506126c7565b005b6000670de0b6b3a7640000905090565b600160149054906101000a900460ff166108dc576040517f08c379a0000000000000000000000000000000000000000000000000000000008152600401808060200182810382526025815260200180612ffa6025913960400191505060405180910390fd5b336108e681612829565b61093b576040517f08c379a0000000000000000000000000000000000000000000000000000000008152600401808060200182810382526028815260200180612f8e6028913960400191505060405180910390fd5b61098a3386868080601f016020809104026020016040519081016040528093929190818152602001838380828437600081840152601f19601f820116905080830192505050505050508561290c565b6002600082815260200190815260200160002060009054906101000a900473ffffffffffffffffffffffffffffffffffffffff1673ffffffffffffffffffffffffffffffffffffffff163373ffffffffffffffffffffffffffffffffffffffff1614610a5e576040517f08c379a00000000000000000000000000000000000000000000000000000000081526004018080602001828103825260168152602001807f4e6f74206120666c69676874206f70657261746f722e0000000000000000000081525060200191505060405180910390fd5b6000610aaf3388888080601f016020809104026020016040519081016040528093929190818152602001838380828437600081840152601f19601f820116905080830192505050505050508761290c565b90507f029a3f1d54054fb826aa6503ceba4424858dc0b660a751dfd9881d615deec1c5338286604051808473ffffffffffffffffffffffffffffffffffffffff1673ffffffffffffffffffffffffffffffffffffffff1681526020018381526020018260ff1660ff168152602001935050505060405180910390a150505050505050565b6000809054906101000a900473ffffffffffffffffffffffffffffffffffffffff1673ffffffffffffffffffffffffffffffffffffffff163373ffffffffffffffffffffffffffffffffffffffff1614610bf5576040517f08c379a000000000000000000000000000000000000000000000000000000000815260040180806020018281038252601c8152602001807f43616c6c6572206973206e6f7420636f6e7472616374206f776e65720000000081525060200191505060405180910390fd5b80600160146101000a81548160ff02191690831515021790555050565b33610c1c81612829565b80610c2c5750610c2b816129c8565b5b15610c82576040517f08c379a0000000000000000000000000000000000000000000000000000000008152600401808060200182810382526023815260200180612fb66023913960400191505060405180910390fd5b600160009054906101000a900473ffffffffffffffffffffffffffffffffffffffff1673ffffffffffffffffffffffffffffffffffffffff166329df66cc3385856040518463ffffffff1660e01b8152600401808473ffffffffffffffffffffffffffffffffffffffff1673ffffffffffffffffffffffffffffffffffffffff168152602001806020018281038252848482818152602001925080828437600081840152601f19601f820116905080830192505050945050505050600060405180830381600087803b158015610d5757600080fd5b505af1158015610d6b573d6000803e3d6000fd5b50505050505050565b600160149054906101000a900460ff16610dd9576040517f08c379a0000000000000000000000000000000000000000000000000000000008152600401808060200182810382526025815260200180612ffa6025913960400191505060405180910390fd5b33610de3816129c8565b610e38576040517f08c379a000000000000000000000000000000000000000000000000000000000815260040180806020018281038252602981526020018061301f6029913960400191505060405180910390fd5b600160009054906101000a900473ffffffffffffffffffffffffffffffffffffffff1673ffffffffffffffffffffffffffffffffffffffff1663f3fef3a333846040518363ffffffff1660e01b8152600401808373ffffffffffffffffffffffffffffffffffffffff1673ffffffffffffffffffffffffffffffffffffffff16815260200182815260200192505050600060405180830381600087803b158015610ee157600080fd5b505af1158015610ef5573d6000803e3d6000fd5b505050505050565b670de0b6b3a7640000341015610f7b576040517f08c379a000000000000000000000000000000000000000000000000000000000815260040180806020018281038252601c8152602001807f526567697374726174696f6e206665652069732072657175697265640000000081525060200191505060405180910390fd5b610f83612e3c565b610f8c33612aab565b9050604051806040016040528060011515815260200182815250600460003373ffffffffffffffffffffffffffffffffffffffff1673ffffffffffffffffffffffffffffffffffffffff16815260200190815260200160002060008201518160000160006101000a81548160ff02191690831515021790555060208201518160010190600361101c929190612e5e565b5090505050565b600160149054906101000a900460ff16611088576040517f08c379a0000000000000000000000000000000000000000000000000000000008152600401808060200182810382526025815260200180612ffa6025913960400191505060405180910390fd5b3361109281612829565b6110e7576040517f08c379a0000000000000000000000000000000000000000000000000000000008152600401808060200182810382526028815260200180612f8e6028913960400191505060405180910390fd5b60006111383386868080601f016020809104026020016040519081016040528093929190818152602001838380828437600081840152601f19601f820116905080830192505050505050508561290c565b9050336002600083815260200190815260200160002060006101000a81548173ffffffffffffffffffffffffffffffffffffffff021916908373ffffffffffffffffffffffffffffffffffffffff1602179055507fc0d3746fdb923f9b90c69401fec84ba18801de177690249322689a723be83189816040518082815260200191505060405180910390a15050505050565b336111d481612829565b611229576040517f08c379a0000000000000000000000000000000000000000000000000000000008152600401808060200182810382526028815260200180612f8e6028913960400191505060405180910390fd5b600160009054906101000a900473ffffffffffffffffffffffffffffffffffffffff1673ffffffffffffffffffffffffffffffffffffffff166372dd8bcb83336040518363ffffffff1660e01b8152600401808373ffffffffffffffffffffffffffffffffffffffff1673ffffffffffffffffffffffffffffffffffffffff1681526020018273ffffffffffffffffffffffffffffffffffffffff1673ffffffffffffffffffffffffffffffffffffffff16815260200192505050600060405180830381600087803b1580156112fe57600080fd5b505af1158015611312573d6000803e3d6000fd5b50505050600160009054906101000a900473ffffffffffffffffffffffffffffffffffffffff1673ffffffffffffffffffffffffffffffffffffffff1663673448dd836040518263ffffffff1660e01b8152600401808273ffffffffffffffffffffffffffffffffffffffff1673ffffffffffffffffffffffffffffffffffffffff16815260200191505060206040518083038186803b1580156113b557600080fd5b505afa1580156113c9573d6000803e3d6000fd5b505050506040513d60208110156113df57600080fd5b81019080805190602001909291905050501561146f577f6738444db39abbc0f703de7b74776a83d0a0b55dbbff2a22255885bddda7749661141f83612c37565b83604051808360ff1660ff1681526020018273ffffffffffffffffffffffffffffffffffffffff1673ffffffffffffffffffffffffffffffffffffffff1681526020019250505060405180910390a15b5050565b600061147e33612829565b1561148c57600a90506114a8565b611495336129c8565b156114a357601490506114a8565b600090505b90565b6114b3612e3c565b600460003373ffffffffffffffffffffffffffffffffffffffff1673ffffffffffffffffffffffffffffffffffffffff16815260200190815260200160002060000160009054906101000a900460ff16611575576040517f08c379a000000000000000000000000000000000000000000000000000000000815260040180806020018281038252601b8152602001807f4e6f74207265676973746572656420617320616e206f7261636c65000000000081525060200191505060405180910390fd5b600460003373ffffffffffffffffffffffffffffffffffffffff1673ffffffffffffffffffffffffffffffffffffffff168152602001908152602001600020600101600380602002604051908101604052809291908260038015611614576020028201916000905b82829054906101000a900460ff1660ff16815260200190600101906020826000010492830192600103820291508084116115dd5790505b5050505050905090565b670de0b6b3a764000081565b600160149054906101000a900460ff1661168f576040517f08c379a0000000000000000000000000000000000000000000000000000000008152600401808060200182810382526025815260200180612ffa6025913960400191505060405180910390fd5b60006117b9600160009054906101000a900473ffffffffffffffffffffffffffffffffffffffff1673ffffffffffffffffffffffffffffffffffffffff16638e6d88ca89896040518363ffffffff1660e01b815260040180806020018281038252848482818152602001925080828437600081840152601f19601f820116905080830192505050935050505060206040518083038186803b15801561173357600080fd5b505afa158015611747573d6000803e3d6000fd5b505050506040513d602081101561175d57600080fd5b810190808051906020019092919050505086868080601f016020809104026020016040519081016040528093929190818152602001838380828437600081840152601f19601f820116905080830192505050505050508561290c565b90508773ffffffffffffffffffffffffffffffffffffffff166002600083815260200190815260200160002060009054906101000a900473ffffffffffffffffffffffffffffffffffffffff1673ffffffffffffffffffffffffffffffffffffffff1614611872576040517f08c379a000000000000000000000000000000000000000000000000000000000815260040180806020018281038252602481526020018061306b6024913960400191505060405180910390fd5b8160ff16601460ff16141561190f57600160009054906101000a900473ffffffffffffffffffffffffffffffffffffffff1673ffffffffffffffffffffffffffffffffffffffff1663a8d81fb4826040518263ffffffff1660e01b815260040180828152602001915050600060405180830381600087803b1580156118f657600080fd5b505af115801561190a573d6000803e3d6000fd5b505050505b5050505050505050565b600160149054906101000a900460ff1661197e576040517f08c379a0000000000000000000000000000000000000000000000000000000008152600401808060200182810382526025815260200180612ffa6025913960400191505060405180910390fd5b33611988816129c8565b6119dd576040517f08c379a000000000000000000000000000000000000000000000000000000000815260040180806020018281038252602981526020018061301f6029913960400191505060405180910390fd5b6000611b07600160009054906101000a900473ffffffffffffffffffffffffffffffffffffffff1673ffffffffffffffffffffffffffffffffffffffff16638e6d88ca8b8b6040518363ffffffff1660e01b815260040180806020018281038252848482818152602001925080828437600081840152601f19601f820116905080830192505050935050505060206040518083038186803b158015611a8157600080fd5b505afa158015611a95573d6000803e3d6000fd5b505050506040513d6020811015611aab57600080fd5b810190808051906020019092919050505088888080601f016020809104026020016040519081016040528093929190818152602001838380828437600081840152601f19601f820116905080830192505050505050508761290c565b90506000611b32600a611b24600f34612d2790919063ffffffff16565b612dad90919063ffffffff16565b9050600160009054906101000a900473ffffffffffffffffffffffffffffffffffffffff1673ffffffffffffffffffffffffffffffffffffffff1663f3eb52a3838787856040518563ffffffff1660e01b815260040180858152602001806020018381526020018281038252858582818152602001925080828437600081840152601f19601f82011690508083019250505095505050505050600060405180830381600087803b158015611be557600080fd5b505af1158015611bf9573d6000803e3d6000fd5b5050505050505050505050505050565b600160149054906101000a900460ff16611c6e576040517f08c379a0000000000000000000000000000000000000000000000000000000008152600401808060200182810382526025815260200180612ffa6025913960400191505060405180910390fd5b33611c7881612829565b611ccd576040517f08c379a0000000000000000000000000000000000000000000000000000000008152600401808060200182810382526028815260200180612f8e6028913960400191505060405180910390fd5b678ac7230489e80000341015611d2e576040517f08c379a0000000000000000000000000000000000000000000000000000000008152600401808060200182810382526036815260200180612f586036913960400191505060405180910390fd5b600160009054906101000a900473ffffffffffffffffffffffffffffffffffffffff1673ffffffffffffffffffffffffffffffffffffffff166345f9fc78336040518263ffffffff1660e01b8152600401808273ffffffffffffffffffffffffffffffffffffffff1673ffffffffffffffffffffffffffffffffffffffff168152602001915050600060405180830381600087803b158015611dcf57600080fd5b505af1158015611de3573d6000803e3d6000fd5b5050505050565b600160149054906101000a900460ff16611e4f576040517f08c379a0000000000000000000000000000000000000000000000000000000008152600401808060200182810382526025815260200180612ffa6025913960400191505060405180910390fd5b8560ff16600460003373ffffffffffffffffffffffffffffffffffffffff1673ffffffffffffffffffffffffffffffffffffffff168152602001908152602001600020600101600060038110611ea157fe5b602091828204019190069054906101000a900460ff1660ff161480611f2e57508560ff16600460003373ffffffffffffffffffffffffffffffffffffffff1673ffffffffffffffffffffffffffffffffffffffff168152602001908152602001600020600101600160038110611f1357fe5b602091828204019190069054906101000a900460ff1660ff16145b80611fa157508560ff16600460003373ffffffffffffffffffffffffffffffffffffffff1673ffffffffffffffffffffffffffffffffffffffff168152602001908152602001600020600101600260038110611f8657fe5b602091828204019190069054906101000a900460ff1660ff16145b611ff6576040517f08c379a00000000000000000000000000000000000000000000000000000000081526004018080602001828103825260238152602001806130486023913960400191505060405180910390fd5b60008686868686604051602001808660ff1660ff1660f81b81526001018573ffffffffffffffffffffffffffffffffffffffff1673ffffffffffffffffffffffffffffffffffffffff1660601b815260140184848082843780830192505050828152602001955050505050506040516020818303038152906040528051906020012090506005600082815260200190815260200160002060000160149054906101000a900460ff166120f3576040517f08c379a000000000000000000000000000000000000000000000000000000000815260040180806020018281038252602f815260200180612f29602f913960400191505060405180910390fd5b6005600082815260200190815260200160002060010160008360ff1660ff1681526020019081526020016000203390806001815401808255809150509060018203906000526020600020016000909192909190916101000a81548173ffffffffffffffffffffffffffffffffffffffff021916908373ffffffffffffffffffffffffffffffffffffffff160217905550507f43c853095c2752648493c88b4baac4d580d2594ffb00c6f1d4242d844514f7838686868686604051808673ffffffffffffffffffffffffffffffffffffffff1673ffffffffffffffffffffffffffffffffffffffff168152602001806020018481526020018360ff1660ff1681526020018281038252868682818152602001925080828437600081840152601f19601f820116905080830192505050965050505050505060405180910390a160036005600083815260200190815260200160002060010160008460ff1660ff1681526020019081526020016000208054905010612408577fe23f5229de535c091e3b7bec2665f5d698192d3b31393066e8987b7a05076b6c8686868686604051808673ffffffffffffffffffffffffffffffffffffffff1673ffffffffffffffffffffffffffffffffffffffff168152602001806020018481526020018360ff1660ff1681526020018281038252868682818152602001925080828437600081840152601f19601f820116905080830192505050965050505050505060405180910390a18160ff16601460ff1614156124075760006123768787878080601f016020809104026020016040519081016040528093929190818152602001838380828437600081840152601f19601f820116905080830192505050505050508661290c565b9050600160009054906101000a900473ffffffffffffffffffffffffffffffffffffffff1673ffffffffffffffffffffffffffffffffffffffff1663a8d81fb4826040518263ffffffff1660e01b815260040180828152602001915050600060405180830381600087803b1580156123ed57600080fd5b505af1158015612401573d6000803e3d6000fd5b50505050505b5b50505050505050565b6000600160149054906101000a900460ff16905090565b6000600160149054906101000a900460ff1661248f576040517f08c379a0000000000000000000000000000000000000000000000000000000008152600401808060200182810382526025815260200180612ffa6025913960400191505060405180910390fd5b3361249981612829565b6124ee576040517f08c379a0000000000000000000000000000000000000000000000000000000008152600401808060200182810382526028815260200180612f8e6028913960400191505060405180910390fd5b600160009054906101000a900473ffffffffffffffffffffffffffffffffffffffff1673ffffffffffffffffffffffffffffffffffffffff16635689b249336040518263ffffffff1660e01b8152600401808273ffffffffffffffffffffffffffffffffffffffff1673ffffffffffffffffffffffffffffffffffffffff16815260200191505060206040518083038186803b15801561258d57600080fd5b505afa1580156125a1573d6000803e3d6000fd5b505050506040513d60208110156125b757600080fd5b8101908080519060200190929190505050156125d657601491506126c3565b600160009054906101000a900473ffffffffffffffffffffffffffffffffffffffff1673ffffffffffffffffffffffffffffffffffffffff1663673448dd336040518263ffffffff1660e01b8152600401808273ffffffffffffffffffffffffffffffffffffffff1673ffffffffffffffffffffffffffffffffffffffff16815260200191505060206040518083038186803b15801561267557600080fd5b505afa158015612689573d6000803e3d6000fd5b505050506040513d602081101561269f57600080fd5b8101908080519060200190929190505050156126be57600a91506126c3565b600091505b5090565b336126d181612829565b806126e157506126e0816129c8565b5b15612737576040517f08c379a0000000000000000000000000000000000000000000000000000000008152600401808060200182810382526023815260200180612fb66023913960400191505060405180910390fd5b600160009054906101000a900473ffffffffffffffffffffffffffffffffffffffff1673ffffffffffffffffffffffffffffffffffffffff1663cb1b1a8a3385856040518463ffffffff1660e01b8152600401808473ffffffffffffffffffffffffffffffffffffffff1673ffffffffffffffffffffffffffffffffffffffff168152602001806020018281038252848482818152602001925080828437600081840152601f19601f820116905080830192505050945050505050600060405180830381600087803b15801561280c57600080fd5b505af1158015612820573d6000803e3d6000fd5b50505050505050565b6000600160009054906101000a900473ffffffffffffffffffffffffffffffffffffffff1673ffffffffffffffffffffffffffffffffffffffff16630e248a11836040518263ffffffff1660e01b8152600401808273ffffffffffffffffffffffffffffffffffffffff1673ffffffffffffffffffffffffffffffffffffffff16815260200191505060206040518083038186803b1580156128ca57600080fd5b505afa1580156128de573d6000803e3d6000fd5b505050506040513d60208110156128f457600080fd5b81019080805190602001909291905050509050919050565b6000838383604051602001808473ffffffffffffffffffffffffffffffffffffffff1673ffffffffffffffffffffffffffffffffffffffff1660601b815260140183805190602001908083835b6020831061297c5780518252602082019150602081019050602083039250612959565b6001836020036101000a03801982511681845116808217855250505050505090500182815260200193505050506040516020818303038152906040528051906020012090509392505050565b6000600160009054906101000a900473ffffffffffffffffffffffffffffffffffffffff1673ffffffffffffffffffffffffffffffffffffffff16631dd13a1d836040518263ffffffff1660e01b8152600401808273ffffffffffffffffffffffffffffffffffffffff1673ffffffffffffffffffffffffffffffffffffffff16815260200191505060206040518083038186803b158015612a6957600080fd5b505afa158015612a7d573d6000803e3d6000fd5b505050506040513d6020811015612a9357600080fd5b81019080805190602001909291905050509050919050565b612ab3612e3c565b612abb612e3c565b612ac483612c37565b81600060038110612ad157fe5b602002019060ff16908160ff168152505080600060038110612aef57fe5b602002015181600160038110612b0157fe5b602002019060ff16908160ff16815250505b80600060038110612b2057fe5b602002015160ff1681600160038110612b3557fe5b602002015160ff161415612b6f57612b4c83612c37565b81600160038110612b5957fe5b602002019060ff16908160ff1681525050612b13565b80600160038110612b7c57fe5b602002015181600260038110612b8e57fe5b602002019060ff16908160ff16815250505b80600060038110612bad57fe5b602002015160ff1681600260038110612bc257fe5b602002015160ff161480612bfd575080600160038110612bde57fe5b602002015160ff1681600260038110612bf357fe5b602002015160ff16145b15612c2e57612c0b83612c37565b81600260038110612c1857fe5b602002019060ff16908160ff1681525050612ba0565b80915050919050565b600080600a905060008160ff166003600081819054906101000a900460ff168092919060010191906101000a81548160ff021916908360ff16021790555060ff1643034085604051602001808381526020018273ffffffffffffffffffffffffffffffffffffffff1673ffffffffffffffffffffffffffffffffffffffff1660601b8152601401925050506040516020818303038152906040528051906020012060001c81612ce257fe5b06905060fa600360009054906101000a900460ff1660ff161115612d1d576000600360006101000a81548160ff021916908360ff1602179055505b8092505050919050565b600080831415612d3a5760009050612da7565b6000828402905082848281612d4b57fe5b0414612da2576040517f08c379a0000000000000000000000000000000000000000000000000000000008152600401808060200182810382526021815260200180612fd96021913960400191505060405180910390fd5b809150505b92915050565b6000808211612e24576040517f08c379a000000000000000000000000000000000000000000000000000000000815260040180806020018281038252601a8152602001807f536166654d6174683a206469766973696f6e206279207a65726f00000000000081525060200191505060405180910390fd5b6000828481612e2f57fe5b0490508091505092915050565b6040518060600160405280600390602082028038833980820191505090505090565b826003601f01602090048101928215612ee75791602002820160005b83821115612eb857835183826101000a81548160ff021916908360ff1602179055509260200192600101602081600001049283019260010302612e7a565b8015612ee55782816101000a81549060ff0219169055600101602081600001049283019260010302612eb8565b505b509050612ef49190612ef8565b5090565b612f2591905b80821115612f2157600081816101000a81549060ff021916905550600101612efe565b5090565b9056fe466c69676874206f722074696d657374616d7020646f206e6f74206d61746368206f7261636c6520726571756573744e6f7420656e6f7567682066756e6420616d6f756e742e2053686f756c64206265206c6172676572207468656e20313020657468657254686973206163636f756e74206973206e6f7420616e20616972706c616e65206163636f756e742e54686973206163636f756e7420697320616c726561647920726567697374657265642e536166654d6174683a206d756c7469706c69636174696f6e206f766572666c6f77436f6e74726163742069732063757272656e746c79206e6f74206f7065726174696f6e616c54686973206163636f756e74206973206e6f7420616e2070617373656e676572206163636f756e742e496e64657820646f6573206e6f74206d61746368206f7261636c6520726571756573744169726c696e65732063616e206f6e6c79207570646174652069747320666c696768742ea165627a7a72305820c6ab413beab8b507352608b7d72f04cfda6a47270cb0a734c8b6f4f9ab4b8a1c0029608060405260006003556001600760146101000a81548160ff02191690831515021790555034801561003057600080fd5b5060405160208061275c8339810180604052602081101561005057600080fd5b810190808051906020019092919050505080600760006101000a81548173ffffffffffffffffffffffffffffffffffffffff021916908373ffffffffffffffffffffffffffffffffffffffff160217905550506126aa806100b26000396000f3fe6080604052600436106100fe5760003560e01c80638e6d88ca11610095578063c4e9bd2c11610064578063c4e9bd2c146105b2578063cb1b1a8a146106ba578063cd905dff14610760578063f3eb52a31461078f578063f3fef3a314610829576100fe565b80638e6d88ca146104495780639bbd77681461050f578063a478bbe914610526578063a8d81fb414610577576100fe565b8063500b94aa116100d1578063500b94aa146102c95780635689b24914610306578063673448dd1461036f57806372dd8bcb146103d8576100fe565b80630e248a11146101005780631dd13a1d1461016957806329df66cc146101d257806345f9fc7814610278575b005b34801561010c57600080fd5b5061014f6004803603602081101561012357600080fd5b81019080803573ffffffffffffffffffffffffffffffffffffffff169060200190929190505050610884565b604051808215151515815260200191505060405180910390f35b34801561017557600080fd5b506101b86004803603602081101561018c57600080fd5b81019080803573ffffffffffffffffffffffffffffffffffffffff1690602001909291905050506108e6565b604051808215151515815260200191505060405180910390f35b3480156101de57600080fd5b50610276600480360360408110156101f557600080fd5b81019080803573ffffffffffffffffffffffffffffffffffffffff1690602001909291908035906020019064010000000081111561023257600080fd5b82018360208201111561024457600080fd5b8035906020019184600183028401116401000000008311171561026657600080fd5b9091929391929390505050610949565b005b34801561028457600080fd5b506102c76004803603602081101561029b57600080fd5b81019080803573ffffffffffffffffffffffffffffffffffffffff16906020019092919050505061099c565b005b3480156102d557600080fd5b50610304600480360360208110156102ec57600080fd5b81019080803515159060200190929190505050610af4565b005b34801561031257600080fd5b506103556004803603602081101561032957600080fd5b81019080803573ffffffffffffffffffffffffffffffffffffffff169060200190929190505050610bd4565b604051808215151515815260200191505060405180910390f35b34801561037b57600080fd5b506103be6004803603602081101561039257600080fd5b81019080803573ffffffffffffffffffffffffffffffffffffffff169060200190929190505050610c2c565b604051808215151515815260200191505060405180910390f35b3480156103e457600080fd5b50610447600480360360408110156103fb57600080fd5b81019080803573ffffffffffffffffffffffffffffffffffffffff169060200190929190803573ffffffffffffffffffffffffffffffffffffffff169060200190929190505050610c84565b005b34801561045557600080fd5b506104cd6004803603602081101561046c57600080fd5b810190808035906020019064010000000081111561048957600080fd5b82018360208201111561049b57600080fd5b803590602001918460018302840111640100000000831117156104bd57600080fd5b90919293919293905050506111fd565b604051808273ffffffffffffffffffffffffffffffffffffffff1673ffffffffffffffffffffffffffffffffffffffff16815260200191505060405180910390f35b34801561051b57600080fd5b5061052461124f565b005b34801561053257600080fd5b506105756004803603602081101561054957600080fd5b81019080803573ffffffffffffffffffffffffffffffffffffffff16906020019092919050505061125a565b005b34801561058357600080fd5b506105b06004803603602081101561059a57600080fd5b8101908080359060200190929190505050611266565b005b3480156105be57600080fd5b50610678600480360360208110156105d557600080fd5b81019080803590602001906401000000008111156105f257600080fd5b82018360208201111561060457600080fd5b8035906020019184600183028401116401000000008311171561062657600080fd5b91908080601f016020809104026020016040519081016040528093929190818152602001838380828437600081840152601f19601f8201169050808301925050505050505091929192905050506115b6565b604051808273ffffffffffffffffffffffffffffffffffffffff1673ffffffffffffffffffffffffffffffffffffffff16815260200191505060405180910390f35b3480156106c657600080fd5b5061075e600480360360408110156106dd57600080fd5b81019080803573ffffffffffffffffffffffffffffffffffffffff1690602001909291908035906020019064010000000081111561071a57600080fd5b82018360208201111561072c57600080fd5b8035906020019184600183028401116401000000008311171561074e57600080fd5b9091929391929390505050611649565b005b34801561076c57600080fd5b5061077561169c565b604051808215151515815260200191505060405180910390f35b34801561079b57600080fd5b50610827600480360360608110156107b257600080fd5b8101908080359060200190929190803590602001906401000000008111156107d957600080fd5b8201836020820111156107eb57600080fd5b8035906020019184600183028401116401000000008311171561080d57600080fd5b9091929391929390803590602001909291905050506116b3565b005b34801561083557600080fd5b506108826004803603604081101561084c57600080fd5b81019080803573ffffffffffffffffffffffffffffffffffffffff16906020019092919080359060200190929190505050611889565b005b6000806000808473ffffffffffffffffffffffffffffffffffffffff1673ffffffffffffffffffffffffffffffffffffffff16815260200190815260200160002060000180546001816001161561010002031660029004905014159050919050565b600080600460008473ffffffffffffffffffffffffffffffffffffffff1673ffffffffffffffffffffffffffffffffffffffff16815260200190815260200160002060000180546001816001161561010002031660029004905014159050919050565b6109978383838080601f016020809104026020016040519081016040528093929190818152602001838380828437600081840152601f19601f820116905080830192505050505050506119dc565b505050565b806109a681610884565b610a18576040517f08c379a000000000000000000000000000000000000000000000000000000000815260040180806020018281038252600e8152602001807f4e6f7420616e206169726c696e6500000000000000000000000000000000000081525060200191505060405180910390fd5b81610a2281610bd4565b15610a95576040517f08c379a000000000000000000000000000000000000000000000000000000000815260040180806020018281038252600e8152602001807f416c72656164792066756e64656400000000000000000000000000000000000081525060200191505060405180910390fd5b60016000808573ffffffffffffffffffffffffffffffffffffffff1673ffffffffffffffffffffffffffffffffffffffff16815260200190815260200160002060010160016101000a81548160ff021916908315150217905550505050565b600760009054906101000a900473ffffffffffffffffffffffffffffffffffffffff1673ffffffffffffffffffffffffffffffffffffffff163373ffffffffffffffffffffffffffffffffffffffff1614610bb7576040517f08c379a000000000000000000000000000000000000000000000000000000000815260040180806020018281038252601c8152602001807f43616c6c6572206973206e6f7420636f6e7472616374206f776e65720000000081525060200191505060405180910390fd5b80600760146101000a81548160ff02191690831515021790555050565b60008060008373ffffffffffffffffffffffffffffffffffffffff1673ffffffffffffffffffffffffffffffffffffffff16815260200190815260200160002060010160019054906101000a900460ff169050919050565b60008060008373ffffffffffffffffffffffffffffffffffffffff1673ffffffffffffffffffffffffffffffffffffffff16815260200190815260200160002060010160009054906101000a900460ff169050919050565b81610c8e81610884565b610d00576040517f08c379a000000000000000000000000000000000000000000000000000000000815260040180806020018281038252600e8152602001807f4e6f7420616e206169726c696e6500000000000000000000000000000000000081525060200191505060405180910390fd5b81610d0a81610884565b610d7c576040517f08c379a000000000000000000000000000000000000000000000000000000000815260040180806020018281038252600e8152602001807f4e6f7420616e206169726c696e6500000000000000000000000000000000000081525060200191505060405180910390fd5b82610d8681610bd4565b610df8576040517f08c379a000000000000000000000000000000000000000000000000000000000815260040180806020018281038252600a8152602001807f4e6f742066756e6465640000000000000000000000000000000000000000000081525060200191505060405180910390fd5b8484600160008373ffffffffffffffffffffffffffffffffffffffff1673ffffffffffffffffffffffffffffffffffffffff16815260200190815260200160002060008273ffffffffffffffffffffffffffffffffffffffff1673ffffffffffffffffffffffffffffffffffffffff16815260200190815260200160002060009054906101000a900460ff1615610eda576040517f08c379a000000000000000000000000000000000000000000000000000000000815260040180806020018281038252602b8152602001806125f8602b913960400191505060405180910390fd5b8573ffffffffffffffffffffffffffffffffffffffff168773ffffffffffffffffffffffffffffffffffffffff161415610f7c576040517f08c379a00000000000000000000000000000000000000000000000000000000081526004018080602001828103825260138152602001807f43616e6e6f7420617070726f76652073656c660000000000000000000000000081525060200191505060405180910390fd5b6000808873ffffffffffffffffffffffffffffffffffffffff1673ffffffffffffffffffffffffffffffffffffffff1681526020019081526020016000206002016000815480929190600101919050555060018060008973ffffffffffffffffffffffffffffffffffffffff1673ffffffffffffffffffffffffffffffffffffffff16815260200190815260200160002060008873ffffffffffffffffffffffffffffffffffffffff1673ffffffffffffffffffffffffffffffffffffffff16815260200190815260200160002060006101000a81548160ff0219169083151502179055506111946000808973ffffffffffffffffffffffffffffffffffffffff1673ffffffffffffffffffffffffffffffffffffffff168152602001908152602001600020604051806080016040529081600082018054600181600116156101000203166002900480601f0160208091040260200160405190810160405280929190818152602001828054600181600116156101000203166002900480156111465780601f1061111b57610100808354040283529160200191611146565b820191906000526020600020905b81548152906001019060200180831161112957829003601f168201915b505050505081526020016001820160009054906101000a900460ff161515151581526020016001820160019054906101000a900460ff16151515158152602001600282015481525050611d6d565b156111f45760016000808973ffffffffffffffffffffffffffffffffffffffff1673ffffffffffffffffffffffffffffffffffffffff16815260200190815260200160002060010160006101000a81548160ff0219169083151502179055505b50505050505050565b600060028383604051808383808284378083019250505092505050908152602001604051809103902060009054906101000a900473ffffffffffffffffffffffffffffffffffffffff16905092915050565b61125833611d91565b565b61126381611efe565b50565b600760149054906101000a900460ff166112cb576040517f08c379a000000000000000000000000000000000000000000000000000000000815260040180806020018281038252602581526020018061265a6025913960400191505060405180910390fd5b600760009054906101000a900473ffffffffffffffffffffffffffffffffffffffff1673ffffffffffffffffffffffffffffffffffffffff163373ffffffffffffffffffffffffffffffffffffffff161461138e576040517f08c379a000000000000000000000000000000000000000000000000000000000815260040180806020018281038252601c8152602001807f43616c6c6572206973206e6f7420636f6e7472616374206f776e65720000000081525060200191505060405180910390fd5b600060096000838152602001908152602001600020905060008090505b81805490508160ff1610156115b157600083611477848460ff16815481106113cf57fe5b906000526020600020018054600181600116156101000203166002900480601f01602080910402602001604051908101604052809291908181526020018280546001816001161561010002031660029004801561146d5780601f106114425761010080835404028352916020019161146d565b820191906000526020600020905b81548152906001019060200180831161145057829003601f168201915b50505050506115b6565b604051602001808381526020018273ffffffffffffffffffffffffffffffffffffffff1673ffffffffffffffffffffffffffffffffffffffff1660601b8152601401925050506040516020818303038152906040528051906020012090506115a3838360ff16815481106114e757fe5b906000526020600020018054600181600116156101000203166002900480601f0160208091040260200160405190810160405280929190818152602001828054600181600116156101000203166002900480156115855780601f1061155a57610100808354040283529160200191611585565b820191906000526020600020905b81548152906001019060200180831161156857829003601f168201915b50505050506008600084815260200190815260200160002054611f95565b5080806001019150506113ab565b505050565b60006005826040518082805190602001908083835b602083106115ee57805182526020820191506020810190506020830392506115cb565b6001836020036101000a038019825116818451168082178552505050505050905001915050908152602001604051809103902060009054906101000a900473ffffffffffffffffffffffffffffffffffffffff169050919050565b6116978383838080601f016020809104026020016040519081016040528093929190818152602001838380828437600081840152601f19601f82011690508083019250505050505050612160565b505050565b6000600760149054906101000a900460ff16905090565b600760149054906101000a900460ff16611718576040517f08c379a000000000000000000000000000000000000000000000000000000000815260040180806020018281038252602581526020018061265a6025913960400191505060405180910390fd5b600760009054906101000a900473ffffffffffffffffffffffffffffffffffffffff1673ffffffffffffffffffffffffffffffffffffffff163373ffffffffffffffffffffffffffffffffffffffff16146117db576040517f08c379a000000000000000000000000000000000000000000000000000000000815260040180806020018281038252601c8152602001807f43616c6c6572206973206e6f7420636f6e7472616374206f776e65720000000081525060200191505060405180910390fd5b6000848484604051602001808481526020018383808284378083019250505093505050506040516020818303038152906040528051906020012090508160086000838152602001908152602001600020819055506009600086815260200190815260200160002084849091806001815401808255809150509060018203906000526020600020016000909192939091929390919290919250919061188092919061240a565b50505050505050565b81611893816108e6565b61189c57600080fd5b6000600660008573ffffffffffffffffffffffffffffffffffffffff1673ffffffffffffffffffffffffffffffffffffffff16815260200190815260200160002054905082811015611939576040517f08c379a00000000000000000000000000000000000000000000000000000000081526004018080602001828103825260378152602001806126236037913960400191505060405180910390fd5b61194c83826122eb90919063ffffffff16565b600660008673ffffffffffffffffffffffffffffffffffffffff1673ffffffffffffffffffffffffffffffffffffffff168152602001908152602001600020819055508373ffffffffffffffffffffffffffffffffffffffff166108fc849081150290604051600060405180830381858888f193505050501580156119d5573d6000803e3d6000fd5b5050505050565b600081511415611a54576040517f08c379a00000000000000000000000000000000000000000000000000000000081526004018080602001828103825260208152602001807f4169726c696e6520636f6d70616e7920616d65206973206d616e6461746f727981525060200191505060405180910390fd5b600360008154809291906001019190505550604051806080016040528082815260200160001515815260200160001515815260200160008152506000808473ffffffffffffffffffffffffffffffffffffffff1673ffffffffffffffffffffffffffffffffffffffff1681526020019081526020016000206000820151816000019080519060200190611ae892919061248a565b5060208201518160010160006101000a81548160ff02191690831515021790555060408201518160010160016101000a81548160ff02191690831515021790555060608201518160020155905050611c696000808473ffffffffffffffffffffffffffffffffffffffff1673ffffffffffffffffffffffffffffffffffffffff168152602001908152602001600020604051806080016040529081600082018054600181600116156101000203166002900480601f016020809104026020016040519081016040528092919081815260200182805460018160011615610100020316600290048015611c1b5780601f10611bf057610100808354040283529160200191611c1b565b820191906000526020600020905b815481529060010190602001808311611bfe57829003601f168201915b505050505081526020016001820160009054906101000a900460ff161515151581526020016001820160019054906101000a900460ff16151515158152602001600282015481525050611d6d565b6000808473ffffffffffffffffffffffffffffffffffffffff1673ffffffffffffffffffffffffffffffffffffffff16815260200190815260200160002060010160006101000a81548160ff021916908315150217905550816002826040518082805190602001908083835b60208310611cf85780518252602082019150602081019050602083039250611cd5565b6001836020036101000a038019825116818451168082178552505050505050905001915050908152602001604051809103902060006101000a81548173ffffffffffffffffffffffffffffffffffffffff021916908373ffffffffffffffffffffffffffffffffffffffff1602179055505050565b6000611d77612374565b80611d8a57506003548260600151600202115b9050919050565b6005600460008373ffffffffffffffffffffffffffffffffffffffff1673ffffffffffffffffffffffffffffffffffffffff1681526020019081526020016000206000016040518082805460018160011615610100020316600290048015611e305780601f10611e0e576101008083540402835291820191611e30565b820191906000526020600020905b815481529060010190602001808311611e1c575b5050915050908152602001604051809103902060006101000a81549073ffffffffffffffffffffffffffffffffffffffff0219169055600460008273ffffffffffffffffffffffffffffffffffffffff1673ffffffffffffffffffffffffffffffffffffffff16815260200190815260200160002060008082016000611eb6919061250a565b50508073ffffffffffffffffffffffffffffffffffffffff167f97444fa4b41e1f5173a20f39d2102723bc0067ea6342d82913e0b07dc7b19a3d60405160405180910390a250565b6000808273ffffffffffffffffffffffffffffffffffffffff1673ffffffffffffffffffffffffffffffffffffffff16815260200190815260200160002060008082016000611f4d919061250a565b6001820160006101000a81549060ff02191690556001820160016101000a81549060ff0219169055600282016000905550506003600081548092919060019003919050555050565b6005826040518082805190602001908083835b60208310611fcb5780518252602082019150602081019050602083039250611fa8565b6001836020036101000a038019825116818451168082178552505050505050905001915050908152602001604051809103902060009054906101000a900473ffffffffffffffffffffffffffffffffffffffff16612028816108e6565b61203157600080fd5b60006005846040518082805190602001908083835b602083106120695780518252602082019150602081019050602083039250612046565b6001836020036101000a038019825116818451168082178552505050505050905001915050908152602001604051809103902060009054906101000a900473ffffffffffffffffffffffffffffffffffffffff1690506000600660008373ffffffffffffffffffffffffffffffffffffffff1673ffffffffffffffffffffffffffffffffffffffff168152602001908152602001600020549050612116848261238290919063ffffffff16565b600660008473ffffffffffffffffffffffffffffffffffffffff1673ffffffffffffffffffffffffffffffffffffffff168152602001908152602001600020819055505050505050565b80600460008473ffffffffffffffffffffffffffffffffffffffff1673ffffffffffffffffffffffffffffffffffffffff16815260200190815260200160002060000190805190602001906121b6929190612552565b50816005826040518082805190602001908083835b602083106121ee57805182526020820191506020810190506020830392506121cb565b6001836020036101000a038019825116818451168082178552505050505050905001915050908152602001604051809103902060006101000a81548173ffffffffffffffffffffffffffffffffffffffff021916908373ffffffffffffffffffffffffffffffffffffffff1602179055506000600660008473ffffffffffffffffffffffffffffffffffffffff1673ffffffffffffffffffffffffffffffffffffffff168152602001908152602001600020819055508173ffffffffffffffffffffffffffffffffffffffff167f621e907b0b61084a1f2660c5627f80111a59ab9291ce55345a6145057946e9cc60405160405180910390a25050565b600082821115612363576040517f08c379a000000000000000000000000000000000000000000000000000000000815260040180806020018281038252601e8152602001807f536166654d6174683a207375627472616374696f6e206f766572666c6f77000081525060200191505060405180910390fd5b600082840390508091505092915050565b600060046003541115905090565b600080828401905083811015612400576040517f08c379a000000000000000000000000000000000000000000000000000000000815260040180806020018281038252601b8152602001807f536166654d6174683a206164646974696f6e206f766572666c6f77000000000081525060200191505060405180910390fd5b8091505092915050565b828054600181600116156101000203166002900490600052602060002090601f016020900481019282601f1061244b57803560ff1916838001178555612479565b82800160010185558215612479579182015b8281111561247857823582559160200191906001019061245d565b5b50905061248691906125d2565b5090565b828054600181600116156101000203166002900490600052602060002090601f016020900481019282601f106124cb57805160ff19168380011785556124f9565b828001600101855582156124f9579182015b828111156124f85782518255916020019190600101906124dd565b5b50905061250691906125d2565b5090565b50805460018160011615610100020316600290046000825580601f10612530575061254f565b601f01602090049060005260206000209081019061254e91906125d2565b5b50565b828054600181600116156101000203166002900490600052602060002090601f016020900481019282601f1061259357805160ff19168380011785556125c1565b828001600101855582156125c1579182015b828111156125c05782518255916020019190600101906125a5565b5b5090506125ce91906125d2565b5090565b6125f491905b808211156125f05760008160009055506001016125d8565b5090565b9056fe5468697320617070726f76657220616c726561647920617070726f7665642074686973206169726c696e6550617373656e676572732063616e6e6f742072657175657374206d6f7265207468616e20776974686472617761626c6520616d6f756e74436f6e74726163742069732063757272656e746c79206e6f74206f7065726174696f6e616ca165627a7a72305820c41b6da75424695aab44ca472af11c54cf789080e1d8807f34fe7346fa1e9adc0029",
  "source": "//pragma solidity ^0.4.25;\npragma solidity >=0.4.25 <0.6.0;\n\n\n// It's important to avoid vulnerabilities due to numeric overflow bugs\n// OpenZeppelin's SafeMath library, when used correctly, protects agains such bugs\n// More info: https://www.nccgroup.trust/us/about-us/newsroom-and-events/blog/2018/november/smart-contract-insecurity-bad-arithmetic/\n\nimport \"../node_modules/openzeppelin-solidity/contracts/math/SafeMath.sol\";\nimport \"./FlightSuretyData.sol\";\n\n/************************************************** */\n/* FlightSurety Smart Contract                      */\n/************************************************** */\ncontract FlightSuretyApp {\n    using SafeMath for uint256; // Allow SafeMath functions to be called for all uint256 types (similar to \"prototype\" in Javascript)\n\n    /********************************************************************************************/\n    /*                                       DATA VARIABLES                                     */\n    /********************************************************************************************/\n\n    // Airline Registration Status Code\n    uint8 private constant STATUS_CODE_REGISTERED = 0;\n    uint8 private constant STATUS_CODE_APPROVED = 10;\n    uint8 private constant STATUS_CODE_APPROVED_FUNDED = 20;\n    uint8 private constant STATUS_CODE_REJECTED = 99;\n    // Flight status codees\n    uint8 private constant STATUS_CODE_UNKNOWN = 0;\n    uint8 private constant STATUS_CODE_ON_TIME = 10;\n    uint8 private constant STATUS_CODE_LATE_AIRLINE = 20;\n    uint8 private constant STATUS_CODE_LATE_WEATHER = 30;\n    uint8 private constant STATUS_CODE_LATE_TECHNICAL = 40;\n    uint8 private constant STATUS_CODE_LATE_OTHER = 50;\n    // Account Type\n    uint8 private constant TYPE_UNDEFINED = 0;\n    uint8 private constant TYPE_AIRLINE = 10;\n    uint8 private constant TYPE_PASSENGER = 20;\n\n    uint256 private constant CREDIT_RATE = 15;\n    uint256 private constant DIV_RATE = 10;\n\n    address payable private contractOwner;          // Account used to deploy contract\n    FlightSuretyData private flightSuretyData;\n    bool private operational = true;\n\n    /********************************************************************************************/\n    /*                                            EVENTS                                        */\n    /********************************************************************************************/\n    //event eventRegisteredAirline(address airline);\n    event eventApprovedAirline(uint8 index, address airline);\n    //event eventFundedAirline(address airline);\n\n    event eventRegisterFlight(bytes32 flightID);\n    event eventUpdateFlightStatus(address airline, bytes32 flightID, uint8 status);\n\n\n    /********************************************************************************************/\n    /*                                       FUNCTION MODIFIERS                                 */\n    /********************************************************************************************/\n\n    // Modifiers help avoid duplication of code. They are typically used to validate something\n    // before a function is allowed to be executed.\n\n    /**\n    * @dev Modifier that requires the \"operational\" boolean variable to be \"true\"\n    *      This is used on all state changing functions to pause the contract in\n    *      the event there is an issue that needs to be fixed\n    */\n    modifier requireIsOperational()\n    {\n         // Modify to call data contract's status\n        require(operational, \"Contract is currently not operational\");\n        _;  // All modifiers require an \"_\" which indicates where the function body will be added\n    }\n\n    /**\n    * @dev Modifier that requires the \"ContractOwner\" account to be the function caller\n    */\n    modifier requireContractOwner()\n    {\n        require(msg.sender == contractOwner, \"Caller is not contract owner\");\n        _;\n    }\n\n    modifier enoughFundAmount() {\n        require(msg.value >= 10 ether, 'Not enough fund amount. Should be larger then 10 ether');\n        _;\n    }\n\n    /**\n    * @dev Modifier that requires the the account is not registered yet\n    */\n    modifier onlyNewAccount(address account) {\n        require(!(_isAirline(account) || _isPassenger(account)), \"This account is already registered.\");\n        _;\n    }\n\n    /**\n    * @dev Modifier that requires the  account is airline\n    */\n    modifier onlyAirline(address account) {\n        require(_isAirline(account), \"This account is not an airplane account.\");\n        _;\n    }\n\n    /**\n    * @dev Modifier that requires the account is passenger\n    */\n    modifier onlyPassenger(address account) {\n        require(_isPassenger(account), \"This account is not an passenger account.\");\n        _;\n    }\n\n    function _isAirline(address account) private view returns (bool) {\n        return flightSuretyData.isAirline(account);\n    }\n    function _isPassenger(address account) private view returns (bool) {\n        return flightSuretyData.isPassenger(account);\n    }\n\n    function getAccountType() public view returns (uint8) {\n        if(_isAirline(msg.sender)) {\n            return TYPE_AIRLINE;\n        } else if (_isPassenger(msg.sender)) {\n            return TYPE_PASSENGER;\n        } else {\n            return TYPE_UNDEFINED;\n        }\n    }\n\n    /********************************************************************************************/\n    /*                                       CONSTRUCTOR                                        */\n    /********************************************************************************************/\n\n    /**\n    * @dev Contract constructor\n    *\n    */\n    constructor () public\n    {\n        contractOwner = msg.sender;\n        flightSuretyData = new FlightSuretyData(msg.sender);\n    }\n\n    /********************************************************************************************/\n    /*                                       UTILITY FUNCTIONS                                  */\n    /********************************************************************************************/\n\n    function isOperational()\n        public\n        view\n        returns(bool)\n    {\n        return operational;// && flightSuretyData.isOperational();  // Modify to call data contract's status\n    }\n\n    function setOperatingStatus(\n            bool mode )\n        external\n        requireContractOwner {\n\n        //flightSuretyData.setOperational(mode);\n        operational = mode;\n    }\n\n\n    /********************************************************************************************/\n    /*                                       DApps                                  */\n    /********************************************************************************************/\n\n\n    /********************************************************************************************/\n    /*                                     SMART CONTRACT FUNCTIONS                             */\n    /********************************************************************************************/\n\n   /**\n    * @dev Add an airline to the registration queue\n    *\n    */\n    function registerAirline(string calldata name)\n        external\n        onlyNewAccount(msg.sender)\n    {\n        flightSuretyData.addAirline(msg.sender, name);\n        //emit eventRegisteredAirline(msg.sender);\n    }\n\n    function approveAirline(address airlineAccount)\n        external\n        onlyAirline(msg.sender)\n    {\n        flightSuretyData.approveAirline(airlineAccount, msg.sender);\n        if ( flightSuretyData.isApproved(airlineAccount)) {\n            emit eventApprovedAirline(getRandomIndex(airlineAccount), airlineAccount);\n        }\n    }\n\n    function fund()\n        external\n        payable\n        requireIsOperational\n        onlyAirline(msg.sender)\n        enoughFundAmount\n    { // check if got enough fund or not\n        flightSuretyData.funded(msg.sender);\n        //emit eventFundedAirline(msg.sender);\n    }\n\n\n    function getAirlineStatus()\n        external\n        view\n        requireIsOperational\n        onlyAirline(msg.sender)\n        returns (uint8) {\n\n        if(flightSuretyData.isFunded(msg.sender)) {\n            return STATUS_CODE_APPROVED_FUNDED;\n        } else if(flightSuretyData.isApproved(msg.sender)) {\n            return STATUS_CODE_APPROVED;\n        } else {\n            return STATUS_CODE_REGISTERED;\n        }  // rejection is out of scope\n    }\n\n    /**\n        Flight Operation only by Airline\n     */\n   /**\n    * @dev Register a future flight for insuring.\n    *\n    */\n    function registerFlight(string calldata flight, uint256 timestamp)\n        external\n        requireIsOperational\n        onlyAirline(msg.sender)\n    {\n        bytes32 flightKey = getFlightKey(\n                                msg.sender,\n                                flight,\n                                timestamp);\n        flightProvider[flightKey] = msg.sender;\n        emit eventRegisterFlight(flightKey);\n    }\n\n    // @todo avoid other airlines to update the flight. Maybe better use /api in the oracle server\n    function updateFlightStatus(string calldata flight, uint256 timestamp, uint8 statusCode )\n        external\n        requireIsOperational\n        onlyAirline(msg.sender)\n        onlyFlightProvider(getFlightKey(msg.sender, flight, timestamp))\n    {\n        bytes32 flightKey = getFlightKey(\n                                msg.sender,\n                                flight,\n                                timestamp);\n        emit eventUpdateFlightStatus(msg.sender, flightKey, statusCode);\n    }\n\n    // From FlightKey to airline address\n    mapping(bytes32 => address) private flightProvider;\n    // Only the flight provider can operate on the flight of the airline.\n    modifier onlyFlightProvider(bytes32 flightKey) {\n        require(msg.sender == flightProvider[flightKey], \"Not a flight operator.\");\n        _;\n    }\n\n\n   /**\n    * @dev Called after oracle has updated flight status\n    *\n    */\n    function listenFlightStatuUpdatesUpdate(\n            address updater,\n            string calldata airlineName,\n            string calldata flightName,\n            uint256 timestamp,\n            uint8 statusCode)\n        external\n        requireIsOperational\n    {\n        bytes32 flightKey = getFlightKey(\n                                flightSuretyData.getAirline(airlineName),\n                                flightName,\n                                timestamp);\n        require(flightProvider[flightKey] == updater, \"Airlines can only update its flight.\");\n        //bytes32 insuranceId;\n        if( STATUS_CODE_LATE_AIRLINE == statusCode ){\n            flightSuretyData.addPayment(flightKey);\n        }\n    }\n\n    // function fetchFlightStatus(\n    //         address airline,\n    //         string calldata flight,\n    //         uint256 timestamp)\n    //     external\n    // {\n    //     uint8 index = getRandomIndex(msg.sender);\n\n    //     // Generate a unique key for storing the request\n    //     bytes32 key = keccak256(abi.encodePacked(index, airline, flight, timestamp));\n    //     oracleResponses[key] = ResponseInfo({\n    //                                             requester: msg.sender,\n    //                                             isOpen: true\n    //                                         });\n\n    //     emit OracleRequest(index, airline, flight, timestamp);\n    // }\n\n   /**\n    * @dev Add a passenger to the registration queue\n    *\n    */\n    function registerPassenger(string calldata name)\n        external\n        onlyNewAccount(msg.sender)\n    {\n        flightSuretyData.addPassenger(msg.sender, name);\n        //emit eventRegisteredAirline(msg.sender);\n    }\n\n    function buy(\n            string calldata airlineName,\n            string calldata flightName,\n            uint256 timestamp,\n            string calldata passengerName)\n        external\n        payable\n        requireIsOperational\n        onlyPassenger(msg.sender)\n    {\n        bytes32 flightKey = getFlightKey(\n                    flightSuretyData.getAirline(airlineName),\n                    flightName,\n                    timestamp);\n        uint256 amountCreditedToPassenger = msg.value.mul(CREDIT_RATE).div(DIV_RATE);\n        flightSuretyData.insurance(flightKey, passengerName, amountCreditedToPassenger);\n    }\n\n    function withdraw(\n            uint256 amount)\n        external\n        requireIsOperational\n        onlyPassenger(msg.sender)\n    {\n        flightSuretyData.withdraw(msg.sender, amount);\n    }\n\n\n// region ORACLE MANAGEMENT\n\n    // Incremented to add pseudo-randomness at various points\n    uint8 private nonce = 0;\n\n    // Fee to be paid when registering oracle\n    uint256 public constant REGISTRATION_FEE = 1 ether;\n\n    // Number of oracles that must respond for valid status\n    uint256 private constant MIN_RESPONSES = 3;\n\n\n    struct Oracle {\n        bool isRegistered;\n        uint8[3] indexes;\n    }\n\n    // Track all registered oracles\n    mapping(address => Oracle) private oracles;\n\n    // Model for responses from oracles\n    struct ResponseInfo {\n        address requester;                              // Account that requested status\n        bool isOpen;                                    // If open, oracle responses are accepted\n        mapping(uint8 => address[]) responses;          // Mapping key is the status code reported\n                                                        // This lets us group responses and identify\n                                                        // the response that majority of the oracles\n    }\n\n    // Track all oracle responses\n    // Key = hash(index, flight, timestamp)\n    mapping(bytes32 => ResponseInfo) private oracleResponses;\n\n    // Event fired each time an oracle submits a response\n    event FlightStatusInfo(address airline, string flight, uint256 timestamp, uint8 status);\n\n    event OracleReport(address airline, string flight, uint256 timestamp, uint8 status);\n\n    // Event fired when flight status request is submitted\n    // Oracles track this and if they have a matching index\n    // they fetch data and submit a response\n    event OracleRequest(uint8 index, address airline, string flight, uint256 timestamp);\n\n    // Register an oracle with the contract\n    function registerOracle ()\n        external\n        payable\n    {\n        // Require registration fee\n        require(msg.value >= REGISTRATION_FEE, \"Registration fee is required\");\n\n        uint8[3] memory indexes = generateIndexes(msg.sender);\n\n        oracles[msg.sender] = Oracle(\n            {isRegistered: true, indexes: indexes});\n    }\n\n    function getRegistrationFee()\n        public\n        pure\n        returns (uint256)\n    {\n        return REGISTRATION_FEE;\n    }\n\n    function getMyIndexes()\n        external\n        view\n        returns(uint8[3] memory)\n    {\n        require(oracles[msg.sender].isRegistered, \"Not registered as an oracle\");\n\n        return oracles[msg.sender].indexes;\n    }\n\n    // Called by oracle when a response is available to an outstanding request\n    // For the response to be accepted, there must be a pending request that is open\n    // and matches one of the three Indexes randomly assigned to the oracle at the\n    // time of registration (i.e. uninvited oracles are not welcome)\n    function submitOracleResponse(\n            uint8 index,\n            address airline,\n            string calldata flight,\n            uint256 timestamp,\n            uint8 statusCode                        )\n        external\n        requireIsOperational\n    {\n        require((oracles[msg.sender].indexes[0] == index)\n         || (oracles[msg.sender].indexes[1] == index)\n         || (oracles[msg.sender].indexes[2] == index), \"Index does not match oracle request\");\n\n        bytes32 key = keccak256(abi.encodePacked(index, airline, flight, timestamp));\n        require(oracleResponses[key].isOpen, \"Flight or timestamp do not match oracle request\");\n\n        oracleResponses[key].responses[statusCode].push(msg.sender);\n\n        // Information isn't considered verified until at least MIN_RESPONSES\n        // oracles respond with the *** same *** information\n        emit OracleReport(airline, flight, timestamp, statusCode);\n        if (oracleResponses[key].responses[statusCode].length >= MIN_RESPONSES) {\n\n            emit FlightStatusInfo(airline, flight, timestamp, statusCode);\n\n            // Handle flight status as appropriate\n\n            if( STATUS_CODE_LATE_AIRLINE == statusCode ){\n                bytes32 flightKey = getFlightKey(\n                                airline,\n                                flight,\n                                timestamp);\n                flightSuretyData.addPayment(flightKey);\n            }\n        //    processFlightStatus(airline, flight, timestamp, statusCode);\n        }\n    }\n\n    function getFlightKey(\n            address airline,\n            string memory flight,\n            uint256 timestamp)\n        pure\n        internal\n        returns(bytes32)\n    {\n        return keccak256(abi.encodePacked(airline, flight, timestamp));\n    }\n\n    // Returns array of three non-duplicating integers from 0-9\n    function generateIndexes(\n            address account)\n        internal\n        returns(uint8[3] memory)\n    {\n        uint8[3] memory indexes;\n        indexes[0] = getRandomIndex(account);\n\n        indexes[1] = indexes[0];\n        while(indexes[1] == indexes[0]) {\n            indexes[1] = getRandomIndex(account);\n        }\n\n        indexes[2] = indexes[1];\n        while((indexes[2] == indexes[0]) || (indexes[2] == indexes[1])) {\n            indexes[2] = getRandomIndex(account);\n        }\n\n        return indexes;\n    }\n\n    // Returns array of three non-duplicating integers from 0-9\n    function getRandomIndex(\n            address account)\n        internal\n        returns (uint8)\n    {\n        uint8 maxValue = 10;\n\n        // Pseudo random number...the incrementing nonce adds variation\n        uint8 random = uint8(uint256(keccak256(abi.encodePacked(blockhash(block.number - nonce++), account))) % maxValue);\n\n        if (nonce > 250) {\n            nonce = 0;  // Can only fetch blockhashes for last 256 blocks so we adapt\n        }\n\n        return random;\n    }\n\n// endregion\n\n}",
  "sourcePath": "/home/hajime/git/BlockchainDevND/projects/project_FlightSurety/contracts/FlightSuretyApp.sol",
  "compiler": {
    "name": "solc",
    "version": "0.5.8+commit.23d335f2.Emscripten.clang"
  },
  "schemaVersion": "3.0.11",
  "updatedAt": "2019-10-09T03:55:10.643Z",
  "devdoc": {
    "methods": {
      "constructor": {
        "details": "Contract constructor    "
      },
      "listenFlightStatuUpdatesUpdate(address,string,string,uint256,uint8)": {
        "details": "Called after oracle has updated flight status    "
      },
      "registerAirline(string)": {
        "details": "Add an airline to the registration queue    "
      },
      "registerFlight(string,uint256)": {
        "details": "Register a future flight for insuring.    "
      },
      "registerPassenger(string)": {
        "details": "Add a passenger to the registration queue    "
      }
    }
  },
  "userdoc": {
    "methods": {
      "isOperational()": {
        "notice": "*****************************************************************************************"
      }
    },
    "notice": "************************************************ "
  }
}