{
  "contractName": "FlightSuretyData",
  "abi": [
    {
      "inputs": [],
      "payable": false,
      "stateMutability": "nonpayable",
      "type": "constructor"
    },
    {
      "payable": true,
      "stateMutability": "payable",
      "type": "fallback"
    },
    {
      "constant": true,
      "inputs": [],
      "name": "isOperational",
      "outputs": [
        {
          "name": "",
          "type": "bool"
        }
      ],
      "payable": false,
      "stateMutability": "view",
      "type": "function"
    },
    {
      "constant": false,
      "inputs": [
        {
          "name": "mode",
          "type": "bool"
        }
      ],
      "name": "setOperatingStatus",
      "outputs": [],
      "payable": false,
      "stateMutability": "nonpayable",
      "type": "function"
    },
    {
      "constant": true,
      "inputs": [],
      "name": "registerAirline",
      "outputs": [],
      "payable": false,
      "stateMutability": "view",
      "type": "function"
    },
    {
      "constant": false,
      "inputs": [],
      "name": "buy",
      "outputs": [],
      "payable": true,
      "stateMutability": "payable",
      "type": "function"
    },
    {
      "constant": true,
      "inputs": [],
      "name": "creditInsurees",
      "outputs": [],
      "payable": false,
      "stateMutability": "pure",
      "type": "function"
    },
    {
      "constant": true,
      "inputs": [],
      "name": "pay",
      "outputs": [],
      "payable": false,
      "stateMutability": "pure",
      "type": "function"
    },
    {
      "constant": false,
      "inputs": [],
      "name": "fund",
      "outputs": [],
      "payable": true,
      "stateMutability": "payable",
      "type": "function"
    }
  ],
  "bytecode": "0x60806040526001600060146101000a81548160ff021916908315150217905550600460025560006040519080825280602002602001820160405280156100545781602001602082028038833980820191505090505b506003908051906020019061006a9291906100bd565b5034801561007757600080fd5b50336000806101000a81548173ffffffffffffffffffffffffffffffffffffffff021916908373ffffffffffffffffffffffffffffffffffffffff16021790555061018a565b828054828255906000526020600020908101928215610136579160200282015b828111156101355782518260006101000a81548173ffffffffffffffffffffffffffffffffffffffff021916908373ffffffffffffffffffffffffffffffffffffffff160217905550916020019190600101906100dd565b5b5090506101439190610147565b5090565b61018791905b8082111561018357600081816101000a81549073ffffffffffffffffffffffffffffffffffffffff02191690555060010161014d565b5090565b90565b61031b806101996000396000f300608060405260043610610083576000357c0100000000000000000000000000000000000000000000000000000000900463ffffffff168063110466ed1461008d5780631b9265b8146100bc57806336cee484146100d357806363e29a3f146100ea578063a6f2ae3a14610101578063b60d42881461010b578063cd905dff14610115575b61008b610144565b005b34801561009957600080fd5b506100ba600480360381019080803515159060200190929190505050610146565b005b3480156100c857600080fd5b506100d1610227565b005b3480156100df57600080fd5b506100e8610229565b005b3480156100f657600080fd5b506100ff61022b565b005b6101096102d7565b005b610113610144565b005b34801561012157600080fd5b5061012a6102d9565b604051808215151515815260200191505060405180910390f35b565b6000809054906101000a900473ffffffffffffffffffffffffffffffffffffffff1673ffffffffffffffffffffffffffffffffffffffff163373ffffffffffffffffffffffffffffffffffffffff1614151561020a576040517f08c379a000000000000000000000000000000000000000000000000000000000815260040180806020018281038252601c8152602001807f43616c6c6572206973206e6f7420636f6e7472616374206f776e65720000000081525060200191505060405180910390fd5b80600060146101000a81548160ff02191690831515021790555050565b565b565b600060149054906101000a900460ff1615156102d5576040517f08c379a00000000000000000000000000000000000000000000000000000000081526004018080602001828103825260258152602001807f436f6e74726163742069732063757272656e746c79206e6f74206f706572617481526020017f696f6e616c00000000000000000000000000000000000000000000000000000081525060400191505060405180910390fd5b565b565b60008060149054906101000a900460ff169050905600a165627a7a72305820cddaef25fedede814db70529772fcc09f36836e16debc84330fe97085f6feea50029",
  "source": "//pragma solidity ^0.4.25;\npragma solidity >=0.4.21 <0.6.0;\n\nimport \"../node_modules/openzeppelin-solidity/contracts/math/SafeMath.sol\";\n\ncontract FlightSuretyData {\n    using SafeMath for uint256;\n\n    /********************************************************************************************/\n    /*                                       DATA VARIABLES                                     */\n    /********************************************************************************************/\n\n    address private contractOwner;                                      // Account used to deploy contract\n    bool private operational = true;                                    // Blocks all state changes throughout the contract if false\n\n    struct Airline {\n        bool isApproved;\n        uint num_approver;\n    }\n    mapping(bytes32 => Airline) private airlines;\n    uint minimumAirlines = 4;                     // number of airlines that can be added without consensus\n    address[] multiCalls = new address[](0);        //\n\n    /********************************************************************************************/\n    /*                                       EVENT DEFINITIONS                                  */\n    /********************************************************************************************/\n\n    /**\n    * @dev Constructor\n    *      The deploying account becomes contractOwner\n    */\n    constructor ()\n        public\n    {\n        contractOwner = msg.sender;\n    }\n\n    /********************************************************************************************/\n    /*                                       FUNCTION MODIFIERS                                 */\n    /********************************************************************************************/\n\n    // Modifiers help avoid duplication of code. They are typically used to validate something\n    // before a function is allowed to be executed.\n\n    /**\n    * @dev Modifier that requires the \"operational\" boolean variable to be \"true\"\n    *      This is used on all state changing functions to pause the contract in\n    *      the event there is an issue that needs to be fixed\n    */\n    modifier requireIsOperational()\n    {\n        require(operational, \"Contract is currently not operational\");\n        _;  // All modifiers require an \"_\" which indicates where the function body will be added\n    }\n\n    /**\n    * @dev Modifier that requires the \"ContractOwner\" account to be the function caller\n    */\n    modifier requireContractOwner()\n    {\n        require(msg.sender == contractOwner, \"Caller is not contract owner\");\n        _;\n    }\n\n    /********************************************************************************************/\n    /*                                       UTILITY FUNCTIONS                                  */\n    /********************************************************************************************/\n\n    /**\n    * @dev Get operating status of contract\n    *\n    * @return A bool that is the current operating status\n    */\n    function isOperational()\n        public\n        view\n        returns(bool)\n    {\n        return operational;\n    }\n\n\n    /**\n    * @dev Sets contract operations on/off\n    *\n    * When operational mode is disabled, all write transactions except for this one will fail\n    */\n    function setOperatingStatus(\n            bool mode )\n        external\n        requireContractOwner\n    {\n        operational = mode;\n    }\n\n    /********************************************************************************************/\n    /*                                     SMART CONTRACT FUNCTIONS                             */\n    /********************************************************************************************/\n\n   /**\n    * @dev Add an airline to the registration queue\n    *      Can only be called from FlightSuretyApp contract\n    *\n    */\n    function registerAirline()\n        external\n        view\n        requireIsOperational\n    {\n    }\n\n\n   /**\n    * @dev Buy insurance for a flight\n    *\n    */   \n    function buy()\n        external\n        payable\n    {\n\n    }\n\n    /**\n     *  @dev Credits payouts to insurees\n    */\n    function creditInsurees()\n        external\n        pure\n    {\n    }\n    \n\n    /**\n     *  @dev Transfers eligible payout funds to insuree\n     *\n    */\n    function pay()\n        external\n        pure\n    {\n    }\n\n   /**\n    * @dev Initial funding for the insurance. Unless there are too many delayed flights\n    *      resulting in insurance payouts, the contract should be self-sustaining\n    *\n    */   \n    function fund()\n        public\n        payable\n    {\n    }\n\n    function getFlightKey(\n            address airline,\n            string memory flight,\n            uint256 timestamp )\n        pure\n        internal\n        returns(bytes32)\n    {\n        return keccak256(abi.encodePacked(airline, flight, timestamp));\n    }\n\n    /**\n    * @dev Fallback function for funding smart contract.\n    *\n    */\n    function()\n        external \n        payable \n    {\n        fund();\n    }\n\n\n}\n\n",
  "sourcePath": "/home/hajime/git/BlockchainDevND/projects/Project_FlightSurety/contracts/FlightSuretyData.sol",
  "compiler": {
    "name": "solc",
    "version": "0.4.26+commit.4563c3fc.Emscripten.clang"
  },
  "schemaVersion": "3.0.11",
  "updatedAt": "2019-09-11T17:54:00.287Z",
  "devdoc": {
    "methods": {
      "buy()": {
        "details": "Buy insurance for a flight    "
      },
      "creditInsurees()": {
        "details": "Credits payouts to insurees"
      },
      "fund()": {
        "details": "Initial funding for the insurance. Unless there are too many delayed flights     resulting in insurance payouts, the contract should be self-sustaining    "
      },
      "isOperational()": {
        "details": "Get operating status of contract",
        "return": "A bool that is the current operating status"
      },
      "pay()": {
        "details": "Transfers eligible payout funds to insuree    "
      },
      "registerAirline()": {
        "details": "Add an airline to the registration queue     Can only be called from FlightSuretyApp contract    "
      },
      "setOperatingStatus(bool)": {
        "details": "Sets contract operations on/off    * When operational mode is disabled, all write transactions except for this one will fail"
      }
    }
  },
  "userdoc": {
    "methods": {}
  }
}