{
  "contractName": "FlightSuretyApp",
  "abi": [
    {
      "constant": true,
      "inputs": [],
      "name": "REGISTRATION_FEE",
      "outputs": [
        {
          "name": "",
          "type": "uint256"
        }
      ],
      "payable": false,
      "stateMutability": "view",
      "type": "function"
    },
    {
      "inputs": [],
      "payable": false,
      "stateMutability": "nonpayable",
      "type": "constructor"
    },
    {
      "anonymous": false,
      "inputs": [
        {
          "indexed": false,
          "name": "index",
          "type": "uint8"
        },
        {
          "indexed": false,
          "name": "airline",
          "type": "address"
        }
      ],
      "name": "eventApprovedAirline",
      "type": "event"
    },
    {
      "anonymous": false,
      "inputs": [
        {
          "indexed": false,
          "name": "flightID",
          "type": "bytes32"
        }
      ],
      "name": "eventRegisterFlight",
      "type": "event"
    },
    {
      "anonymous": false,
      "inputs": [
        {
          "indexed": false,
          "name": "airline",
          "type": "address"
        },
        {
          "indexed": false,
          "name": "flightID",
          "type": "bytes32"
        },
        {
          "indexed": false,
          "name": "status",
          "type": "uint8"
        }
      ],
      "name": "eventUpdateFlightStatus",
      "type": "event"
    },
    {
      "anonymous": false,
      "inputs": [
        {
          "indexed": false,
          "name": "airline",
          "type": "address"
        },
        {
          "indexed": false,
          "name": "flight",
          "type": "string"
        },
        {
          "indexed": false,
          "name": "timestamp",
          "type": "uint256"
        },
        {
          "indexed": false,
          "name": "status",
          "type": "uint8"
        }
      ],
      "name": "FlightStatusInfo",
      "type": "event"
    },
    {
      "anonymous": false,
      "inputs": [
        {
          "indexed": false,
          "name": "airline",
          "type": "address"
        },
        {
          "indexed": false,
          "name": "flight",
          "type": "string"
        },
        {
          "indexed": false,
          "name": "timestamp",
          "type": "uint256"
        },
        {
          "indexed": false,
          "name": "status",
          "type": "uint8"
        }
      ],
      "name": "OracleReport",
      "type": "event"
    },
    {
      "anonymous": false,
      "inputs": [
        {
          "indexed": false,
          "name": "index",
          "type": "uint8"
        },
        {
          "indexed": false,
          "name": "airline",
          "type": "address"
        },
        {
          "indexed": false,
          "name": "flight",
          "type": "string"
        },
        {
          "indexed": false,
          "name": "timestamp",
          "type": "uint256"
        }
      ],
      "name": "OracleRequest",
      "type": "event"
    },
    {
      "constant": true,
      "inputs": [
        {
          "name": "_account",
          "type": "address"
        }
      ],
      "name": "getAccountType",
      "outputs": [
        {
          "name": "",
          "type": "uint8"
        }
      ],
      "payable": false,
      "stateMutability": "view",
      "type": "function"
    },
    {
      "constant": true,
      "inputs": [],
      "name": "isOperational",
      "outputs": [
        {
          "name": "",
          "type": "bool"
        }
      ],
      "payable": false,
      "stateMutability": "view",
      "type": "function"
    },
    {
      "constant": false,
      "inputs": [
        {
          "name": "mode",
          "type": "bool"
        }
      ],
      "name": "setOperatingStatus",
      "outputs": [],
      "payable": false,
      "stateMutability": "nonpayable",
      "type": "function"
    },
    {
      "constant": false,
      "inputs": [
        {
          "name": "name",
          "type": "string"
        }
      ],
      "name": "registerAirline",
      "outputs": [],
      "payable": false,
      "stateMutability": "nonpayable",
      "type": "function"
    },
    {
      "constant": false,
      "inputs": [
        {
          "name": "airlineAccount",
          "type": "address"
        }
      ],
      "name": "approveAirline",
      "outputs": [],
      "payable": false,
      "stateMutability": "nonpayable",
      "type": "function"
    },
    {
      "constant": false,
      "inputs": [],
      "name": "fund",
      "outputs": [],
      "payable": true,
      "stateMutability": "payable",
      "type": "function"
    },
    {
      "constant": true,
      "inputs": [
        {
          "name": "_account",
          "type": "address"
        }
      ],
      "name": "getAirlineStatus",
      "outputs": [
        {
          "name": "",
          "type": "uint8"
        }
      ],
      "payable": false,
      "stateMutability": "view",
      "type": "function"
    },
    {
      "constant": false,
      "inputs": [
        {
          "name": "flight",
          "type": "string"
        },
        {
          "name": "timestamp",
          "type": "uint256"
        }
      ],
      "name": "registerFlight",
      "outputs": [],
      "payable": false,
      "stateMutability": "nonpayable",
      "type": "function"
    },
    {
      "constant": false,
      "inputs": [
        {
          "name": "flight",
          "type": "string"
        },
        {
          "name": "timestamp",
          "type": "uint256"
        },
        {
          "name": "statusCode",
          "type": "uint8"
        }
      ],
      "name": "updateFlightStatus",
      "outputs": [],
      "payable": false,
      "stateMutability": "nonpayable",
      "type": "function"
    },
    {
      "constant": false,
      "inputs": [
        {
          "name": "updater",
          "type": "address"
        },
        {
          "name": "airlineName",
          "type": "string"
        },
        {
          "name": "flightName",
          "type": "string"
        },
        {
          "name": "timestamp",
          "type": "uint256"
        },
        {
          "name": "statusCode",
          "type": "uint8"
        }
      ],
      "name": "listenFlightStatuUpdatesUpdate",
      "outputs": [],
      "payable": false,
      "stateMutability": "nonpayable",
      "type": "function"
    },
    {
      "constant": false,
      "inputs": [
        {
          "name": "name",
          "type": "string"
        }
      ],
      "name": "registerPassenger",
      "outputs": [],
      "payable": false,
      "stateMutability": "nonpayable",
      "type": "function"
    },
    {
      "constant": false,
      "inputs": [
        {
          "name": "airlineName",
          "type": "string"
        },
        {
          "name": "flightName",
          "type": "string"
        },
        {
          "name": "timestamp",
          "type": "uint256"
        },
        {
          "name": "passengerName",
          "type": "string"
        }
      ],
      "name": "buy",
      "outputs": [],
      "payable": true,
      "stateMutability": "payable",
      "type": "function"
    },
    {
      "constant": false,
      "inputs": [
        {
          "name": "amount",
          "type": "uint256"
        }
      ],
      "name": "withdraw",
      "outputs": [],
      "payable": false,
      "stateMutability": "nonpayable",
      "type": "function"
    },
    {
      "constant": false,
      "inputs": [],
      "name": "registerOracle",
      "outputs": [],
      "payable": true,
      "stateMutability": "payable",
      "type": "function"
    },
    {
      "constant": true,
      "inputs": [],
      "name": "getRegistrationFee",
      "outputs": [
        {
          "name": "",
          "type": "uint256"
        }
      ],
      "payable": false,
      "stateMutability": "pure",
      "type": "function"
    },
    {
      "constant": true,
      "inputs": [],
      "name": "getMyIndexes",
      "outputs": [
        {
          "name": "",
          "type": "uint8[3]"
        }
      ],
      "payable": false,
      "stateMutability": "view",
      "type": "function"
    },
    {
      "constant": false,
      "inputs": [
        {
          "name": "index",
          "type": "uint8"
        },
        {
          "name": "airline",
          "type": "address"
        },
        {
          "name": "flight",
          "type": "string"
        },
        {
          "name": "timestamp",
          "type": "uint256"
        },
        {
          "name": "statusCode",
          "type": "uint8"
        }
      ],
      "name": "submitOracleResponse",
      "outputs": [],
      "payable": false,
      "stateMutability": "nonpayable",
      "type": "function"
    }
  ],
  "bytecode": "0x608060405260018060146101000a81548160ff0219169083151502179055506000600360006101000a81548160ff021916908360ff1602179055503480156200004757600080fd5b50336000806101000a81548173ffffffffffffffffffffffffffffffffffffffff021916908373ffffffffffffffffffffffffffffffffffffffff16021790555033604051620000979062000131565b808273ffffffffffffffffffffffffffffffffffffffff1673ffffffffffffffffffffffffffffffffffffffff168152602001915050604051809103906000f080158015620000ea573d6000803e3d6000fd5b50600160006101000a81548173ffffffffffffffffffffffffffffffffffffffff021916908373ffffffffffffffffffffffffffffffffffffffff1602179055506200013f565b6126d480620032e683390190565b613197806200014f6000396000f3fe6080604052600436106101095760003560e01c80635f1cc0e611610095578063ae20314611610064578063ae203146146106e7578063b60d428814610752578063c10f27001461075c578063cd905dff14610826578063fdb04c8a1461085557610109565b80635f1cc0e61461042a57806364b4f7511461047d5780636ba6e8ac146104a857806384b733ca146105ba57610109565b80632e1a7d4d116100dc5780632e1a7d4d14610299578063339d2590146102d457806339cfc995146102de578063419ca9af1461036e57806357721fee146103bf57610109565b80630946e8071461010e5780630b5fdc4214610139578063110466ed146101d65780632520521014610213575b600080fd5b34801561011a57600080fd5b506101236108db565b6040518082815260200191505060405180910390f35b34801561014557600080fd5b506101d46004803603606081101561015c57600080fd5b810190808035906020019064010000000081111561017957600080fd5b82018360208201111561018b57600080fd5b803590602001918460018302840111640100000000831117156101ad57600080fd5b909192939192939080359060200190929190803560ff1690602001909291905050506108eb565b005b3480156101e257600080fd5b50610211600480360360208110156101f957600080fd5b81019080803515159060200190929190505050610ba7565b005b34801561021f57600080fd5b506102976004803603602081101561023657600080fd5b810190808035906020019064010000000081111561025357600080fd5b82018360208201111561026557600080fd5b8035906020019184600183028401116401000000008311171561028757600080fd5b9091929391929390505050610c86565b005b3480156102a557600080fd5b506102d2600480360360208110156102bc57600080fd5b8101908080359060200190929190505050610de8565b005b6102dc610f71565b005b3480156102ea57600080fd5b5061036c6004803603604081101561030157600080fd5b810190808035906020019064010000000081111561031e57600080fd5b82018360208201111561033057600080fd5b8035906020019184600183028401116401000000008311171561035257600080fd5b909192939192939080359060200190929190505050611097565b005b34801561037a57600080fd5b506103bd6004803603602081101561039157600080fd5b81019080803573ffffffffffffffffffffffffffffffffffffffff16906020019092919050505061123e565b005b3480156103cb57600080fd5b5061040e600480360360208110156103e257600080fd5b81019080803573ffffffffffffffffffffffffffffffffffffffff1690602001909291905050506114e7565b604051808260ff1660ff16815260200191505060405180910390f35b34801561043657600080fd5b5061043f611788565b6040518082600360200280838360005b8381101561046a57808201518184015260208101905061044f565b5050505090500191505060405180910390f35b34801561048957600080fd5b506104926118fb565b6040518082815260200191505060405180910390f35b3480156104b457600080fd5b506105b8600480360360a08110156104cb57600080fd5b81019080803573ffffffffffffffffffffffffffffffffffffffff1690602001909291908035906020019064010000000081111561050857600080fd5b82018360208201111561051a57600080fd5b8035906020019184600183028401116401000000008311171561053c57600080fd5b90919293919293908035906020019064010000000081111561055d57600080fd5b82018360208201111561056f57600080fd5b8035906020019184600183028401116401000000008311171561059157600080fd5b909192939192939080359060200190929190803560ff169060200190929190505050611907565b005b6106e5600480360360808110156105d057600080fd5b81019080803590602001906401000000008111156105ed57600080fd5b8201836020820111156105ff57600080fd5b8035906020019184600183028401116401000000008311171561062157600080fd5b90919293919293908035906020019064010000000081111561064257600080fd5b82018360208201111561065457600080fd5b8035906020019184600183028401116401000000008311171561067657600080fd5b909192939192939080359060200190929190803590602001906401000000008111156106a157600080fd5b8201836020820111156106b357600080fd5b803590602001918460018302840111640100000000831117156106d557600080fd5b9091929391929390505050611bf6565b005b3480156106f357600080fd5b506107366004803603602081101561070a57600080fd5b81019080803573ffffffffffffffffffffffffffffffffffffffff169060200190929190505050611ee6565b604051808260ff1660ff16815260200191505060405180910390f35b61075a611f85565b005b34801561076857600080fd5b50610824600480360360a081101561077f57600080fd5b81019080803560ff169060200190929190803573ffffffffffffffffffffffffffffffffffffffff169060200190929190803590602001906401000000008111156107c957600080fd5b8201836020820111156107db57600080fd5b803590602001918460018302840111640100000000831117156107fd57600080fd5b909192939192939080359060200190929190803560ff169060200190929190505050612166565b005b34801561083257600080fd5b5061083b61278d565b604051808215151515815260200191505060405180910390f35b34801561086157600080fd5b506108d96004803603602081101561087857600080fd5b810190808035906020019064010000000081111561089557600080fd5b8201836020820111156108a757600080fd5b803590602001918460018302840111640100000000831117156108c957600080fd5b90919293919293905050506127a4565b005b6000670de0b6b3a7640000905090565b600160149054906101000a900460ff16610950576040517f08c379a00000000000000000000000000000000000000000000000000000000081526004018080602001828103825260258152602001806130d76025913960400191505060405180910390fd5b3361095a81612906565b6109af576040517f08c379a000000000000000000000000000000000000000000000000000000000815260040180806020018281038252602881526020018061306b6028913960400191505060405180910390fd5b6109fe3386868080601f016020809104026020016040519081016040528093929190818152602001838380828437600081840152601f19601f82011690508083019250505050505050856129e9565b6002600082815260200190815260200160002060009054906101000a900473ffffffffffffffffffffffffffffffffffffffff1673ffffffffffffffffffffffffffffffffffffffff163373ffffffffffffffffffffffffffffffffffffffff1614610ad2576040517f08c379a00000000000000000000000000000000000000000000000000000000081526004018080602001828103825260168152602001807f4e6f74206120666c69676874206f70657261746f722e0000000000000000000081525060200191505060405180910390fd5b6000610b233388888080601f016020809104026020016040519081016040528093929190818152602001838380828437600081840152601f19601f82011690508083019250505050505050876129e9565b90507f029a3f1d54054fb826aa6503ceba4424858dc0b660a751dfd9881d615deec1c5338286604051808473ffffffffffffffffffffffffffffffffffffffff1673ffffffffffffffffffffffffffffffffffffffff1681526020018381526020018260ff1660ff168152602001935050505060405180910390a150505050505050565b6000809054906101000a900473ffffffffffffffffffffffffffffffffffffffff1673ffffffffffffffffffffffffffffffffffffffff163373ffffffffffffffffffffffffffffffffffffffff1614610c69576040517f08c379a000000000000000000000000000000000000000000000000000000000815260040180806020018281038252601c8152602001807f43616c6c6572206973206e6f7420636f6e7472616374206f776e65720000000081525060200191505060405180910390fd5b80600160146101000a81548160ff02191690831515021790555050565b33610c9081612906565b80610ca05750610c9f81612aa5565b5b15610cf6576040517f08c379a00000000000000000000000000000000000000000000000000000000081526004018080602001828103825260238152602001806130936023913960400191505060405180910390fd5b600160009054906101000a900473ffffffffffffffffffffffffffffffffffffffff1673ffffffffffffffffffffffffffffffffffffffff166329df66cc3385856040518463ffffffff1660e01b8152600401808473ffffffffffffffffffffffffffffffffffffffff1673ffffffffffffffffffffffffffffffffffffffff168152602001806020018281038252848482818152602001925080828437600081840152601f19601f820116905080830192505050945050505050600060405180830381600087803b158015610dcb57600080fd5b505af1158015610ddf573d6000803e3d6000fd5b50505050505050565b600160149054906101000a900460ff16610e4d576040517f08c379a00000000000000000000000000000000000000000000000000000000081526004018080602001828103825260258152602001806130d76025913960400191505060405180910390fd5b33610e5781612aa5565b610eac576040517f08c379a00000000000000000000000000000000000000000000000000000000081526004018080602001828103825260298152602001806130fc6029913960400191505060405180910390fd5b600160009054906101000a900473ffffffffffffffffffffffffffffffffffffffff1673ffffffffffffffffffffffffffffffffffffffff1663f3fef3a333846040518363ffffffff1660e01b8152600401808373ffffffffffffffffffffffffffffffffffffffff1673ffffffffffffffffffffffffffffffffffffffff16815260200182815260200192505050600060405180830381600087803b158015610f5557600080fd5b505af1158015610f69573d6000803e3d6000fd5b505050505050565b670de0b6b3a7640000341015610fef576040517f08c379a000000000000000000000000000000000000000000000000000000000815260040180806020018281038252601c8152602001807f526567697374726174696f6e206665652069732072657175697265640000000081525060200191505060405180910390fd5b610ff7612f19565b61100033612b88565b9050604051806040016040528060011515815260200182815250600460003373ffffffffffffffffffffffffffffffffffffffff1673ffffffffffffffffffffffffffffffffffffffff16815260200190815260200160002060008201518160000160006101000a81548160ff021916908315150217905550602082015181600101906003611090929190612f3b565b5090505050565b600160149054906101000a900460ff166110fc576040517f08c379a00000000000000000000000000000000000000000000000000000000081526004018080602001828103825260258152602001806130d76025913960400191505060405180910390fd5b3361110681612906565b61115b576040517f08c379a000000000000000000000000000000000000000000000000000000000815260040180806020018281038252602881526020018061306b6028913960400191505060405180910390fd5b60006111ac3386868080601f016020809104026020016040519081016040528093929190818152602001838380828437600081840152601f19601f82011690508083019250505050505050856129e9565b9050336002600083815260200190815260200160002060006101000a81548173ffffffffffffffffffffffffffffffffffffffff021916908373ffffffffffffffffffffffffffffffffffffffff1602179055507fc0d3746fdb923f9b90c69401fec84ba18801de177690249322689a723be83189816040518082815260200191505060405180910390a15050505050565b3361124881612906565b61129d576040517f08c379a000000000000000000000000000000000000000000000000000000000815260040180806020018281038252602881526020018061306b6028913960400191505060405180910390fd5b600160009054906101000a900473ffffffffffffffffffffffffffffffffffffffff1673ffffffffffffffffffffffffffffffffffffffff166372dd8bcb83336040518363ffffffff1660e01b8152600401808373ffffffffffffffffffffffffffffffffffffffff1673ffffffffffffffffffffffffffffffffffffffff1681526020018273ffffffffffffffffffffffffffffffffffffffff1673ffffffffffffffffffffffffffffffffffffffff16815260200192505050600060405180830381600087803b15801561137257600080fd5b505af1158015611386573d6000803e3d6000fd5b50505050600160009054906101000a900473ffffffffffffffffffffffffffffffffffffffff1673ffffffffffffffffffffffffffffffffffffffff1663673448dd836040518263ffffffff1660e01b8152600401808273ffffffffffffffffffffffffffffffffffffffff1673ffffffffffffffffffffffffffffffffffffffff16815260200191505060206040518083038186803b15801561142957600080fd5b505afa15801561143d573d6000803e3d6000fd5b505050506040513d602081101561145357600080fd5b8101908080519060200190929190505050156114e3577f6738444db39abbc0f703de7b74776a83d0a0b55dbbff2a22255885bddda7749661149383612d14565b83604051808360ff1660ff1681526020018273ffffffffffffffffffffffffffffffffffffffff1673ffffffffffffffffffffffffffffffffffffffff1681526020019250505060405180910390a15b5050565b6000600160149054906101000a900460ff1661154e576040517f08c379a00000000000000000000000000000000000000000000000000000000081526004018080602001828103825260258152602001806130d76025913960400191505060405180910390fd5b8161155881612906565b6115ad576040517f08c379a000000000000000000000000000000000000000000000000000000000815260040180806020018281038252602881526020018061306b6028913960400191505060405180910390fd5b600160009054906101000a900473ffffffffffffffffffffffffffffffffffffffff1673ffffffffffffffffffffffffffffffffffffffff16635689b249846040518263ffffffff1660e01b8152600401808273ffffffffffffffffffffffffffffffffffffffff1673ffffffffffffffffffffffffffffffffffffffff16815260200191505060206040518083038186803b15801561164c57600080fd5b505afa158015611660573d6000803e3d6000fd5b505050506040513d602081101561167657600080fd5b8101908080519060200190929190505050156116955760149150611782565b600160009054906101000a900473ffffffffffffffffffffffffffffffffffffffff1673ffffffffffffffffffffffffffffffffffffffff1663673448dd846040518263ffffffff1660e01b8152600401808273ffffffffffffffffffffffffffffffffffffffff1673ffffffffffffffffffffffffffffffffffffffff16815260200191505060206040518083038186803b15801561173457600080fd5b505afa158015611748573d6000803e3d6000fd5b505050506040513d602081101561175e57600080fd5b81019080805190602001909291905050501561177d57600a9150611782565b600091505b50919050565b611790612f19565b600460003373ffffffffffffffffffffffffffffffffffffffff1673ffffffffffffffffffffffffffffffffffffffff16815260200190815260200160002060000160009054906101000a900460ff16611852576040517f08c379a000000000000000000000000000000000000000000000000000000000815260040180806020018281038252601b8152602001807f4e6f74207265676973746572656420617320616e206f7261636c65000000000081525060200191505060405180910390fd5b600460003373ffffffffffffffffffffffffffffffffffffffff1673ffffffffffffffffffffffffffffffffffffffff1681526020019081526020016000206001016003806020026040519081016040528092919082600380156118f1576020028201916000905b82829054906101000a900460ff1660ff16815260200190600101906020826000010492830192600103820291508084116118ba5790505b5050505050905090565b670de0b6b3a764000081565b600160149054906101000a900460ff1661196c576040517f08c379a00000000000000000000000000000000000000000000000000000000081526004018080602001828103825260258152602001806130d76025913960400191505060405180910390fd5b6000611a96600160009054906101000a900473ffffffffffffffffffffffffffffffffffffffff1673ffffffffffffffffffffffffffffffffffffffff16638e6d88ca89896040518363ffffffff1660e01b815260040180806020018281038252848482818152602001925080828437600081840152601f19601f820116905080830192505050935050505060206040518083038186803b158015611a1057600080fd5b505afa158015611a24573d6000803e3d6000fd5b505050506040513d6020811015611a3a57600080fd5b810190808051906020019092919050505086868080601f016020809104026020016040519081016040528093929190818152602001838380828437600081840152601f19601f82011690508083019250505050505050856129e9565b90508773ffffffffffffffffffffffffffffffffffffffff166002600083815260200190815260200160002060009054906101000a900473ffffffffffffffffffffffffffffffffffffffff1673ffffffffffffffffffffffffffffffffffffffff1614611b4f576040517f08c379a00000000000000000000000000000000000000000000000000000000081526004018080602001828103825260248152602001806131486024913960400191505060405180910390fd5b8160ff16601460ff161415611bec57600160009054906101000a900473ffffffffffffffffffffffffffffffffffffffff1673ffffffffffffffffffffffffffffffffffffffff1663a8d81fb4826040518263ffffffff1660e01b815260040180828152602001915050600060405180830381600087803b158015611bd357600080fd5b505af1158015611be7573d6000803e3d6000fd5b505050505b5050505050505050565b600160149054906101000a900460ff16611c5b576040517f08c379a00000000000000000000000000000000000000000000000000000000081526004018080602001828103825260258152602001806130d76025913960400191505060405180910390fd5b33611c6581612aa5565b611cba576040517f08c379a00000000000000000000000000000000000000000000000000000000081526004018080602001828103825260298152602001806130fc6029913960400191505060405180910390fd5b6000611de4600160009054906101000a900473ffffffffffffffffffffffffffffffffffffffff1673ffffffffffffffffffffffffffffffffffffffff16638e6d88ca8b8b6040518363ffffffff1660e01b815260040180806020018281038252848482818152602001925080828437600081840152601f19601f820116905080830192505050935050505060206040518083038186803b158015611d5e57600080fd5b505afa158015611d72573d6000803e3d6000fd5b505050506040513d6020811015611d8857600080fd5b810190808051906020019092919050505088888080601f016020809104026020016040519081016040528093929190818152602001838380828437600081840152601f19601f82011690508083019250505050505050876129e9565b90506000611e0f600a611e01600f34612e0490919063ffffffff16565b612e8a90919063ffffffff16565b9050600160009054906101000a900473ffffffffffffffffffffffffffffffffffffffff1673ffffffffffffffffffffffffffffffffffffffff1663f3eb52a3838787856040518563ffffffff1660e01b815260040180858152602001806020018381526020018281038252858582818152602001925080828437600081840152601f19601f82011690508083019250505095505050505050600060405180830381600087803b158015611ec257600080fd5b505af1158015611ed6573d6000803e3d6000fd5b5050505050505050505050505050565b6000600160149054906101000a900460ff16611f4d576040517f08c379a00000000000000000000000000000000000000000000000000000000081526004018080602001828103825260258152602001806130d76025913960400191505060405180910390fd5b611f5682612906565b15611f6457600a9050611f80565b611f6d82612aa5565b15611f7b5760149050611f80565b600090505b919050565b600160149054906101000a900460ff16611fea576040517f08c379a00000000000000000000000000000000000000000000000000000000081526004018080602001828103825260258152602001806130d76025913960400191505060405180910390fd5b33611ff481612906565b612049576040517f08c379a000000000000000000000000000000000000000000000000000000000815260040180806020018281038252602881526020018061306b6028913960400191505060405180910390fd5b678ac7230489e800003410156120aa576040517f08c379a00000000000000000000000000000000000000000000000000000000081526004018080602001828103825260368152602001806130356036913960400191505060405180910390fd5b600160009054906101000a900473ffffffffffffffffffffffffffffffffffffffff1673ffffffffffffffffffffffffffffffffffffffff166345f9fc78336040518263ffffffff1660e01b8152600401808273ffffffffffffffffffffffffffffffffffffffff1673ffffffffffffffffffffffffffffffffffffffff168152602001915050600060405180830381600087803b15801561214b57600080fd5b505af115801561215f573d6000803e3d6000fd5b5050505050565b600160149054906101000a900460ff166121cb576040517f08c379a00000000000000000000000000000000000000000000000000000000081526004018080602001828103825260258152602001806130d76025913960400191505060405180910390fd5b8560ff16600460003373ffffffffffffffffffffffffffffffffffffffff1673ffffffffffffffffffffffffffffffffffffffff16815260200190815260200160002060010160006003811061221d57fe5b602091828204019190069054906101000a900460ff1660ff1614806122aa57508560ff16600460003373ffffffffffffffffffffffffffffffffffffffff1673ffffffffffffffffffffffffffffffffffffffff16815260200190815260200160002060010160016003811061228f57fe5b602091828204019190069054906101000a900460ff1660ff16145b8061231d57508560ff16600460003373ffffffffffffffffffffffffffffffffffffffff1673ffffffffffffffffffffffffffffffffffffffff16815260200190815260200160002060010160026003811061230257fe5b602091828204019190069054906101000a900460ff1660ff16145b612372576040517f08c379a00000000000000000000000000000000000000000000000000000000081526004018080602001828103825260238152602001806131256023913960400191505060405180910390fd5b60008686868686604051602001808660ff1660ff1660f81b81526001018573ffffffffffffffffffffffffffffffffffffffff1673ffffffffffffffffffffffffffffffffffffffff1660601b815260140184848082843780830192505050828152602001955050505050506040516020818303038152906040528051906020012090506005600082815260200190815260200160002060000160149054906101000a900460ff1661246f576040517f08c379a000000000000000000000000000000000000000000000000000000000815260040180806020018281038252602f815260200180613006602f913960400191505060405180910390fd5b6005600082815260200190815260200160002060010160008360ff1660ff1681526020019081526020016000203390806001815401808255809150509060018203906000526020600020016000909192909190916101000a81548173ffffffffffffffffffffffffffffffffffffffff021916908373ffffffffffffffffffffffffffffffffffffffff160217905550507f43c853095c2752648493c88b4baac4d580d2594ffb00c6f1d4242d844514f7838686868686604051808673ffffffffffffffffffffffffffffffffffffffff1673ffffffffffffffffffffffffffffffffffffffff168152602001806020018481526020018360ff1660ff1681526020018281038252868682818152602001925080828437600081840152601f19601f820116905080830192505050965050505050505060405180910390a160036005600083815260200190815260200160002060010160008460ff1660ff1681526020019081526020016000208054905010612784577fe23f5229de535c091e3b7bec2665f5d698192d3b31393066e8987b7a05076b6c8686868686604051808673ffffffffffffffffffffffffffffffffffffffff1673ffffffffffffffffffffffffffffffffffffffff168152602001806020018481526020018360ff1660ff1681526020018281038252868682818152602001925080828437600081840152601f19601f820116905080830192505050965050505050505060405180910390a18160ff16601460ff1614156127835760006126f28787878080601f016020809104026020016040519081016040528093929190818152602001838380828437600081840152601f19601f82011690508083019250505050505050866129e9565b9050600160009054906101000a900473ffffffffffffffffffffffffffffffffffffffff1673ffffffffffffffffffffffffffffffffffffffff1663a8d81fb4826040518263ffffffff1660e01b815260040180828152602001915050600060405180830381600087803b15801561276957600080fd5b505af115801561277d573d6000803e3d6000fd5b50505050505b5b50505050505050565b6000600160149054906101000a900460ff16905090565b336127ae81612906565b806127be57506127bd81612aa5565b5b15612814576040517f08c379a00000000000000000000000000000000000000000000000000000000081526004018080602001828103825260238152602001806130936023913960400191505060405180910390fd5b600160009054906101000a900473ffffffffffffffffffffffffffffffffffffffff1673ffffffffffffffffffffffffffffffffffffffff1663cb1b1a8a3385856040518463ffffffff1660e01b8152600401808473ffffffffffffffffffffffffffffffffffffffff1673ffffffffffffffffffffffffffffffffffffffff168152602001806020018281038252848482818152602001925080828437600081840152601f19601f820116905080830192505050945050505050600060405180830381600087803b1580156128e957600080fd5b505af11580156128fd573d6000803e3d6000fd5b50505050505050565b6000600160009054906101000a900473ffffffffffffffffffffffffffffffffffffffff1673ffffffffffffffffffffffffffffffffffffffff16630e248a11836040518263ffffffff1660e01b8152600401808273ffffffffffffffffffffffffffffffffffffffff1673ffffffffffffffffffffffffffffffffffffffff16815260200191505060206040518083038186803b1580156129a757600080fd5b505afa1580156129bb573d6000803e3d6000fd5b505050506040513d60208110156129d157600080fd5b81019080805190602001909291905050509050919050565b6000838383604051602001808473ffffffffffffffffffffffffffffffffffffffff1673ffffffffffffffffffffffffffffffffffffffff1660601b815260140183805190602001908083835b60208310612a595780518252602082019150602081019050602083039250612a36565b6001836020036101000a03801982511681845116808217855250505050505090500182815260200193505050506040516020818303038152906040528051906020012090509392505050565b6000600160009054906101000a900473ffffffffffffffffffffffffffffffffffffffff1673ffffffffffffffffffffffffffffffffffffffff16631dd13a1d836040518263ffffffff1660e01b8152600401808273ffffffffffffffffffffffffffffffffffffffff1673ffffffffffffffffffffffffffffffffffffffff16815260200191505060206040518083038186803b158015612b4657600080fd5b505afa158015612b5a573d6000803e3d6000fd5b505050506040513d6020811015612b7057600080fd5b81019080805190602001909291905050509050919050565b612b90612f19565b612b98612f19565b612ba183612d14565b81600060038110612bae57fe5b602002019060ff16908160ff168152505080600060038110612bcc57fe5b602002015181600160038110612bde57fe5b602002019060ff16908160ff16815250505b80600060038110612bfd57fe5b602002015160ff1681600160038110612c1257fe5b602002015160ff161415612c4c57612c2983612d14565b81600160038110612c3657fe5b602002019060ff16908160ff1681525050612bf0565b80600160038110612c5957fe5b602002015181600260038110612c6b57fe5b602002019060ff16908160ff16815250505b80600060038110612c8a57fe5b602002015160ff1681600260038110612c9f57fe5b602002015160ff161480612cda575080600160038110612cbb57fe5b602002015160ff1681600260038110612cd057fe5b602002015160ff16145b15612d0b57612ce883612d14565b81600260038110612cf557fe5b602002019060ff16908160ff1681525050612c7d565b80915050919050565b600080600a905060008160ff166003600081819054906101000a900460ff168092919060010191906101000a81548160ff021916908360ff16021790555060ff1643034085604051602001808381526020018273ffffffffffffffffffffffffffffffffffffffff1673ffffffffffffffffffffffffffffffffffffffff1660601b8152601401925050506040516020818303038152906040528051906020012060001c81612dbf57fe5b06905060fa600360009054906101000a900460ff1660ff161115612dfa576000600360006101000a81548160ff021916908360ff1602179055505b8092505050919050565b600080831415612e175760009050612e84565b6000828402905082848281612e2857fe5b0414612e7f576040517f08c379a00000000000000000000000000000000000000000000000000000000081526004018080602001828103825260218152602001806130b66021913960400191505060405180910390fd5b809150505b92915050565b6000808211612f01576040517f08c379a000000000000000000000000000000000000000000000000000000000815260040180806020018281038252601a8152602001807f536166654d6174683a206469766973696f6e206279207a65726f00000000000081525060200191505060405180910390fd5b6000828481612f0c57fe5b0490508091505092915050565b6040518060600160405280600390602082028038833980820191505090505090565b826003601f01602090048101928215612fc45791602002820160005b83821115612f9557835183826101000a81548160ff021916908360ff1602179055509260200192600101602081600001049283019260010302612f57565b8015612fc25782816101000a81549060ff0219169055600101602081600001049283019260010302612f95565b505b509050612fd19190612fd5565b5090565b61300291905b80821115612ffe57600081816101000a81549060ff021916905550600101612fdb565b5090565b9056fe466c69676874206f722074696d657374616d7020646f206e6f74206d61746368206f7261636c6520726571756573744e6f7420656e6f7567682066756e6420616d6f756e742e2053686f756c64206265206c6172676572207468656e20313020657468657254686973206163636f756e74206973206e6f7420616e20616972706c616e65206163636f756e742e54686973206163636f756e7420697320616c726561647920726567697374657265642e536166654d6174683a206d756c7469706c69636174696f6e206f766572666c6f77436f6e74726163742069732063757272656e746c79206e6f74206f7065726174696f6e616c54686973206163636f756e74206973206e6f7420616e2070617373656e676572206163636f756e742e496e64657820646f6573206e6f74206d61746368206f7261636c6520726571756573744169726c696e65732063616e206f6e6c79207570646174652069747320666c696768742ea165627a7a7230582092712fce169892fd24a8042f178c034cfc3372442ca08de08c3fb3be32fc47190029608060405260006003556001600760146101000a81548160ff02191690831515021790555034801561003057600080fd5b506040516020806126d48339810180604052602081101561005057600080fd5b810190808051906020019092919050505080600760006101000a81548173ffffffffffffffffffffffffffffffffffffffff021916908373ffffffffffffffffffffffffffffffffffffffff16021790555050612622806100b26000396000f3fe6080604052600436106100fe5760003560e01c80638e6d88ca11610095578063c4e9bd2c11610064578063c4e9bd2c146105b2578063cb1b1a8a146106ba578063cd905dff14610760578063f3eb52a31461078f578063f3fef3a314610829576100fe565b80638e6d88ca146104495780639bbd77681461050f578063a478bbe914610526578063a8d81fb414610577576100fe565b8063500b94aa116100d1578063500b94aa146102c95780635689b24914610306578063673448dd1461036f57806372dd8bcb146103d8576100fe565b80630e248a11146101005780631dd13a1d1461016957806329df66cc146101d257806345f9fc7814610278575b005b34801561010c57600080fd5b5061014f6004803603602081101561012357600080fd5b81019080803573ffffffffffffffffffffffffffffffffffffffff169060200190929190505050610884565b604051808215151515815260200191505060405180910390f35b34801561017557600080fd5b506101b86004803603602081101561018c57600080fd5b81019080803573ffffffffffffffffffffffffffffffffffffffff1690602001909291905050506108e5565b604051808215151515815260200191505060405180910390f35b3480156101de57600080fd5b50610276600480360360408110156101f557600080fd5b81019080803573ffffffffffffffffffffffffffffffffffffffff1690602001909291908035906020019064010000000081111561023257600080fd5b82018360208201111561024457600080fd5b8035906020019184600183028401116401000000008311171561026657600080fd5b9091929391929390505050610947565b005b34801561028457600080fd5b506102c76004803603602081101561029b57600080fd5b81019080803573ffffffffffffffffffffffffffffffffffffffff16906020019092919050505061099a565b005b3480156102d557600080fd5b50610304600480360360208110156102ec57600080fd5b81019080803515159060200190929190505050610af2565b005b34801561031257600080fd5b506103556004803603602081101561032957600080fd5b81019080803573ffffffffffffffffffffffffffffffffffffffff169060200190929190505050610bd2565b604051808215151515815260200191505060405180910390f35b34801561037b57600080fd5b506103be6004803603602081101561039257600080fd5b81019080803573ffffffffffffffffffffffffffffffffffffffff169060200190929190505050610c2a565b604051808215151515815260200191505060405180910390f35b3480156103e457600080fd5b50610447600480360360408110156103fb57600080fd5b81019080803573ffffffffffffffffffffffffffffffffffffffff169060200190929190803573ffffffffffffffffffffffffffffffffffffffff169060200190929190505050610c82565b005b34801561045557600080fd5b506104cd6004803603602081101561046c57600080fd5b810190808035906020019064010000000081111561048957600080fd5b82018360208201111561049b57600080fd5b803590602001918460018302840111640100000000831117156104bd57600080fd5b90919293919293905050506111fb565b604051808273ffffffffffffffffffffffffffffffffffffffff1673ffffffffffffffffffffffffffffffffffffffff16815260200191505060405180910390f35b34801561051b57600080fd5b5061052461124d565b005b34801561053257600080fd5b506105756004803603602081101561054957600080fd5b81019080803573ffffffffffffffffffffffffffffffffffffffff169060200190929190505050611258565b005b34801561058357600080fd5b506105b06004803603602081101561059a57600080fd5b8101908080359060200190929190505050611264565b005b3480156105be57600080fd5b50610678600480360360208110156105d557600080fd5b81019080803590602001906401000000008111156105f257600080fd5b82018360208201111561060457600080fd5b8035906020019184600183028401116401000000008311171561062657600080fd5b91908080601f016020809104026020016040519081016040528093929190818152602001838380828437600081840152601f19601f8201169050808301925050505050505091929192905050506115b4565b604051808273ffffffffffffffffffffffffffffffffffffffff1673ffffffffffffffffffffffffffffffffffffffff16815260200191505060405180910390f35b3480156106c657600080fd5b5061075e600480360360408110156106dd57600080fd5b81019080803573ffffffffffffffffffffffffffffffffffffffff1690602001909291908035906020019064010000000081111561071a57600080fd5b82018360208201111561072c57600080fd5b8035906020019184600183028401116401000000008311171561074e57600080fd5b9091929391929390505050611647565b005b34801561076c57600080fd5b5061077561169a565b604051808215151515815260200191505060405180910390f35b34801561079b57600080fd5b50610827600480360360608110156107b257600080fd5b8101908080359060200190929190803590602001906401000000008111156107d957600080fd5b8201836020820111156107eb57600080fd5b8035906020019184600183028401116401000000008311171561080d57600080fd5b9091929391929390803590602001909291905050506116b1565b005b34801561083557600080fd5b506108826004803603604081101561084c57600080fd5b81019080803573ffffffffffffffffffffffffffffffffffffffff16906020019092919080359060200190929190505050611887565b005b6000806000808473ffffffffffffffffffffffffffffffffffffffff1673ffffffffffffffffffffffffffffffffffffffff168152602001908152602001600020600001805460018160011615610100020316600290049050119050919050565b600080600460008473ffffffffffffffffffffffffffffffffffffffff1673ffffffffffffffffffffffffffffffffffffffff168152602001908152602001600020600001805460018160011615610100020316600290049050119050919050565b6109958383838080601f016020809104026020016040519081016040528093929190818152602001838380828437600081840152601f19601f820116905080830192505050505050506119da565b505050565b806109a481610884565b610a16576040517f08c379a000000000000000000000000000000000000000000000000000000000815260040180806020018281038252600e8152602001807f4e6f7420616e206169726c696e6500000000000000000000000000000000000081525060200191505060405180910390fd5b81610a2081610bd2565b15610a93576040517f08c379a000000000000000000000000000000000000000000000000000000000815260040180806020018281038252600e8152602001807f416c72656164792066756e64656400000000000000000000000000000000000081525060200191505060405180910390fd5b60016000808573ffffffffffffffffffffffffffffffffffffffff1673ffffffffffffffffffffffffffffffffffffffff16815260200190815260200160002060010160016101000a81548160ff021916908315150217905550505050565b600760009054906101000a900473ffffffffffffffffffffffffffffffffffffffff1673ffffffffffffffffffffffffffffffffffffffff163373ffffffffffffffffffffffffffffffffffffffff1614610bb5576040517f08c379a000000000000000000000000000000000000000000000000000000000815260040180806020018281038252601c8152602001807f43616c6c6572206973206e6f7420636f6e7472616374206f776e65720000000081525060200191505060405180910390fd5b80600760146101000a81548160ff02191690831515021790555050565b60008060008373ffffffffffffffffffffffffffffffffffffffff1673ffffffffffffffffffffffffffffffffffffffff16815260200190815260200160002060010160019054906101000a900460ff169050919050565b60008060008373ffffffffffffffffffffffffffffffffffffffff1673ffffffffffffffffffffffffffffffffffffffff16815260200190815260200160002060010160009054906101000a900460ff169050919050565b81610c8c81610884565b610cfe576040517f08c379a000000000000000000000000000000000000000000000000000000000815260040180806020018281038252600e8152602001807f4e6f7420616e206169726c696e6500000000000000000000000000000000000081525060200191505060405180910390fd5b81610d0881610884565b610d7a576040517f08c379a000000000000000000000000000000000000000000000000000000000815260040180806020018281038252600e8152602001807f4e6f7420616e206169726c696e6500000000000000000000000000000000000081525060200191505060405180910390fd5b82610d8481610bd2565b610df6576040517f08c379a000000000000000000000000000000000000000000000000000000000815260040180806020018281038252600a8152602001807f4e6f742066756e6465640000000000000000000000000000000000000000000081525060200191505060405180910390fd5b8484600160008373ffffffffffffffffffffffffffffffffffffffff1673ffffffffffffffffffffffffffffffffffffffff16815260200190815260200160002060008273ffffffffffffffffffffffffffffffffffffffff1673ffffffffffffffffffffffffffffffffffffffff16815260200190815260200160002060009054906101000a900460ff1615610ed8576040517f08c379a000000000000000000000000000000000000000000000000000000000815260040180806020018281038252602b815260200180612570602b913960400191505060405180910390fd5b8573ffffffffffffffffffffffffffffffffffffffff168773ffffffffffffffffffffffffffffffffffffffff161415610f7a576040517f08c379a00000000000000000000000000000000000000000000000000000000081526004018080602001828103825260138152602001807f43616e6e6f7420617070726f76652073656c660000000000000000000000000081525060200191505060405180910390fd5b6000808873ffffffffffffffffffffffffffffffffffffffff1673ffffffffffffffffffffffffffffffffffffffff1681526020019081526020016000206002016000815480929190600101919050555060018060008973ffffffffffffffffffffffffffffffffffffffff1673ffffffffffffffffffffffffffffffffffffffff16815260200190815260200160002060008873ffffffffffffffffffffffffffffffffffffffff1673ffffffffffffffffffffffffffffffffffffffff16815260200190815260200160002060006101000a81548160ff0219169083151502179055506111926000808973ffffffffffffffffffffffffffffffffffffffff1673ffffffffffffffffffffffffffffffffffffffff168152602001908152602001600020604051806080016040529081600082018054600181600116156101000203166002900480601f0160208091040260200160405190810160405280929190818152602001828054600181600116156101000203166002900480156111445780601f1061111957610100808354040283529160200191611144565b820191906000526020600020905b81548152906001019060200180831161112757829003601f168201915b505050505081526020016001820160009054906101000a900460ff161515151581526020016001820160019054906101000a900460ff16151515158152602001600282015481525050611d6b565b156111f25760016000808973ffffffffffffffffffffffffffffffffffffffff1673ffffffffffffffffffffffffffffffffffffffff16815260200190815260200160002060010160006101000a81548160ff0219169083151502179055505b50505050505050565b600060028383604051808383808284378083019250505092505050908152602001604051809103902060009054906101000a900473ffffffffffffffffffffffffffffffffffffffff16905092915050565b61125633611d8f565b565b61126181611eb9565b50565b600760149054906101000a900460ff166112c9576040517f08c379a00000000000000000000000000000000000000000000000000000000081526004018080602001828103825260258152602001806125d26025913960400191505060405180910390fd5b600760009054906101000a900473ffffffffffffffffffffffffffffffffffffffff1673ffffffffffffffffffffffffffffffffffffffff163373ffffffffffffffffffffffffffffffffffffffff161461138c576040517f08c379a000000000000000000000000000000000000000000000000000000000815260040180806020018281038252601c8152602001807f43616c6c6572206973206e6f7420636f6e7472616374206f776e65720000000081525060200191505060405180910390fd5b600060096000838152602001908152602001600020905060008090505b81805490508160ff1610156115af57600083611475848460ff16815481106113cd57fe5b906000526020600020018054600181600116156101000203166002900480601f01602080910402602001604051908101604052809291908181526020018280546001816001161561010002031660029004801561146b5780601f106114405761010080835404028352916020019161146b565b820191906000526020600020905b81548152906001019060200180831161144e57829003601f168201915b50505050506115b4565b604051602001808381526020018273ffffffffffffffffffffffffffffffffffffffff1673ffffffffffffffffffffffffffffffffffffffff1660601b8152601401925050506040516020818303038152906040528051906020012090506115a1838360ff16815481106114e557fe5b906000526020600020018054600181600116156101000203166002900480601f0160208091040260200160405190810160405280929190818152602001828054600181600116156101000203166002900480156115835780601f1061155857610100808354040283529160200191611583565b820191906000526020600020905b81548152906001019060200180831161156657829003601f168201915b50505050506008600084815260200190815260200160002054611f50565b5080806001019150506113a9565b505050565b60006005826040518082805190602001908083835b602083106115ec57805182526020820191506020810190506020830392506115c9565b6001836020036101000a038019825116818451168082178552505050505050905001915050908152602001604051809103902060009054906101000a900473ffffffffffffffffffffffffffffffffffffffff169050919050565b6116958383838080601f016020809104026020016040519081016040528093929190818152602001838380828437600081840152601f19601f8201169050808301925050505050505061211b565b505050565b6000600760149054906101000a900460ff16905090565b600760149054906101000a900460ff16611716576040517f08c379a00000000000000000000000000000000000000000000000000000000081526004018080602001828103825260258152602001806125d26025913960400191505060405180910390fd5b600760009054906101000a900473ffffffffffffffffffffffffffffffffffffffff1673ffffffffffffffffffffffffffffffffffffffff163373ffffffffffffffffffffffffffffffffffffffff16146117d9576040517f08c379a000000000000000000000000000000000000000000000000000000000815260040180806020018281038252601c8152602001807f43616c6c6572206973206e6f7420636f6e7472616374206f776e65720000000081525060200191505060405180910390fd5b6000848484604051602001808481526020018383808284378083019250505093505050506040516020818303038152906040528051906020012090508160086000838152602001908152602001600020819055506009600086815260200190815260200160002084849091806001815401808255809150509060018203906000526020600020016000909192939091929390919290919250919061187e929190612382565b50505050505050565b81611891816108e5565b61189a57600080fd5b6000600660008573ffffffffffffffffffffffffffffffffffffffff1673ffffffffffffffffffffffffffffffffffffffff16815260200190815260200160002054905082811015611937576040517f08c379a000000000000000000000000000000000000000000000000000000000815260040180806020018281038252603781526020018061259b6037913960400191505060405180910390fd5b61194a838261226390919063ffffffff16565b600660008673ffffffffffffffffffffffffffffffffffffffff1673ffffffffffffffffffffffffffffffffffffffff168152602001908152602001600020819055508373ffffffffffffffffffffffffffffffffffffffff166108fc849081150290604051600060405180830381858888f193505050501580156119d3573d6000803e3d6000fd5b5050505050565b600081511415611a52576040517f08c379a00000000000000000000000000000000000000000000000000000000081526004018080602001828103825260208152602001807f4169726c696e6520636f6d70616e7920616d65206973206d616e6461746f727981525060200191505060405180910390fd5b600360008154809291906001019190505550604051806080016040528082815260200160001515815260200160001515815260200160008152506000808473ffffffffffffffffffffffffffffffffffffffff1673ffffffffffffffffffffffffffffffffffffffff1681526020019081526020016000206000820151816000019080519060200190611ae6929190612402565b5060208201518160010160006101000a81548160ff02191690831515021790555060408201518160010160016101000a81548160ff02191690831515021790555060608201518160020155905050611c676000808473ffffffffffffffffffffffffffffffffffffffff1673ffffffffffffffffffffffffffffffffffffffff168152602001908152602001600020604051806080016040529081600082018054600181600116156101000203166002900480601f016020809104026020016040519081016040528092919081815260200182805460018160011615610100020316600290048015611c195780601f10611bee57610100808354040283529160200191611c19565b820191906000526020600020905b815481529060010190602001808311611bfc57829003601f168201915b505050505081526020016001820160009054906101000a900460ff161515151581526020016001820160019054906101000a900460ff16151515158152602001600282015481525050611d6b565b6000808473ffffffffffffffffffffffffffffffffffffffff1673ffffffffffffffffffffffffffffffffffffffff16815260200190815260200160002060010160006101000a81548160ff021916908315150217905550816002826040518082805190602001908083835b60208310611cf65780518252602082019150602081019050602083039250611cd3565b6001836020036101000a038019825116818451168082178552505050505050905001915050908152602001604051809103902060006101000a81548173ffffffffffffffffffffffffffffffffffffffff021916908373ffffffffffffffffffffffffffffffffffffffff1602179055505050565b6000611d756122ec565b80611d8857506003548260600151600202115b9050919050565b6005600460008373ffffffffffffffffffffffffffffffffffffffff1673ffffffffffffffffffffffffffffffffffffffff1681526020019081526020016000206000016040518082805460018160011615610100020316600290048015611e2e5780601f10611e0c576101008083540402835291820191611e2e565b820191906000526020600020905b815481529060010190602001808311611e1a575b5050915050908152602001604051809103902060006101000a81549073ffffffffffffffffffffffffffffffffffffffff0219169055600460008273ffffffffffffffffffffffffffffffffffffffff1673ffffffffffffffffffffffffffffffffffffffff16815260200190815260200160002060008082016000611eb49190612482565b505050565b6000808273ffffffffffffffffffffffffffffffffffffffff1673ffffffffffffffffffffffffffffffffffffffff16815260200190815260200160002060008082016000611f089190612482565b6001820160006101000a81549060ff02191690556001820160016101000a81549060ff0219169055600282016000905550506003600081548092919060019003919050555050565b6005826040518082805190602001908083835b60208310611f865780518252602082019150602081019050602083039250611f63565b6001836020036101000a038019825116818451168082178552505050505050905001915050908152602001604051809103902060009054906101000a900473ffffffffffffffffffffffffffffffffffffffff16611fe3816108e5565b611fec57600080fd5b60006005846040518082805190602001908083835b602083106120245780518252602082019150602081019050602083039250612001565b6001836020036101000a038019825116818451168082178552505050505050905001915050908152602001604051809103902060009054906101000a900473ffffffffffffffffffffffffffffffffffffffff1690506000600660008373ffffffffffffffffffffffffffffffffffffffff1673ffffffffffffffffffffffffffffffffffffffff1681526020019081526020016000205490506120d184826122fa90919063ffffffff16565b600660008473ffffffffffffffffffffffffffffffffffffffff1673ffffffffffffffffffffffffffffffffffffffff168152602001908152602001600020819055505050505050565b80600460008473ffffffffffffffffffffffffffffffffffffffff1673ffffffffffffffffffffffffffffffffffffffff16815260200190815260200160002060000190805190602001906121719291906124ca565b50816005826040518082805190602001908083835b602083106121a95780518252602082019150602081019050602083039250612186565b6001836020036101000a038019825116818451168082178552505050505050905001915050908152602001604051809103902060006101000a81548173ffffffffffffffffffffffffffffffffffffffff021916908373ffffffffffffffffffffffffffffffffffffffff1602179055506000600660008473ffffffffffffffffffffffffffffffffffffffff1673ffffffffffffffffffffffffffffffffffffffff168152602001908152602001600020819055505050565b6000828211156122db576040517f08c379a000000000000000000000000000000000000000000000000000000000815260040180806020018281038252601e8152602001807f536166654d6174683a207375627472616374696f6e206f766572666c6f77000081525060200191505060405180910390fd5b600082840390508091505092915050565b600060046003541115905090565b600080828401905083811015612378576040517f08c379a000000000000000000000000000000000000000000000000000000000815260040180806020018281038252601b8152602001807f536166654d6174683a206164646974696f6e206f766572666c6f77000000000081525060200191505060405180910390fd5b8091505092915050565b828054600181600116156101000203166002900490600052602060002090601f016020900481019282601f106123c357803560ff19168380011785556123f1565b828001600101855582156123f1579182015b828111156123f05782358255916020019190600101906123d5565b5b5090506123fe919061254a565b5090565b828054600181600116156101000203166002900490600052602060002090601f016020900481019282601f1061244357805160ff1916838001178555612471565b82800160010185558215612471579182015b82811115612470578251825591602001919060010190612455565b5b50905061247e919061254a565b5090565b50805460018160011615610100020316600290046000825580601f106124a857506124c7565b601f0160209004906000526020600020908101906124c6919061254a565b5b50565b828054600181600116156101000203166002900490600052602060002090601f016020900481019282601f1061250b57805160ff1916838001178555612539565b82800160010185558215612539579182015b8281111561253857825182559160200191906001019061251d565b5b509050612546919061254a565b5090565b61256c91905b80821115612568576000816000905550600101612550565b5090565b9056fe5468697320617070726f76657220616c726561647920617070726f7665642074686973206169726c696e6550617373656e676572732063616e6e6f742072657175657374206d6f7265207468616e20776974686472617761626c6520616d6f756e74436f6e74726163742069732063757272656e746c79206e6f74206f7065726174696f6e616ca165627a7a72305820d8ea37bc9147cc17cb9fe590c5042ce4791e15dfada5fc1a3e6e27866d7595a00029",
  "source": "//pragma solidity ^0.4.25;\npragma solidity >=0.4.25 <0.6.0;\n\n\n// It's important to avoid vulnerabilities due to numeric overflow bugs\n// OpenZeppelin's SafeMath library, when used correctly, protects agains such bugs\n// More info: https://www.nccgroup.trust/us/about-us/newsroom-and-events/blog/2018/november/smart-contract-insecurity-bad-arithmetic/\n\nimport \"../node_modules/openzeppelin-solidity/contracts/math/SafeMath.sol\";\nimport \"./FlightSuretyData.sol\";\n\n/************************************************** */\n/* FlightSurety Smart Contract                      */\n/************************************************** */\ncontract FlightSuretyApp {\n    using SafeMath for uint256; // Allow SafeMath functions to be called for all uint256 types (similar to \"prototype\" in Javascript)\n\n    /********************************************************************************************/\n    /*                                       DATA VARIABLES                                     */\n    /********************************************************************************************/\n\n    // Airline Registration Status Code\n    uint8 private constant STATUS_CODE_REGISTERED = 0;\n    uint8 private constant STATUS_CODE_APPROVED = 10;\n    uint8 private constant STATUS_CODE_APPROVED_FUNDED = 20;\n    uint8 private constant STATUS_CODE_REJECTED = 99;\n    // Flight status codees\n    uint8 private constant STATUS_CODE_UNKNOWN = 0;\n    uint8 private constant STATUS_CODE_ON_TIME = 10;\n    uint8 private constant STATUS_CODE_LATE_AIRLINE = 20;\n    uint8 private constant STATUS_CODE_LATE_WEATHER = 30;\n    uint8 private constant STATUS_CODE_LATE_TECHNICAL = 40;\n    uint8 private constant STATUS_CODE_LATE_OTHER = 50;\n    // Account Type\n    uint8 private constant TYPE_UNDEFINED = 0;\n    uint8 private constant TYPE_AIRLINE = 10;\n    uint8 private constant TYPE_PASSENGER = 20;\n\n    uint256 private constant CREDIT_RATE = 15;\n    uint256 private constant DIV_RATE = 10;\n\n    address payable private contractOwner;          // Account used to deploy contract\n    FlightSuretyData private flightSuretyData;\n    bool private operational = true;\n\n    /********************************************************************************************/\n    /*                                            EVENTS                                        */\n    /********************************************************************************************/\n    //event eventRegisteredAirline(address airline);\n    event eventApprovedAirline(uint8 index, address airline);\n    //event eventFundedAirline(address airline);\n\n    event eventRegisterFlight(bytes32 flightID);\n    event eventUpdateFlightStatus(address airline, bytes32 flightID, uint8 status);\n\n\n    /********************************************************************************************/\n    /*                                       FUNCTION MODIFIERS                                 */\n    /********************************************************************************************/\n\n    // Modifiers help avoid duplication of code. They are typically used to validate something\n    // before a function is allowed to be executed.\n\n    /**\n    * @dev Modifier that requires the \"operational\" boolean variable to be \"true\"\n    *      This is used on all state changing functions to pause the contract in\n    *      the event there is an issue that needs to be fixed\n    */\n    modifier requireIsOperational()\n    {\n         // Modify to call data contract's status\n        require(operational, \"Contract is currently not operational\");\n        _;  // All modifiers require an \"_\" which indicates where the function body will be added\n    }\n\n    /**\n    * @dev Modifier that requires the \"ContractOwner\" account to be the function caller\n    */\n    modifier requireContractOwner()\n    {\n        require(msg.sender == contractOwner, \"Caller is not contract owner\");\n        _;\n    }\n\n    modifier enoughFundAmount() {\n        require(msg.value >= 10 ether, 'Not enough fund amount. Should be larger then 10 ether');\n        _;\n    }\n\n    /**\n    * @dev Modifier that requires the the account is not registered yet\n    */\n    modifier onlyNewAccount(address account) {\n        require(!(_isAirline(account) || _isPassenger(account)), \"This account is already registered.\");\n        _;\n    }\n\n    /**\n    * @dev Modifier that requires the  account is airline\n    */\n    modifier onlyAirline(address account) {\n        require(_isAirline(account), \"This account is not an airplane account.\");\n        _;\n    }\n\n    /**\n    * @dev Modifier that requires the account is passenger\n    */\n    modifier onlyPassenger(address account) {\n        require(_isPassenger(account), \"This account is not an passenger account.\");\n        _;\n    }\n\n    function _isAirline(address account) private view returns (bool) {\n        return flightSuretyData.isAirline(account);\n    }\n    function _isPassenger(address account) private view returns (bool) {\n        return flightSuretyData.isPassenger(account);\n    }\n\n    function getAccountType(address _account)\n        external\n        view\n        requireIsOperational\n        returns (uint8)\n    {\n        if(_isAirline(_account)) {\n            return TYPE_AIRLINE;\n        } else if (_isPassenger(_account)) {\n            return TYPE_PASSENGER;\n        } else {\n            return TYPE_UNDEFINED;\n        }\n    }\n\n    /********************************************************************************************/\n    /*                                       CONSTRUCTOR                                        */\n    /********************************************************************************************/\n\n    /**\n    * @dev Contract constructor\n    *\n    */\n    constructor () public\n    {\n        contractOwner = msg.sender;\n        flightSuretyData = new FlightSuretyData(msg.sender);\n    }\n\n    /********************************************************************************************/\n    /*                                       UTILITY FUNCTIONS                                  */\n    /********************************************************************************************/\n\n    function isOperational()\n        public\n        view\n        returns(bool)\n    {\n        return operational;// && flightSuretyData.isOperational();  // Modify to call data contract's status\n    }\n\n    function setOperatingStatus(\n            bool mode )\n        external\n        requireContractOwner {\n\n        //flightSuretyData.setOperational(mode);\n        operational = mode;\n    }\n\n\n    /********************************************************************************************/\n    /*                                       DApps                                  */\n    /********************************************************************************************/\n\n\n    /********************************************************************************************/\n    /*                                     SMART CONTRACT FUNCTIONS                             */\n    /********************************************************************************************/\n\n   /**\n    * @dev Add an airline to the registration queue\n    *\n    */\n    function registerAirline(string calldata name)\n        external\n        onlyNewAccount(msg.sender)\n    {\n        flightSuretyData.addAirline(msg.sender, name);\n        //emit eventRegisteredAirline(msg.sender);\n    }\n\n    function approveAirline(address airlineAccount)\n        external\n        onlyAirline(msg.sender)\n    {\n        flightSuretyData.approveAirline(airlineAccount, msg.sender);\n        if ( flightSuretyData.isApproved(airlineAccount)) {\n            emit eventApprovedAirline(getRandomIndex(airlineAccount), airlineAccount);\n        }\n    }\n\n    function fund()\n        external\n        payable\n        requireIsOperational\n        onlyAirline(msg.sender)\n        enoughFundAmount\n    { // check if got enough fund or not\n        flightSuretyData.funded(msg.sender);\n        // eventFundedAirline(msg.sender);\n    }\n\n\n    function getAirlineStatus(address _account)\n        external\n        view\n        requireIsOperational\n        onlyAirline(_account)\n        returns (uint8) {\n\n        if(flightSuretyData.isFunded(_account)) {\n            return STATUS_CODE_APPROVED_FUNDED;\n        } else if(flightSuretyData.isApproved(_account)) {\n            return STATUS_CODE_APPROVED;\n        } else {\n            return STATUS_CODE_REGISTERED;\n        }  // rejection is out of scope\n    }\n\n    /**\n        Flight Operation only by Airline\n     */\n   /**\n    * @dev Register a future flight for insuring.\n    *\n    */\n    function registerFlight(string calldata flight, uint256 timestamp)\n        external\n        requireIsOperational\n        onlyAirline(msg.sender)\n    {\n        bytes32 flightKey = getFlightKey(\n                                msg.sender,\n                                flight,\n                                timestamp);\n        flightProvider[flightKey] = msg.sender;\n        emit eventRegisterFlight(flightKey);\n    }\n\n    // @todo avoid other airlines to update the flight. Maybe better use /api in the oracle server\n    function updateFlightStatus(string calldata flight, uint256 timestamp, uint8 statusCode )\n        external\n        requireIsOperational\n        onlyAirline(msg.sender)\n        onlyFlightProvider(getFlightKey(msg.sender, flight, timestamp))\n    {\n        bytes32 flightKey = getFlightKey(\n                                msg.sender,\n                                flight,\n                                timestamp);\n        emit eventUpdateFlightStatus(msg.sender, flightKey, statusCode);\n    }\n\n    // From FlightKey to airline address\n    mapping(bytes32 => address) private flightProvider;\n    // Only the flight provider can operate on the flight of the airline.\n    modifier onlyFlightProvider(bytes32 flightKey) {\n        require(msg.sender == flightProvider[flightKey], \"Not a flight operator.\");\n        _;\n    }\n\n\n   /**\n    * @dev Called after oracle has updated flight status\n    *\n    */\n    function listenFlightStatuUpdatesUpdate(\n            address updater,\n            string calldata airlineName,\n            string calldata flightName,\n            uint256 timestamp,\n            uint8 statusCode)\n        external\n        requireIsOperational\n    {\n        bytes32 flightKey = getFlightKey(\n                                flightSuretyData.getAirline(airlineName),\n                                flightName,\n                                timestamp);\n        require(flightProvider[flightKey] == updater, \"Airlines can only update its flight.\");\n        //bytes32 insuranceId;\n        if( STATUS_CODE_LATE_AIRLINE == statusCode ){\n            flightSuretyData.addPayment(flightKey);\n        }\n    }\n\n    // function fetchFlightStatus(\n    //         address airline,\n    //         string calldata flight,\n    //         uint256 timestamp)\n    //     external\n    // {\n    //     uint8 index = getRandomIndex(msg.sender);\n\n    //     // Generate a unique key for storing the request\n    //     bytes32 key = keccak256(abi.encodePacked(index, airline, flight, timestamp));\n    //     oracleResponses[key] = ResponseInfo({\n    //                                             requester: msg.sender,\n    //                                             isOpen: true\n    //                                         });\n\n    //     emit OracleRequest(index, airline, flight, timestamp);\n    // }\n\n   /**\n    * @dev Add a passenger to the registration queue\n    *\n    */\n    function registerPassenger(string calldata name)\n        external\n        onlyNewAccount(msg.sender)\n    {\n        flightSuretyData.addPassenger(msg.sender, name);\n        //emit eventRegisteredAirline(msg.sender);\n    }\n\n    function buy(\n            string calldata airlineName,\n            string calldata flightName,\n            uint256 timestamp,\n            string calldata passengerName)\n        external\n        payable\n        requireIsOperational\n        onlyPassenger(msg.sender)\n    {\n        bytes32 flightKey = getFlightKey(\n                    flightSuretyData.getAirline(airlineName),\n                    flightName,\n                    timestamp);\n        uint256 amountCreditedToPassenger = msg.value.mul(CREDIT_RATE).div(DIV_RATE);\n        flightSuretyData.insurance(flightKey, passengerName, amountCreditedToPassenger);\n    }\n\n    function withdraw(\n            uint256 amount)\n        external\n        requireIsOperational\n        onlyPassenger(msg.sender)\n    {\n        flightSuretyData.withdraw(msg.sender, amount);\n    }\n\n\n// region ORACLE MANAGEMENT\n\n    // Incremented to add pseudo-randomness at various points\n    uint8 private nonce = 0;\n\n    // Fee to be paid when registering oracle\n    uint256 public constant REGISTRATION_FEE = 1 ether;\n\n    // Number of oracles that must respond for valid status\n    uint256 private constant MIN_RESPONSES = 3;\n\n\n    struct Oracle {\n        bool isRegistered;\n        uint8[3] indexes;\n    }\n\n    // Track all registered oracles\n    mapping(address => Oracle) private oracles;\n\n    // Model for responses from oracles\n    struct ResponseInfo {\n        address requester;                              // Account that requested status\n        bool isOpen;                                    // If open, oracle responses are accepted\n        mapping(uint8 => address[]) responses;          // Mapping key is the status code reported\n                                                        // This lets us group responses and identify\n                                                        // the response that majority of the oracles\n    }\n\n    // Track all oracle responses\n    // Key = hash(index, flight, timestamp)\n    mapping(bytes32 => ResponseInfo) private oracleResponses;\n\n    // Event fired each time an oracle submits a response\n    event FlightStatusInfo(address airline, string flight, uint256 timestamp, uint8 status);\n\n    event OracleReport(address airline, string flight, uint256 timestamp, uint8 status);\n\n    // Event fired when flight status request is submitted\n    // Oracles track this and if they have a matching index\n    // they fetch data and submit a response\n    event OracleRequest(uint8 index, address airline, string flight, uint256 timestamp);\n\n    // Register an oracle with the contract\n    function registerOracle ()\n        external\n        payable\n    {\n        // Require registration fee\n        require(msg.value >= REGISTRATION_FEE, \"Registration fee is required\");\n\n        uint8[3] memory indexes = generateIndexes(msg.sender);\n\n        oracles[msg.sender] = Oracle(\n            {isRegistered: true, indexes: indexes});\n    }\n\n    function getRegistrationFee()\n        public\n        pure\n        returns (uint256)\n    {\n        return REGISTRATION_FEE;\n    }\n\n    function getMyIndexes()\n        external\n        view\n        returns(uint8[3] memory)\n    {\n        require(oracles[msg.sender].isRegistered, \"Not registered as an oracle\");\n\n        return oracles[msg.sender].indexes;\n    }\n\n    // Called by oracle when a response is available to an outstanding request\n    // For the response to be accepted, there must be a pending request that is open\n    // and matches one of the three Indexes randomly assigned to the oracle at the\n    // time of registration (i.e. uninvited oracles are not welcome)\n    function submitOracleResponse(\n            uint8 index,\n            address airline,\n            string calldata flight,\n            uint256 timestamp,\n            uint8 statusCode                        )\n        external\n        requireIsOperational\n    {\n        require((oracles[msg.sender].indexes[0] == index)\n         || (oracles[msg.sender].indexes[1] == index)\n         || (oracles[msg.sender].indexes[2] == index), \"Index does not match oracle request\");\n\n        bytes32 key = keccak256(abi.encodePacked(index, airline, flight, timestamp));\n        require(oracleResponses[key].isOpen, \"Flight or timestamp do not match oracle request\");\n\n        oracleResponses[key].responses[statusCode].push(msg.sender);\n\n        // Information isn't considered verified until at least MIN_RESPONSES\n        // oracles respond with the *** same *** information\n        emit OracleReport(airline, flight, timestamp, statusCode);\n        if (oracleResponses[key].responses[statusCode].length >= MIN_RESPONSES) {\n\n            emit FlightStatusInfo(airline, flight, timestamp, statusCode);\n\n            // Handle flight status as appropriate\n\n            if( STATUS_CODE_LATE_AIRLINE == statusCode ){\n                bytes32 flightKey = getFlightKey(\n                                airline,\n                                flight,\n                                timestamp);\n                flightSuretyData.addPayment(flightKey);\n            }\n        //    processFlightStatus(airline, flight, timestamp, statusCode);\n        }\n    }\n\n    function getFlightKey(\n            address airline,\n            string memory flight,\n            uint256 timestamp)\n        pure\n        internal\n        returns(bytes32)\n    {\n        return keccak256(abi.encodePacked(airline, flight, timestamp));\n    }\n\n    // Returns array of three non-duplicating integers from 0-9\n    function generateIndexes(\n            address account)\n        internal\n        returns(uint8[3] memory)\n    {\n        uint8[3] memory indexes;\n        indexes[0] = getRandomIndex(account);\n\n        indexes[1] = indexes[0];\n        while(indexes[1] == indexes[0]) {\n            indexes[1] = getRandomIndex(account);\n        }\n\n        indexes[2] = indexes[1];\n        while((indexes[2] == indexes[0]) || (indexes[2] == indexes[1])) {\n            indexes[2] = getRandomIndex(account);\n        }\n\n        return indexes;\n    }\n\n    // Returns array of three non-duplicating integers from 0-9\n    function getRandomIndex(\n            address account)\n        internal\n        returns (uint8)\n    {\n        uint8 maxValue = 10;\n\n        // Pseudo random number...the incrementing nonce adds variation\n        uint8 random = uint8(uint256(keccak256(abi.encodePacked(blockhash(block.number - nonce++), account))) % maxValue);\n\n        if (nonce > 250) {\n            nonce = 0;  // Can only fetch blockhashes for last 256 blocks so we adapt\n        }\n\n        return random;\n    }\n\n// endregion\n\n}",
  "sourcePath": "/home/hajime/git/BlockchainDevND/projects/project_FlightSurety/contracts/FlightSuretyApp.sol",
  "compiler": {
    "name": "solc",
    "version": "0.5.8+commit.23d335f2.Emscripten.clang"
  },
  "schemaVersion": "3.0.11",
  "updatedAt": "2019-10-10T09:43:06.646Z",
  "devdoc": {
    "methods": {
      "constructor": {
        "details": "Contract constructor    "
      },
      "listenFlightStatuUpdatesUpdate(address,string,string,uint256,uint8)": {
        "details": "Called after oracle has updated flight status    "
      },
      "registerAirline(string)": {
        "details": "Add an airline to the registration queue    "
      },
      "registerFlight(string,uint256)": {
        "details": "Register a future flight for insuring.    "
      },
      "registerPassenger(string)": {
        "details": "Add a passenger to the registration queue    "
      }
    }
  },
  "userdoc": {
    "methods": {
      "isOperational()": {
        "notice": "*****************************************************************************************"
      }
    },
    "notice": "************************************************ "
  }
}