{
  "contractName": "FlightSuretyApp",
  "abi": [
    {
      "constant": true,
      "inputs": [],
      "name": "REGISTRATION_FEE",
      "outputs": [
        {
          "name": "",
          "type": "uint256"
        }
      ],
      "payable": false,
      "stateMutability": "view",
      "type": "function"
    },
    {
      "inputs": [],
      "payable": false,
      "stateMutability": "nonpayable",
      "type": "constructor"
    },
    {
      "anonymous": false,
      "inputs": [
        {
          "indexed": false,
          "name": "index",
          "type": "uint8"
        },
        {
          "indexed": false,
          "name": "airline",
          "type": "address"
        }
      ],
      "name": "eventApprovedAirline",
      "type": "event"
    },
    {
      "anonymous": false,
      "inputs": [
        {
          "indexed": false,
          "name": "flightID",
          "type": "bytes32"
        }
      ],
      "name": "eventRegisterFlight",
      "type": "event"
    },
    {
      "anonymous": false,
      "inputs": [
        {
          "indexed": false,
          "name": "airline",
          "type": "address"
        },
        {
          "indexed": false,
          "name": "flightID",
          "type": "bytes32"
        },
        {
          "indexed": false,
          "name": "status",
          "type": "uint8"
        }
      ],
      "name": "eventUpdateFlightStatus",
      "type": "event"
    },
    {
      "anonymous": false,
      "inputs": [
        {
          "indexed": false,
          "name": "airline",
          "type": "address"
        },
        {
          "indexed": false,
          "name": "flight",
          "type": "string"
        },
        {
          "indexed": false,
          "name": "timestamp",
          "type": "uint256"
        },
        {
          "indexed": false,
          "name": "status",
          "type": "uint8"
        }
      ],
      "name": "FlightStatusInfo",
      "type": "event"
    },
    {
      "anonymous": false,
      "inputs": [
        {
          "indexed": false,
          "name": "airline",
          "type": "address"
        },
        {
          "indexed": false,
          "name": "flight",
          "type": "string"
        },
        {
          "indexed": false,
          "name": "timestamp",
          "type": "uint256"
        },
        {
          "indexed": false,
          "name": "status",
          "type": "uint8"
        }
      ],
      "name": "OracleReport",
      "type": "event"
    },
    {
      "anonymous": false,
      "inputs": [
        {
          "indexed": false,
          "name": "index",
          "type": "uint8"
        },
        {
          "indexed": false,
          "name": "airline",
          "type": "address"
        },
        {
          "indexed": false,
          "name": "flight",
          "type": "string"
        },
        {
          "indexed": false,
          "name": "timestamp",
          "type": "uint256"
        }
      ],
      "name": "OracleRequest",
      "type": "event"
    },
    {
      "constant": true,
      "inputs": [],
      "name": "getAccountType",
      "outputs": [
        {
          "name": "",
          "type": "uint8"
        }
      ],
      "payable": false,
      "stateMutability": "view",
      "type": "function"
    },
    {
      "constant": false,
      "inputs": [],
      "name": "datacontract",
      "outputs": [
        {
          "name": "",
          "type": "bool"
        }
      ],
      "payable": false,
      "stateMutability": "nonpayable",
      "type": "function"
    },
    {
      "constant": true,
      "inputs": [],
      "name": "isOperational",
      "outputs": [
        {
          "name": "",
          "type": "bool"
        }
      ],
      "payable": false,
      "stateMutability": "view",
      "type": "function"
    },
    {
      "constant": false,
      "inputs": [
        {
          "name": "mode",
          "type": "bool"
        }
      ],
      "name": "setOperatingStatus",
      "outputs": [],
      "payable": false,
      "stateMutability": "nonpayable",
      "type": "function"
    },
    {
      "constant": false,
      "inputs": [
        {
          "name": "name",
          "type": "string"
        }
      ],
      "name": "registerAirline",
      "outputs": [],
      "payable": false,
      "stateMutability": "nonpayable",
      "type": "function"
    },
    {
      "constant": false,
      "inputs": [
        {
          "name": "airlineAccount",
          "type": "address"
        }
      ],
      "name": "approveAirline",
      "outputs": [],
      "payable": false,
      "stateMutability": "nonpayable",
      "type": "function"
    },
    {
      "constant": false,
      "inputs": [],
      "name": "fund",
      "outputs": [],
      "payable": true,
      "stateMutability": "payable",
      "type": "function"
    },
    {
      "constant": true,
      "inputs": [],
      "name": "getAirlineStatus",
      "outputs": [
        {
          "name": "",
          "type": "uint8"
        }
      ],
      "payable": false,
      "stateMutability": "view",
      "type": "function"
    },
    {
      "constant": false,
      "inputs": [
        {
          "name": "flight",
          "type": "string"
        },
        {
          "name": "timestamp",
          "type": "uint256"
        }
      ],
      "name": "registerFlight",
      "outputs": [],
      "payable": false,
      "stateMutability": "nonpayable",
      "type": "function"
    },
    {
      "constant": false,
      "inputs": [
        {
          "name": "flight",
          "type": "string"
        },
        {
          "name": "timestamp",
          "type": "uint256"
        },
        {
          "name": "statusCode",
          "type": "uint8"
        }
      ],
      "name": "updateFlightStatus",
      "outputs": [],
      "payable": false,
      "stateMutability": "nonpayable",
      "type": "function"
    },
    {
      "constant": false,
      "inputs": [
        {
          "name": "updater",
          "type": "address"
        },
        {
          "name": "airlineName",
          "type": "string"
        },
        {
          "name": "flightName",
          "type": "string"
        },
        {
          "name": "timestamp",
          "type": "uint256"
        },
        {
          "name": "statusCode",
          "type": "uint8"
        }
      ],
      "name": "listenFlightStatuUpdatesUpdate",
      "outputs": [],
      "payable": false,
      "stateMutability": "nonpayable",
      "type": "function"
    },
    {
      "constant": false,
      "inputs": [
        {
          "name": "name",
          "type": "string"
        }
      ],
      "name": "registerPassenger",
      "outputs": [],
      "payable": false,
      "stateMutability": "nonpayable",
      "type": "function"
    },
    {
      "constant": false,
      "inputs": [
        {
          "name": "airlineName",
          "type": "string"
        },
        {
          "name": "flightName",
          "type": "string"
        },
        {
          "name": "timestamp",
          "type": "uint256"
        },
        {
          "name": "passengerName",
          "type": "string"
        }
      ],
      "name": "buy",
      "outputs": [],
      "payable": true,
      "stateMutability": "payable",
      "type": "function"
    },
    {
      "constant": false,
      "inputs": [
        {
          "name": "amount",
          "type": "uint256"
        }
      ],
      "name": "withdraw",
      "outputs": [],
      "payable": false,
      "stateMutability": "nonpayable",
      "type": "function"
    },
    {
      "constant": false,
      "inputs": [],
      "name": "registerOracle",
      "outputs": [],
      "payable": true,
      "stateMutability": "payable",
      "type": "function"
    },
    {
      "constant": true,
      "inputs": [],
      "name": "getRegistrationFee",
      "outputs": [
        {
          "name": "",
          "type": "uint256"
        }
      ],
      "payable": false,
      "stateMutability": "pure",
      "type": "function"
    },
    {
      "constant": true,
      "inputs": [],
      "name": "getMyIndexes",
      "outputs": [
        {
          "name": "",
          "type": "uint8[3]"
        }
      ],
      "payable": false,
      "stateMutability": "view",
      "type": "function"
    },
    {
      "constant": false,
      "inputs": [
        {
          "name": "index",
          "type": "uint8"
        },
        {
          "name": "airline",
          "type": "address"
        },
        {
          "name": "flight",
          "type": "string"
        },
        {
          "name": "timestamp",
          "type": "uint256"
        },
        {
          "name": "statusCode",
          "type": "uint8"
        }
      ],
      "name": "submitOracleResponse",
      "outputs": [],
      "payable": false,
      "stateMutability": "nonpayable",
      "type": "function"
    }
  ],
  "bytecode": "0x608060405260018060146101000a81548160ff0219169083151502179055506000600360006101000a81548160ff021916908360ff16021790555034801561004657600080fd5b50336000806101000a81548173ffffffffffffffffffffffffffffffffffffffff021916908373ffffffffffffffffffffffffffffffffffffffff1602179055506000809054906101000a900473ffffffffffffffffffffffffffffffffffffffff16600160006101000a81548173ffffffffffffffffffffffffffffffffffffffff021916908373ffffffffffffffffffffffffffffffffffffffff16021790555061319e806100f86000396000f3fe6080604052600436106101145760003560e01c80635f1cc0e6116100a0578063b60d428811610064578063b60d4288146106e7578063c10f2700146106f1578063cd905dff146107bb578063ee833caa146107ea578063fdb04c8a1461081b57610114565b80635f1cc0e6146103fb57806364b4f7511461044e5780636ba6e8ac146104795780636dba26a51461058b57806384b733ca146105ba57610114565b80632e1a7d4d116100e75780632e1a7d4d146102a4578063339d2590146102df57806339cfc995146102e9578063419ca9af1461037957806352d6a0a3146103ca57610114565b80630946e807146101195780630b5fdc4214610144578063110466ed146101e1578063252052101461021e575b600080fd5b34801561012557600080fd5b5061012e6108a1565b6040518082815260200191505060405180910390f35b34801561015057600080fd5b506101df6004803603606081101561016757600080fd5b810190808035906020019064010000000081111561018457600080fd5b82018360208201111561019657600080fd5b803590602001918460018302840111640100000000831117156101b857600080fd5b909192939192939080359060200190929190803560ff1690602001909291905050506108b1565b005b3480156101ed57600080fd5b5061021c6004803603602081101561020457600080fd5b81019080803515159060200190929190505050610b6d565b005b34801561022a57600080fd5b506102a26004803603602081101561024157600080fd5b810190808035906020019064010000000081111561025e57600080fd5b82018360208201111561027057600080fd5b8035906020019184600183028401116401000000008311171561029257600080fd5b9091929391929390505050610c4c565b005b3480156102b057600080fd5b506102dd600480360360208110156102c757600080fd5b8101908080359060200190929190505050610dae565b005b6102e7610f37565b005b3480156102f557600080fd5b506103776004803603604081101561030c57600080fd5b810190808035906020019064010000000081111561032957600080fd5b82018360208201111561033b57600080fd5b8035906020019184600183028401116401000000008311171561035d57600080fd5b90919293919293908035906020019092919050505061105d565b005b34801561038557600080fd5b506103c86004803603602081101561039c57600080fd5b81019080803573ffffffffffffffffffffffffffffffffffffffff169060200190929190505050611204565b005b3480156103d657600080fd5b506103df6114ad565b604051808260ff1660ff16815260200191505060405180910390f35b34801561040757600080fd5b506104106114e5565b6040518082600360200280838360005b8381101561043b578082015181840152602081019050610420565b5050505090500191505060405180910390f35b34801561045a57600080fd5b50610463611658565b6040518082815260200191505060405180910390f35b34801561048557600080fd5b50610589600480360360a081101561049c57600080fd5b81019080803573ffffffffffffffffffffffffffffffffffffffff169060200190929190803590602001906401000000008111156104d957600080fd5b8201836020820111156104eb57600080fd5b8035906020019184600183028401116401000000008311171561050d57600080fd5b90919293919293908035906020019064010000000081111561052e57600080fd5b82018360208201111561054057600080fd5b8035906020019184600183028401116401000000008311171561056257600080fd5b909192939192939080359060200190929190803560ff169060200190929190505050611664565b005b34801561059757600080fd5b506105a0611953565b604051808215151515815260200191505060405180910390f35b6106e5600480360360808110156105d057600080fd5b81019080803590602001906401000000008111156105ed57600080fd5b8201836020820111156105ff57600080fd5b8035906020019184600183028401116401000000008311171561062157600080fd5b90919293919293908035906020019064010000000081111561064257600080fd5b82018360208201111561065457600080fd5b8035906020019184600183028401116401000000008311171561067657600080fd5b909192939192939080359060200190929190803590602001906401000000008111156106a157600080fd5b8201836020820111156106b357600080fd5b803590602001918460018302840111640100000000831117156106d557600080fd5b90919293919293905050506119fd565b005b6106ef611ced565b005b3480156106fd57600080fd5b506107b9600480360360a081101561071457600080fd5b81019080803560ff169060200190929190803573ffffffffffffffffffffffffffffffffffffffff1690602001909291908035906020019064010000000081111561075e57600080fd5b82018360208201111561077057600080fd5b8035906020019184600183028401116401000000008311171561079257600080fd5b909192939192939080359060200190929190803560ff169060200190929190505050611ece565b005b3480156107c757600080fd5b506107d06124f5565b604051808215151515815260200191505060405180910390f35b3480156107f657600080fd5b506107ff61250c565b604051808260ff1660ff16815260200191505060405180910390f35b34801561082757600080fd5b5061089f6004803603602081101561083e57600080fd5b810190808035906020019064010000000081111561085b57600080fd5b82018360208201111561086d57600080fd5b8035906020019184600183028401116401000000008311171561088f57600080fd5b90919293919293905050506127ab565b005b6000670de0b6b3a7640000905090565b600160149054906101000a900460ff16610916576040517f08c379a00000000000000000000000000000000000000000000000000000000081526004018080602001828103825260258152602001806130de6025913960400191505060405180910390fd5b336109208161290d565b610975576040517f08c379a00000000000000000000000000000000000000000000000000000000081526004018080602001828103825260288152602001806130726028913960400191505060405180910390fd5b6109c43386868080601f016020809104026020016040519081016040528093929190818152602001838380828437600081840152601f19601f82011690508083019250505050505050856129f0565b6002600082815260200190815260200160002060009054906101000a900473ffffffffffffffffffffffffffffffffffffffff1673ffffffffffffffffffffffffffffffffffffffff163373ffffffffffffffffffffffffffffffffffffffff1614610a98576040517f08c379a00000000000000000000000000000000000000000000000000000000081526004018080602001828103825260168152602001807f4e6f74206120666c69676874206f70657261746f722e0000000000000000000081525060200191505060405180910390fd5b6000610ae93388888080601f016020809104026020016040519081016040528093929190818152602001838380828437600081840152601f19601f82011690508083019250505050505050876129f0565b90507f029a3f1d54054fb826aa6503ceba4424858dc0b660a751dfd9881d615deec1c5338286604051808473ffffffffffffffffffffffffffffffffffffffff1673ffffffffffffffffffffffffffffffffffffffff1681526020018381526020018260ff1660ff168152602001935050505060405180910390a150505050505050565b6000809054906101000a900473ffffffffffffffffffffffffffffffffffffffff1673ffffffffffffffffffffffffffffffffffffffff163373ffffffffffffffffffffffffffffffffffffffff1614610c2f576040517f08c379a000000000000000000000000000000000000000000000000000000000815260040180806020018281038252601c8152602001807f43616c6c6572206973206e6f7420636f6e7472616374206f776e65720000000081525060200191505060405180910390fd5b80600160146101000a81548160ff02191690831515021790555050565b33610c568161290d565b80610c665750610c6581612aac565b5b15610cbc576040517f08c379a000000000000000000000000000000000000000000000000000000000815260040180806020018281038252602381526020018061309a6023913960400191505060405180910390fd5b600160009054906101000a900473ffffffffffffffffffffffffffffffffffffffff1673ffffffffffffffffffffffffffffffffffffffff166329df66cc3385856040518463ffffffff1660e01b8152600401808473ffffffffffffffffffffffffffffffffffffffff1673ffffffffffffffffffffffffffffffffffffffff168152602001806020018281038252848482818152602001925080828437600081840152601f19601f820116905080830192505050945050505050600060405180830381600087803b158015610d9157600080fd5b505af1158015610da5573d6000803e3d6000fd5b50505050505050565b600160149054906101000a900460ff16610e13576040517f08c379a00000000000000000000000000000000000000000000000000000000081526004018080602001828103825260258152602001806130de6025913960400191505060405180910390fd5b33610e1d81612aac565b610e72576040517f08c379a00000000000000000000000000000000000000000000000000000000081526004018080602001828103825260298152602001806131036029913960400191505060405180910390fd5b600160009054906101000a900473ffffffffffffffffffffffffffffffffffffffff1673ffffffffffffffffffffffffffffffffffffffff1663f3fef3a333846040518363ffffffff1660e01b8152600401808373ffffffffffffffffffffffffffffffffffffffff1673ffffffffffffffffffffffffffffffffffffffff16815260200182815260200192505050600060405180830381600087803b158015610f1b57600080fd5b505af1158015610f2f573d6000803e3d6000fd5b505050505050565b670de0b6b3a7640000341015610fb5576040517f08c379a000000000000000000000000000000000000000000000000000000000815260040180806020018281038252601c8152602001807f526567697374726174696f6e206665652069732072657175697265640000000081525060200191505060405180910390fd5b610fbd612f20565b610fc633612b8f565b9050604051806040016040528060011515815260200182815250600460003373ffffffffffffffffffffffffffffffffffffffff1673ffffffffffffffffffffffffffffffffffffffff16815260200190815260200160002060008201518160000160006101000a81548160ff021916908315150217905550602082015181600101906003611056929190612f42565b5090505050565b600160149054906101000a900460ff166110c2576040517f08c379a00000000000000000000000000000000000000000000000000000000081526004018080602001828103825260258152602001806130de6025913960400191505060405180910390fd5b336110cc8161290d565b611121576040517f08c379a00000000000000000000000000000000000000000000000000000000081526004018080602001828103825260288152602001806130726028913960400191505060405180910390fd5b60006111723386868080601f016020809104026020016040519081016040528093929190818152602001838380828437600081840152601f19601f82011690508083019250505050505050856129f0565b9050336002600083815260200190815260200160002060006101000a81548173ffffffffffffffffffffffffffffffffffffffff021916908373ffffffffffffffffffffffffffffffffffffffff1602179055507fc0d3746fdb923f9b90c69401fec84ba18801de177690249322689a723be83189816040518082815260200191505060405180910390a15050505050565b3361120e8161290d565b611263576040517f08c379a00000000000000000000000000000000000000000000000000000000081526004018080602001828103825260288152602001806130726028913960400191505060405180910390fd5b600160009054906101000a900473ffffffffffffffffffffffffffffffffffffffff1673ffffffffffffffffffffffffffffffffffffffff166372dd8bcb83336040518363ffffffff1660e01b8152600401808373ffffffffffffffffffffffffffffffffffffffff1673ffffffffffffffffffffffffffffffffffffffff1681526020018273ffffffffffffffffffffffffffffffffffffffff1673ffffffffffffffffffffffffffffffffffffffff16815260200192505050600060405180830381600087803b15801561133857600080fd5b505af115801561134c573d6000803e3d6000fd5b50505050600160009054906101000a900473ffffffffffffffffffffffffffffffffffffffff1673ffffffffffffffffffffffffffffffffffffffff1663673448dd836040518263ffffffff1660e01b8152600401808273ffffffffffffffffffffffffffffffffffffffff1673ffffffffffffffffffffffffffffffffffffffff16815260200191505060206040518083038186803b1580156113ef57600080fd5b505afa158015611403573d6000803e3d6000fd5b505050506040513d602081101561141957600080fd5b8101908080519060200190929190505050156114a9577f6738444db39abbc0f703de7b74776a83d0a0b55dbbff2a22255885bddda7749661145983612d1b565b83604051808360ff1660ff1681526020018273ffffffffffffffffffffffffffffffffffffffff1673ffffffffffffffffffffffffffffffffffffffff1681526020019250505060405180910390a15b5050565b60006114b83361290d565b156114c657600a90506114e2565b6114cf33612aac565b156114dd57601490506114e2565b600090505b90565b6114ed612f20565b600460003373ffffffffffffffffffffffffffffffffffffffff1673ffffffffffffffffffffffffffffffffffffffff16815260200190815260200160002060000160009054906101000a900460ff166115af576040517f08c379a000000000000000000000000000000000000000000000000000000000815260040180806020018281038252601b8152602001807f4e6f74207265676973746572656420617320616e206f7261636c65000000000081525060200191505060405180910390fd5b600460003373ffffffffffffffffffffffffffffffffffffffff1673ffffffffffffffffffffffffffffffffffffffff16815260200190815260200160002060010160038060200260405190810160405280929190826003801561164e576020028201916000905b82829054906101000a900460ff1660ff16815260200190600101906020826000010492830192600103820291508084116116175790505b5050505050905090565b670de0b6b3a764000081565b600160149054906101000a900460ff166116c9576040517f08c379a00000000000000000000000000000000000000000000000000000000081526004018080602001828103825260258152602001806130de6025913960400191505060405180910390fd5b60006117f3600160009054906101000a900473ffffffffffffffffffffffffffffffffffffffff1673ffffffffffffffffffffffffffffffffffffffff16638e6d88ca89896040518363ffffffff1660e01b815260040180806020018281038252848482818152602001925080828437600081840152601f19601f820116905080830192505050935050505060206040518083038186803b15801561176d57600080fd5b505afa158015611781573d6000803e3d6000fd5b505050506040513d602081101561179757600080fd5b810190808051906020019092919050505086868080601f016020809104026020016040519081016040528093929190818152602001838380828437600081840152601f19601f82011690508083019250505050505050856129f0565b90508773ffffffffffffffffffffffffffffffffffffffff166002600083815260200190815260200160002060009054906101000a900473ffffffffffffffffffffffffffffffffffffffff1673ffffffffffffffffffffffffffffffffffffffff16146118ac576040517f08c379a000000000000000000000000000000000000000000000000000000000815260040180806020018281038252602481526020018061314f6024913960400191505060405180910390fd5b8160ff16601460ff16141561194957600160009054906101000a900473ffffffffffffffffffffffffffffffffffffffff1673ffffffffffffffffffffffffffffffffffffffff1663a8d81fb4826040518263ffffffff1660e01b815260040180828152602001915050600060405180830381600087803b15801561193057600080fd5b505af1158015611944573d6000803e3d6000fd5b505050505b5050505050505050565b6000600160009054906101000a900473ffffffffffffffffffffffffffffffffffffffff1673ffffffffffffffffffffffffffffffffffffffff1663cd905dff6040518163ffffffff1660e01b815260040160206040518083038186803b1580156119bd57600080fd5b505afa1580156119d1573d6000803e3d6000fd5b505050506040513d60208110156119e757600080fd5b8101908080519060200190929190505050905090565b600160149054906101000a900460ff16611a62576040517f08c379a00000000000000000000000000000000000000000000000000000000081526004018080602001828103825260258152602001806130de6025913960400191505060405180910390fd5b33611a6c81612aac565b611ac1576040517f08c379a00000000000000000000000000000000000000000000000000000000081526004018080602001828103825260298152602001806131036029913960400191505060405180910390fd5b6000611beb600160009054906101000a900473ffffffffffffffffffffffffffffffffffffffff1673ffffffffffffffffffffffffffffffffffffffff16638e6d88ca8b8b6040518363ffffffff1660e01b815260040180806020018281038252848482818152602001925080828437600081840152601f19601f820116905080830192505050935050505060206040518083038186803b158015611b6557600080fd5b505afa158015611b79573d6000803e3d6000fd5b505050506040513d6020811015611b8f57600080fd5b810190808051906020019092919050505088888080601f016020809104026020016040519081016040528093929190818152602001838380828437600081840152601f19601f82011690508083019250505050505050876129f0565b90506000611c16600a611c08600f34612e0b90919063ffffffff16565b612e9190919063ffffffff16565b9050600160009054906101000a900473ffffffffffffffffffffffffffffffffffffffff1673ffffffffffffffffffffffffffffffffffffffff1663f3eb52a3838787856040518563ffffffff1660e01b815260040180858152602001806020018381526020018281038252858582818152602001925080828437600081840152601f19601f82011690508083019250505095505050505050600060405180830381600087803b158015611cc957600080fd5b505af1158015611cdd573d6000803e3d6000fd5b5050505050505050505050505050565b600160149054906101000a900460ff16611d52576040517f08c379a00000000000000000000000000000000000000000000000000000000081526004018080602001828103825260258152602001806130de6025913960400191505060405180910390fd5b33611d5c8161290d565b611db1576040517f08c379a00000000000000000000000000000000000000000000000000000000081526004018080602001828103825260288152602001806130726028913960400191505060405180910390fd5b678ac7230489e80000341015611e12576040517f08c379a000000000000000000000000000000000000000000000000000000000815260040180806020018281038252603681526020018061303c6036913960400191505060405180910390fd5b600160009054906101000a900473ffffffffffffffffffffffffffffffffffffffff1673ffffffffffffffffffffffffffffffffffffffff166345f9fc78336040518263ffffffff1660e01b8152600401808273ffffffffffffffffffffffffffffffffffffffff1673ffffffffffffffffffffffffffffffffffffffff168152602001915050600060405180830381600087803b158015611eb357600080fd5b505af1158015611ec7573d6000803e3d6000fd5b5050505050565b600160149054906101000a900460ff16611f33576040517f08c379a00000000000000000000000000000000000000000000000000000000081526004018080602001828103825260258152602001806130de6025913960400191505060405180910390fd5b8560ff16600460003373ffffffffffffffffffffffffffffffffffffffff1673ffffffffffffffffffffffffffffffffffffffff168152602001908152602001600020600101600060038110611f8557fe5b602091828204019190069054906101000a900460ff1660ff16148061201257508560ff16600460003373ffffffffffffffffffffffffffffffffffffffff1673ffffffffffffffffffffffffffffffffffffffff168152602001908152602001600020600101600160038110611ff757fe5b602091828204019190069054906101000a900460ff1660ff16145b8061208557508560ff16600460003373ffffffffffffffffffffffffffffffffffffffff1673ffffffffffffffffffffffffffffffffffffffff16815260200190815260200160002060010160026003811061206a57fe5b602091828204019190069054906101000a900460ff1660ff16145b6120da576040517f08c379a000000000000000000000000000000000000000000000000000000000815260040180806020018281038252602381526020018061312c6023913960400191505060405180910390fd5b60008686868686604051602001808660ff1660ff1660f81b81526001018573ffffffffffffffffffffffffffffffffffffffff1673ffffffffffffffffffffffffffffffffffffffff1660601b815260140184848082843780830192505050828152602001955050505050506040516020818303038152906040528051906020012090506005600082815260200190815260200160002060000160149054906101000a900460ff166121d7576040517f08c379a000000000000000000000000000000000000000000000000000000000815260040180806020018281038252602f81526020018061300d602f913960400191505060405180910390fd5b6005600082815260200190815260200160002060010160008360ff1660ff1681526020019081526020016000203390806001815401808255809150509060018203906000526020600020016000909192909190916101000a81548173ffffffffffffffffffffffffffffffffffffffff021916908373ffffffffffffffffffffffffffffffffffffffff160217905550507f43c853095c2752648493c88b4baac4d580d2594ffb00c6f1d4242d844514f7838686868686604051808673ffffffffffffffffffffffffffffffffffffffff1673ffffffffffffffffffffffffffffffffffffffff168152602001806020018481526020018360ff1660ff1681526020018281038252868682818152602001925080828437600081840152601f19601f820116905080830192505050965050505050505060405180910390a160036005600083815260200190815260200160002060010160008460ff1660ff16815260200190815260200160002080549050106124ec577fe23f5229de535c091e3b7bec2665f5d698192d3b31393066e8987b7a05076b6c8686868686604051808673ffffffffffffffffffffffffffffffffffffffff1673ffffffffffffffffffffffffffffffffffffffff168152602001806020018481526020018360ff1660ff1681526020018281038252868682818152602001925080828437600081840152601f19601f820116905080830192505050965050505050505060405180910390a18160ff16601460ff1614156124eb57600061245a8787878080601f016020809104026020016040519081016040528093929190818152602001838380828437600081840152601f19601f82011690508083019250505050505050866129f0565b9050600160009054906101000a900473ffffffffffffffffffffffffffffffffffffffff1673ffffffffffffffffffffffffffffffffffffffff1663a8d81fb4826040518263ffffffff1660e01b815260040180828152602001915050600060405180830381600087803b1580156124d157600080fd5b505af11580156124e5573d6000803e3d6000fd5b50505050505b5b50505050505050565b6000600160149054906101000a900460ff16905090565b6000600160149054906101000a900460ff16612573576040517f08c379a00000000000000000000000000000000000000000000000000000000081526004018080602001828103825260258152602001806130de6025913960400191505060405180910390fd5b3361257d8161290d565b6125d2576040517f08c379a00000000000000000000000000000000000000000000000000000000081526004018080602001828103825260288152602001806130726028913960400191505060405180910390fd5b600160009054906101000a900473ffffffffffffffffffffffffffffffffffffffff1673ffffffffffffffffffffffffffffffffffffffff16635689b249336040518263ffffffff1660e01b8152600401808273ffffffffffffffffffffffffffffffffffffffff1673ffffffffffffffffffffffffffffffffffffffff16815260200191505060206040518083038186803b15801561267157600080fd5b505afa158015612685573d6000803e3d6000fd5b505050506040513d602081101561269b57600080fd5b8101908080519060200190929190505050156126ba57601491506127a7565b600160009054906101000a900473ffffffffffffffffffffffffffffffffffffffff1673ffffffffffffffffffffffffffffffffffffffff1663673448dd336040518263ffffffff1660e01b8152600401808273ffffffffffffffffffffffffffffffffffffffff1673ffffffffffffffffffffffffffffffffffffffff16815260200191505060206040518083038186803b15801561275957600080fd5b505afa15801561276d573d6000803e3d6000fd5b505050506040513d602081101561278357600080fd5b8101908080519060200190929190505050156127a257600a91506127a7565b600091505b5090565b336127b58161290d565b806127c557506127c481612aac565b5b1561281b576040517f08c379a000000000000000000000000000000000000000000000000000000000815260040180806020018281038252602381526020018061309a6023913960400191505060405180910390fd5b600160009054906101000a900473ffffffffffffffffffffffffffffffffffffffff1673ffffffffffffffffffffffffffffffffffffffff1663cb1b1a8a3385856040518463ffffffff1660e01b8152600401808473ffffffffffffffffffffffffffffffffffffffff1673ffffffffffffffffffffffffffffffffffffffff168152602001806020018281038252848482818152602001925080828437600081840152601f19601f820116905080830192505050945050505050600060405180830381600087803b1580156128f057600080fd5b505af1158015612904573d6000803e3d6000fd5b50505050505050565b6000600160009054906101000a900473ffffffffffffffffffffffffffffffffffffffff1673ffffffffffffffffffffffffffffffffffffffff16630e248a11836040518263ffffffff1660e01b8152600401808273ffffffffffffffffffffffffffffffffffffffff1673ffffffffffffffffffffffffffffffffffffffff16815260200191505060206040518083038186803b1580156129ae57600080fd5b505afa1580156129c2573d6000803e3d6000fd5b505050506040513d60208110156129d857600080fd5b81019080805190602001909291905050509050919050565b6000838383604051602001808473ffffffffffffffffffffffffffffffffffffffff1673ffffffffffffffffffffffffffffffffffffffff1660601b815260140183805190602001908083835b60208310612a605780518252602082019150602081019050602083039250612a3d565b6001836020036101000a03801982511681845116808217855250505050505090500182815260200193505050506040516020818303038152906040528051906020012090509392505050565b6000600160009054906101000a900473ffffffffffffffffffffffffffffffffffffffff1673ffffffffffffffffffffffffffffffffffffffff16631dd13a1d836040518263ffffffff1660e01b8152600401808273ffffffffffffffffffffffffffffffffffffffff1673ffffffffffffffffffffffffffffffffffffffff16815260200191505060206040518083038186803b158015612b4d57600080fd5b505afa158015612b61573d6000803e3d6000fd5b505050506040513d6020811015612b7757600080fd5b81019080805190602001909291905050509050919050565b612b97612f20565b612b9f612f20565b612ba883612d1b565b81600060038110612bb557fe5b602002019060ff16908160ff168152505080600060038110612bd357fe5b602002015181600160038110612be557fe5b602002019060ff16908160ff16815250505b80600060038110612c0457fe5b602002015160ff1681600160038110612c1957fe5b602002015160ff161415612c5357612c3083612d1b565b81600160038110612c3d57fe5b602002019060ff16908160ff1681525050612bf7565b80600160038110612c6057fe5b602002015181600260038110612c7257fe5b602002019060ff16908160ff16815250505b80600060038110612c9157fe5b602002015160ff1681600260038110612ca657fe5b602002015160ff161480612ce1575080600160038110612cc257fe5b602002015160ff1681600260038110612cd757fe5b602002015160ff16145b15612d1257612cef83612d1b565b81600260038110612cfc57fe5b602002019060ff16908160ff1681525050612c84565b80915050919050565b600080600a905060008160ff166003600081819054906101000a900460ff168092919060010191906101000a81548160ff021916908360ff16021790555060ff1643034085604051602001808381526020018273ffffffffffffffffffffffffffffffffffffffff1673ffffffffffffffffffffffffffffffffffffffff1660601b8152601401925050506040516020818303038152906040528051906020012060001c81612dc657fe5b06905060fa600360009054906101000a900460ff1660ff161115612e01576000600360006101000a81548160ff021916908360ff1602179055505b8092505050919050565b600080831415612e1e5760009050612e8b565b6000828402905082848281612e2f57fe5b0414612e86576040517f08c379a00000000000000000000000000000000000000000000000000000000081526004018080602001828103825260218152602001806130bd6021913960400191505060405180910390fd5b809150505b92915050565b6000808211612f08576040517f08c379a000000000000000000000000000000000000000000000000000000000815260040180806020018281038252601a8152602001807f536166654d6174683a206469766973696f6e206279207a65726f00000000000081525060200191505060405180910390fd5b6000828481612f1357fe5b0490508091505092915050565b6040518060600160405280600390602082028038833980820191505090505090565b826003601f01602090048101928215612fcb5791602002820160005b83821115612f9c57835183826101000a81548160ff021916908360ff1602179055509260200192600101602081600001049283019260010302612f5e565b8015612fc95782816101000a81549060ff0219169055600101602081600001049283019260010302612f9c565b505b509050612fd89190612fdc565b5090565b61300991905b8082111561300557600081816101000a81549060ff021916905550600101612fe2565b5090565b9056fe466c69676874206f722074696d657374616d7020646f206e6f74206d61746368206f7261636c6520726571756573744e6f7420656e6f7567682066756e6420616d6f756e742e2053686f756c64206265206c6172676572207468656e20313020657468657254686973206163636f756e74206973206e6f7420616e20616972706c616e65206163636f756e742e54686973206163636f756e7420697320616c726561647920726567697374657265642e536166654d6174683a206d756c7469706c69636174696f6e206f766572666c6f77436f6e74726163742069732063757272656e746c79206e6f74206f7065726174696f6e616c54686973206163636f756e74206973206e6f7420616e2070617373656e676572206163636f756e742e496e64657820646f6573206e6f74206d61746368206f7261636c6520726571756573744169726c696e65732063616e206f6e6c79207570646174652069747320666c696768742ea165627a7a723058209246894892ff04a9175c8b5515bd9c194a6015af0a7f974aa947db820ac1bb970029",
  "source": "//pragma solidity ^0.4.25;\npragma solidity >=0.4.25 <0.6.0;\n\n\n// It's important to avoid vulnerabilities due to numeric overflow bugs\n// OpenZeppelin's SafeMath library, when used correctly, protects agains such bugs\n// More info: https://www.nccgroup.trust/us/about-us/newsroom-and-events/blog/2018/november/smart-contract-insecurity-bad-arithmetic/\n\nimport \"../node_modules/openzeppelin-solidity/contracts/math/SafeMath.sol\";\nimport \"./FlightSuretyData.sol\";\n\n/************************************************** */\n/* FlightSurety Smart Contract                      */\n/************************************************** */\ncontract FlightSuretyApp {\n    using SafeMath for uint256; // Allow SafeMath functions to be called for all uint256 types (similar to \"prototype\" in Javascript)\n\n    /********************************************************************************************/\n    /*                                       DATA VARIABLES                                     */\n    /********************************************************************************************/\n\n    // Airline Registration Status Code\n    uint8 private constant STATUS_CODE_REGISTERED = 0;\n    uint8 private constant STATUS_CODE_APPROVED = 10;\n    uint8 private constant STATUS_CODE_APPROVED_FUNDED = 20;\n    uint8 private constant STATUS_CODE_REJECTED = 99;\n    // Flight status codees\n    uint8 private constant STATUS_CODE_UNKNOWN = 0;\n    uint8 private constant STATUS_CODE_ON_TIME = 10;\n    uint8 private constant STATUS_CODE_LATE_AIRLINE = 20;\n    uint8 private constant STATUS_CODE_LATE_WEATHER = 30;\n    uint8 private constant STATUS_CODE_LATE_TECHNICAL = 40;\n    uint8 private constant STATUS_CODE_LATE_OTHER = 50;\n    // Account Type\n    uint8 private constant TYPE_UNDEFINED = 0;\n    uint8 private constant TYPE_AIRLINE = 10;\n    uint8 private constant TYPE_PASSENGER = 20;\n\n    uint256 private constant CREDIT_RATE = 15;\n    uint256 private constant DIV_RATE = 10;\n\n    address payable private contractOwner;          // Account used to deploy contract\n    FlightSuretyData private flightSuretyData;\n    bool private operational = true;\n\n    /********************************************************************************************/\n    /*                                            EVENTS                                        */\n    /********************************************************************************************/\n    //event eventRegisteredAirline(address airline);\n    event eventApprovedAirline(uint8 index, address airline);\n    //event eventFundedAirline(address airline);\n\n    event eventRegisterFlight(bytes32 flightID);\n    event eventUpdateFlightStatus(address airline, bytes32 flightID, uint8 status);\n\n\n    /********************************************************************************************/\n    /*                                       FUNCTION MODIFIERS                                 */\n    /********************************************************************************************/\n\n    // Modifiers help avoid duplication of code. They are typically used to validate something\n    // before a function is allowed to be executed.\n\n    /**\n    * @dev Modifier that requires the \"operational\" boolean variable to be \"true\"\n    *      This is used on all state changing functions to pause the contract in\n    *      the event there is an issue that needs to be fixed\n    */\n    modifier requireIsOperational()\n    {\n         // Modify to call data contract's status\n        require(operational, \"Contract is currently not operational\");\n        _;  // All modifiers require an \"_\" which indicates where the function body will be added\n    }\n\n    /**\n    * @dev Modifier that requires the \"ContractOwner\" account to be the function caller\n    */\n    modifier requireContractOwner()\n    {\n        require(msg.sender == contractOwner, \"Caller is not contract owner\");\n        _;\n    }\n\n    modifier enoughFundAmount() {\n        require(msg.value >= 10 ether, 'Not enough fund amount. Should be larger then 10 ether');\n        _;\n    }\n\n    /**\n    * @dev Modifier that requires the the account is not registered yet\n    */\n    modifier onlyNewAccount(address account) {\n        require(!(_isAirline(account) || _isPassenger(account)), \"This account is already registered.\");\n        _;\n    }\n\n    /**\n    * @dev Modifier that requires the  account is airline\n    */\n    modifier onlyAirline(address account) {\n        require(_isAirline(account), \"This account is not an airplane account.\");\n        _;\n    }\n\n    /**\n    * @dev Modifier that requires the account is passenger\n    */\n    modifier onlyPassenger(address account) {\n        require(_isPassenger(account), \"This account is not an passenger account.\");\n        _;\n    }\n\n    function _isAirline(address account) private view returns (bool) {\n        return flightSuretyData.isAirline(account);\n    }\n    function _isPassenger(address account) private view returns (bool) {\n        return flightSuretyData.isPassenger(account);\n    }\n\n    function getAccountType() public view returns (uint8) {\n        if(_isAirline(msg.sender)) {\n            return TYPE_AIRLINE;\n        } else if (_isPassenger(msg.sender)) {\n            return TYPE_PASSENGER;\n        } else {\n            return TYPE_UNDEFINED;\n        }\n    }\n\n    /********************************************************************************************/\n    /*                                       CONSTRUCTOR                                        */\n    /********************************************************************************************/\n\n    /**\n    * @dev Contract constructor\n    *\n    */\n    constructor () public\n    {\n        contractOwner = msg.sender;\n        flightSuretyData = FlightSuretyData(contractOwner);\n        //flightSuretyData.addAirline(msg.sender, \"DEFAULT\");\n    }\n\n    function datacontract() public returns (bool) {\n        return flightSuretyData.isOperational();\n    }\n\n    /********************************************************************************************/\n    /*                                       UTILITY FUNCTIONS                                  */\n    /********************************************************************************************/\n\n    function isOperational()\n        public\n        view\n        returns(bool)\n    {\n        return operational;// && flightSuretyData.isOperational();  // Modify to call data contract's status\n    }\n\n    function setOperatingStatus(\n            bool mode )\n        external\n        requireContractOwner {\n\n        //flightSuretyData.setOperational(mode);\n        operational = mode;\n    }\n\n\n    /********************************************************************************************/\n    /*                                       DApps                                  */\n    /********************************************************************************************/\n\n\n    /********************************************************************************************/\n    /*                                     SMART CONTRACT FUNCTIONS                             */\n    /********************************************************************************************/\n\n   /**\n    * @dev Add an airline to the registration queue\n    *\n    */\n    function registerAirline(string calldata name)\n        external\n        onlyNewAccount(msg.sender)\n    {\n        flightSuretyData.addAirline(msg.sender, name);\n        //emit eventRegisteredAirline(msg.sender);\n    }\n\n    function approveAirline(address airlineAccount)\n        external\n        onlyAirline(msg.sender)\n    {\n        flightSuretyData.approveAirline(airlineAccount, msg.sender);\n        if ( flightSuretyData.isApproved(airlineAccount)) {\n            emit eventApprovedAirline(getRandomIndex(airlineAccount), airlineAccount);\n        }\n    }\n\n    function fund()\n        external\n        payable\n        requireIsOperational\n        onlyAirline(msg.sender)\n        enoughFundAmount\n    { // check if got enough fund or not\n        flightSuretyData.funded(msg.sender);\n        //emit eventFundedAirline(msg.sender);\n    }\n\n\n    function getAirlineStatus()\n        external\n        view\n        requireIsOperational\n        onlyAirline(msg.sender)\n        returns (uint8) {\n\n        if(flightSuretyData.isFunded(msg.sender)) {\n            return STATUS_CODE_APPROVED_FUNDED;\n        } else if(flightSuretyData.isApproved(msg.sender)) {\n            return STATUS_CODE_APPROVED;\n        } else {\n            return STATUS_CODE_REGISTERED;\n        }  // rejection is out of scope\n    }\n\n    /**\n        Flight Operation only by Airline\n     */\n   /**\n    * @dev Register a future flight for insuring.\n    *\n    */\n    function registerFlight(string calldata flight, uint256 timestamp)\n        external\n        requireIsOperational\n        onlyAirline(msg.sender)\n    {\n        bytes32 flightKey = getFlightKey(\n                                msg.sender,\n                                flight,\n                                timestamp);\n        flightProvider[flightKey] = msg.sender;\n        emit eventRegisterFlight(flightKey);\n    }\n\n    // @todo avoid other airlines to update the flight. Maybe better use /api in the oracle server\n    function updateFlightStatus(string calldata flight, uint256 timestamp, uint8 statusCode )\n        external\n        requireIsOperational\n        onlyAirline(msg.sender)\n        onlyFlightProvider(getFlightKey(msg.sender, flight, timestamp))\n    {\n        bytes32 flightKey = getFlightKey(\n                                msg.sender,\n                                flight,\n                                timestamp);\n        emit eventUpdateFlightStatus(msg.sender, flightKey, statusCode);\n    }\n\n    // From FlightKey to airline address\n    mapping(bytes32 => address) private flightProvider;\n    // Only the flight provider can operate on the flight of the airline.\n    modifier onlyFlightProvider(bytes32 flightKey) {\n        require(msg.sender == flightProvider[flightKey], \"Not a flight operator.\");\n        _;\n    }\n\n\n   /**\n    * @dev Called after oracle has updated flight status\n    *\n    */\n    function listenFlightStatuUpdatesUpdate(\n            address updater,\n            string calldata airlineName,\n            string calldata flightName,\n            uint256 timestamp,\n            uint8 statusCode)\n        external\n        requireIsOperational\n    {\n        bytes32 flightKey = getFlightKey(\n                                flightSuretyData.getAirline(airlineName),\n                                flightName,\n                                timestamp);\n        require(flightProvider[flightKey] == updater, \"Airlines can only update its flight.\");\n        //bytes32 insuranceId;\n        if( STATUS_CODE_LATE_AIRLINE == statusCode ){\n            flightSuretyData.addPayment(flightKey);\n        }\n    }\n\n    // function fetchFlightStatus(\n    //         address airline,\n    //         string calldata flight,\n    //         uint256 timestamp)\n    //     external\n    // {\n    //     uint8 index = getRandomIndex(msg.sender);\n\n    //     // Generate a unique key for storing the request\n    //     bytes32 key = keccak256(abi.encodePacked(index, airline, flight, timestamp));\n    //     oracleResponses[key] = ResponseInfo({\n    //                                             requester: msg.sender,\n    //                                             isOpen: true\n    //                                         });\n\n    //     emit OracleRequest(index, airline, flight, timestamp);\n    // }\n\n   /**\n    * @dev Add a passenger to the registration queue\n    *\n    */\n    function registerPassenger(string calldata name)\n        external\n        onlyNewAccount(msg.sender)\n    {\n        flightSuretyData.addPassenger(msg.sender, name);\n        //emit eventRegisteredAirline(msg.sender);\n    }\n\n    function buy(\n            string calldata airlineName,\n            string calldata flightName,\n            uint256 timestamp,\n            string calldata passengerName)\n        external\n        payable\n        requireIsOperational\n        onlyPassenger(msg.sender)\n    {\n        bytes32 flightKey = getFlightKey(\n                    flightSuretyData.getAirline(airlineName),\n                    flightName,\n                    timestamp);\n        uint256 amountCreditedToPassenger = msg.value.mul(CREDIT_RATE).div(DIV_RATE);\n        flightSuretyData.insurance(flightKey, passengerName, amountCreditedToPassenger);\n    }\n\n    function withdraw(\n            uint256 amount)\n        external\n        requireIsOperational\n        onlyPassenger(msg.sender)\n    {\n        flightSuretyData.withdraw(msg.sender, amount);\n    }\n\n\n// region ORACLE MANAGEMENT\n\n    // Incremented to add pseudo-randomness at various points\n    uint8 private nonce = 0;\n\n    // Fee to be paid when registering oracle\n    uint256 public constant REGISTRATION_FEE = 1 ether;\n\n    // Number of oracles that must respond for valid status\n    uint256 private constant MIN_RESPONSES = 3;\n\n\n    struct Oracle {\n        bool isRegistered;\n        uint8[3] indexes;\n    }\n\n    // Track all registered oracles\n    mapping(address => Oracle) private oracles;\n\n    // Model for responses from oracles\n    struct ResponseInfo {\n        address requester;                              // Account that requested status\n        bool isOpen;                                    // If open, oracle responses are accepted\n        mapping(uint8 => address[]) responses;          // Mapping key is the status code reported\n                                                        // This lets us group responses and identify\n                                                        // the response that majority of the oracles\n    }\n\n    // Track all oracle responses\n    // Key = hash(index, flight, timestamp)\n    mapping(bytes32 => ResponseInfo) private oracleResponses;\n\n    // Event fired each time an oracle submits a response\n    event FlightStatusInfo(address airline, string flight, uint256 timestamp, uint8 status);\n\n    event OracleReport(address airline, string flight, uint256 timestamp, uint8 status);\n\n    // Event fired when flight status request is submitted\n    // Oracles track this and if they have a matching index\n    // they fetch data and submit a response\n    event OracleRequest(uint8 index, address airline, string flight, uint256 timestamp);\n\n    // Register an oracle with the contract\n    function registerOracle ()\n        external\n        payable\n    {\n        // Require registration fee\n        require(msg.value >= REGISTRATION_FEE, \"Registration fee is required\");\n\n        uint8[3] memory indexes = generateIndexes(msg.sender);\n\n        oracles[msg.sender] = Oracle(\n            {isRegistered: true, indexes: indexes});\n    }\n\n    function getRegistrationFee()\n        public\n        pure\n        returns (uint256)\n    {\n        return REGISTRATION_FEE;\n    }\n\n    function getMyIndexes()\n        external\n        view\n        returns(uint8[3] memory)\n    {\n        require(oracles[msg.sender].isRegistered, \"Not registered as an oracle\");\n\n        return oracles[msg.sender].indexes;\n    }\n\n    // Called by oracle when a response is available to an outstanding request\n    // For the response to be accepted, there must be a pending request that is open\n    // and matches one of the three Indexes randomly assigned to the oracle at the\n    // time of registration (i.e. uninvited oracles are not welcome)\n    function submitOracleResponse(\n            uint8 index,\n            address airline,\n            string calldata flight,\n            uint256 timestamp,\n            uint8 statusCode                        )\n        external\n        requireIsOperational\n    {\n        require((oracles[msg.sender].indexes[0] == index)\n         || (oracles[msg.sender].indexes[1] == index)\n         || (oracles[msg.sender].indexes[2] == index), \"Index does not match oracle request\");\n\n        bytes32 key = keccak256(abi.encodePacked(index, airline, flight, timestamp));\n        require(oracleResponses[key].isOpen, \"Flight or timestamp do not match oracle request\");\n\n        oracleResponses[key].responses[statusCode].push(msg.sender);\n\n        // Information isn't considered verified until at least MIN_RESPONSES\n        // oracles respond with the *** same *** information\n        emit OracleReport(airline, flight, timestamp, statusCode);\n        if (oracleResponses[key].responses[statusCode].length >= MIN_RESPONSES) {\n\n            emit FlightStatusInfo(airline, flight, timestamp, statusCode);\n\n            // Handle flight status as appropriate\n\n            if( STATUS_CODE_LATE_AIRLINE == statusCode ){\n                bytes32 flightKey = getFlightKey(\n                                airline,\n                                flight,\n                                timestamp);\n                flightSuretyData.addPayment(flightKey);\n            }\n        //    processFlightStatus(airline, flight, timestamp, statusCode);\n        }\n    }\n\n    function getFlightKey(\n            address airline,\n            string memory flight,\n            uint256 timestamp)\n        pure\n        internal\n        returns(bytes32)\n    {\n        return keccak256(abi.encodePacked(airline, flight, timestamp));\n    }\n\n    // Returns array of three non-duplicating integers from 0-9\n    function generateIndexes(\n            address account)\n        internal\n        returns(uint8[3] memory)\n    {\n        uint8[3] memory indexes;\n        indexes[0] = getRandomIndex(account);\n\n        indexes[1] = indexes[0];\n        while(indexes[1] == indexes[0]) {\n            indexes[1] = getRandomIndex(account);\n        }\n\n        indexes[2] = indexes[1];\n        while((indexes[2] == indexes[0]) || (indexes[2] == indexes[1])) {\n            indexes[2] = getRandomIndex(account);\n        }\n\n        return indexes;\n    }\n\n    // Returns array of three non-duplicating integers from 0-9\n    function getRandomIndex(\n            address account)\n        internal\n        returns (uint8)\n    {\n        uint8 maxValue = 10;\n\n        // Pseudo random number...the incrementing nonce adds variation\n        uint8 random = uint8(uint256(keccak256(abi.encodePacked(blockhash(block.number - nonce++), account))) % maxValue);\n\n        if (nonce > 250) {\n            nonce = 0;  // Can only fetch blockhashes for last 256 blocks so we adapt\n        }\n\n        return random;\n    }\n\n// endregion\n\n}",
  "sourcePath": "/home/hajime/git/BlockchainDevND/projects/project_FlightSurety/contracts/FlightSuretyApp.sol",
  "compiler": {
    "name": "solc",
    "version": "0.5.8+commit.23d335f2.Emscripten.clang"
  },
  "schemaVersion": "3.0.11",
  "updatedAt": "2019-10-07T06:38:44.403Z",
  "devdoc": {
    "methods": {
      "constructor": {
        "details": "Contract constructor    "
      },
      "listenFlightStatuUpdatesUpdate(address,string,string,uint256,uint8)": {
        "details": "Called after oracle has updated flight status    "
      },
      "registerAirline(string)": {
        "details": "Add an airline to the registration queue    "
      },
      "registerFlight(string,uint256)": {
        "details": "Register a future flight for insuring.    "
      },
      "registerPassenger(string)": {
        "details": "Add a passenger to the registration queue    "
      }
    }
  },
  "userdoc": {
    "methods": {
      "isOperational()": {
        "notice": "*****************************************************************************************"
      }
    },
    "notice": "************************************************ "
  }
}