{
  "contractName": "PassengerData",
  "abi": [
    {
      "anonymous": false,
      "inputs": [
        {
          "indexed": true,
          "name": "account",
          "type": "address"
        }
      ],
      "name": "PassengerAdded",
      "type": "event"
    },
    {
      "anonymous": false,
      "inputs": [
        {
          "indexed": true,
          "name": "account",
          "type": "address"
        }
      ],
      "name": "PassengerRemoved",
      "type": "event"
    },
    {
      "constant": true,
      "inputs": [
        {
          "name": "account",
          "type": "address"
        }
      ],
      "name": "isPassenger",
      "outputs": [
        {
          "name": "",
          "type": "bool"
        }
      ],
      "payable": false,
      "stateMutability": "view",
      "type": "function"
    },
    {
      "constant": false,
      "inputs": [
        {
          "name": "account",
          "type": "address"
        },
        {
          "name": "name",
          "type": "string"
        }
      ],
      "name": "addPassenger",
      "outputs": [],
      "payable": false,
      "stateMutability": "nonpayable",
      "type": "function"
    },
    {
      "constant": false,
      "inputs": [],
      "name": "renouncePassenger",
      "outputs": [],
      "payable": false,
      "stateMutability": "nonpayable",
      "type": "function"
    },
    {
      "constant": true,
      "inputs": [
        {
          "name": "name",
          "type": "string"
        }
      ],
      "name": "getPassenger",
      "outputs": [
        {
          "name": "",
          "type": "address"
        }
      ],
      "payable": false,
      "stateMutability": "view",
      "type": "function"
    },
    {
      "constant": false,
      "inputs": [
        {
          "name": "passenger",
          "type": "address"
        },
        {
          "name": "amount",
          "type": "uint256"
        }
      ],
      "name": "withdraw",
      "outputs": [],
      "payable": false,
      "stateMutability": "nonpayable",
      "type": "function"
    }
  ],
  "bytecode": "0x608060405234801561001057600080fd5b50610a18806100206000396000f3fe608060405234801561001057600080fd5b50600436106100575760003560e01c80631dd13a1d1461005c5780639bbd7768146100b8578063c4e9bd2c146100c2578063cb1b1a8a146101bd578063f3fef3a314610256575b600080fd5b61009e6004803603602081101561007257600080fd5b81019080803573ffffffffffffffffffffffffffffffffffffffff1690602001909291905050506102a4565b604051808215151515815260200191505060405180910390f35b6100c0610306565b005b61017b600480360360208110156100d857600080fd5b81019080803590602001906401000000008111156100f557600080fd5b82018360208201111561010757600080fd5b8035906020019184600183028401116401000000008311171561012957600080fd5b91908080601f016020809104026020016040519081016040528093929190818152602001838380828437600081840152601f19601f820116905080830192505050505050509192919290505050610311565b604051808273ffffffffffffffffffffffffffffffffffffffff1673ffffffffffffffffffffffffffffffffffffffff16815260200191505060405180910390f35b610254600480360360408110156101d357600080fd5b81019080803573ffffffffffffffffffffffffffffffffffffffff1690602001909291908035906020019064010000000081111561021057600080fd5b82018360208201111561022257600080fd5b8035906020019184600183028401116401000000008311171561024457600080fd5b90919293919293905050506103a4565b005b6102a26004803603604081101561026c57600080fd5b81019080803573ffffffffffffffffffffffffffffffffffffffff169060200190929190803590602001909291905050506103f7565b005b6000806000808473ffffffffffffffffffffffffffffffffffffffff1673ffffffffffffffffffffffffffffffffffffffff16815260200190815260200160002060000180546001816001161561010002031660029004905014159050919050565b61030f3361054a565b565b60006001826040518082805190602001908083835b602083106103495780518252602082019150602081019050602083039250610326565b6001836020036101000a038019825116818451168082178552505050505050905001915050908152602001604051809103902060009054906101000a900473ffffffffffffffffffffffffffffffffffffffff169050919050565b6103f28383838080601f016020809104026020016040519081016040528093929190818152602001838380828437600081840152601f19601f820116905080830192505050505050506106b5565b505050565b81610401816102a4565b61040a57600080fd5b6000600260008573ffffffffffffffffffffffffffffffffffffffff1673ffffffffffffffffffffffffffffffffffffffff168152602001908152602001600020549050828110156104a7576040517f08c379a00000000000000000000000000000000000000000000000000000000081526004018080602001828103825260378152602001806109b66037913960400191505060405180910390fd5b6104ba838261083f90919063ffffffff16565b600260008673ffffffffffffffffffffffffffffffffffffffff1673ffffffffffffffffffffffffffffffffffffffff168152602001908152602001600020819055508373ffffffffffffffffffffffffffffffffffffffff166108fc849081150290604051600060405180830381858888f19350505050158015610543573d6000803e3d6000fd5b5050505050565b60016000808373ffffffffffffffffffffffffffffffffffffffff1673ffffffffffffffffffffffffffffffffffffffff16815260200190815260200160002060000160405180828054600181600116156101000203166002900480156105e85780601f106105c65761010080835404028352918201916105e8565b820191906000526020600020905b8154815290600101906020018083116105d4575b5050915050908152602001604051809103902060006101000a81549073ffffffffffffffffffffffffffffffffffffffff02191690556000808273ffffffffffffffffffffffffffffffffffffffff1673ffffffffffffffffffffffffffffffffffffffff1681526020019081526020016000206000808201600061066d91906108c8565b50508073ffffffffffffffffffffffffffffffffffffffff167f97444fa4b41e1f5173a20f39d2102723bc0067ea6342d82913e0b07dc7b19a3d60405160405180910390a250565b806000808473ffffffffffffffffffffffffffffffffffffffff1673ffffffffffffffffffffffffffffffffffffffff168152602001908152602001600020600001908051906020019061070a929190610910565b50816001826040518082805190602001908083835b60208310610742578051825260208201915060208101905060208303925061071f565b6001836020036101000a038019825116818451168082178552505050505050905001915050908152602001604051809103902060006101000a81548173ffffffffffffffffffffffffffffffffffffffff021916908373ffffffffffffffffffffffffffffffffffffffff1602179055506000600260008473ffffffffffffffffffffffffffffffffffffffff1673ffffffffffffffffffffffffffffffffffffffff168152602001908152602001600020819055508173ffffffffffffffffffffffffffffffffffffffff167f621e907b0b61084a1f2660c5627f80111a59ab9291ce55345a6145057946e9cc60405160405180910390a25050565b6000828211156108b7576040517f08c379a000000000000000000000000000000000000000000000000000000000815260040180806020018281038252601e8152602001807f536166654d6174683a207375627472616374696f6e206f766572666c6f77000081525060200191505060405180910390fd5b600082840390508091505092915050565b50805460018160011615610100020316600290046000825580601f106108ee575061090d565b601f01602090049060005260206000209081019061090c9190610990565b5b50565b828054600181600116156101000203166002900490600052602060002090601f016020900481019282601f1061095157805160ff191683800117855561097f565b8280016001018555821561097f579182015b8281111561097e578251825591602001919060010190610963565b5b50905061098c9190610990565b5090565b6109b291905b808211156109ae576000816000905550600101610996565b5090565b9056fe50617373656e676572732063616e6e6f742072657175657374206d6f7265207468616e20776974686472617761626c6520616d6f756e74a165627a7a72305820a4557cac5ab911995924ad014fc1b718a17afdc4311816f155cd38766df2defb0029",
  "source": "//pragma solidity ^0.4.24;\npragma solidity >=0.4.21 <0.6.0;\n\nimport \"../../node_modules/openzeppelin-solidity/contracts/math/SafeMath.sol\";\n\n// Define a contract 'PassengerRole' to manage this role - add, remove, check\ncontract PassengerData {\n  using SafeMath for uint256; // Allow SafeMath functions to be called for all uint256 types (similar to \"prototype\" in Javascript)\n  struct Passenger {\n    string name;\n  }\n  mapping(address => Passenger) private passengers;\n  mapping(string => address payable) private passengerByName;\n  mapping(address => uint) private withdrawable;\n\n  // Define 2 events, one for Adding, and other for Removing\n  event PassengerAdded(address indexed account);\n  event PassengerRemoved(address indexed account);\n\n  // constructor() public {\n  //   ;\n  // }\n\n  // Define a modifier that checks to see if msg.sender has the appropriate role\n  modifier onlyPassenger(address account) {\n    require(isPassenger(account));\n    _;\n  }\n\n  // Define a function 'isPassenger' to check this role\n  function isPassenger(address account) public view returns (bool) {\n    return (bytes(passengers[account].name).length != 0);\n  }\n\n  // Define a function 'addPassenger' that adds this role\n  function addPassenger(address payable account, string calldata name) external {\n    _addPassenger(account, name);\n  }\n\n  // Define a function 'renouncePassenger' to renounce this role\n  function renouncePassenger() public {\n    _removePassenger(msg.sender);\n  }\n\n  // Define an internal function '_addPassenger' to add this role, called by 'addPassenger'\n  function _addPassenger(address payable account, string memory name) private {\n    passengers[account].name = name;\n    passengerByName[name] = account;\n    withdrawable[account] = 0;\n    emit PassengerAdded(account);\n  }\n\n  // Define an internal function '_removePassenger' to remove this role, called by 'removePassenger'\n  function _removePassenger(address account) private {\n    delete passengerByName[passengers[account].name];\n    delete passengers[account];\n    emit PassengerRemoved(account);\n  }\n\n  function getPassenger(string memory name)\n    public\n    view\n    returns (address)\n  {\n    return passengerByName[name];\n  }\n\n  function pay(string memory passengerName, uint256 payment)\n    internal\n    onlyPassenger(passengerByName[passengerName])\n  {\n    address payable passenger = passengerByName[passengerName];\n    uint256 currentAmount = withdrawable[passenger];\n    withdrawable[passenger] = currentAmount.add(payment);\n  }\n\n  function withdraw(address payable passenger, uint256 amount)\n    external\n    onlyPassenger(passenger)\n  {\n    uint256 currentAmount = withdrawable[passenger];\n    require(currentAmount >= amount, \"Passengers cannot request more than withdrawable amount\");\n    withdrawable[passenger] = currentAmount.sub(amount);\n    passenger.transfer(amount);\n  }\n\n}",
  "sourcePath": "/home/hajime/git/BlockchainDevND/projects/project_FlightSurety/contracts/accesscontrol/PassengerData.sol",
  "compiler": {
    "name": "solc",
    "version": "0.5.8+commit.23d335f2.Emscripten.clang"
  },
  "schemaVersion": "3.0.11",
  "updatedAt": "2019-09-26T08:04:12.661Z",
  "devdoc": {
    "methods": {}
  },
  "userdoc": {
    "methods": {}
  }
}