{
  "contractName": "AirlineData",
  "abi": [
    {
      "constant": true,
      "inputs": [
        {
          "name": "account",
          "type": "address"
        }
      ],
      "name": "isApproved",
      "outputs": [
        {
          "name": "",
          "type": "bool"
        }
      ],
      "payable": false,
      "stateMutability": "view",
      "type": "function"
    },
    {
      "constant": true,
      "inputs": [
        {
          "name": "account",
          "type": "address"
        }
      ],
      "name": "isFunded",
      "outputs": [
        {
          "name": "",
          "type": "bool"
        }
      ],
      "payable": false,
      "stateMutability": "view",
      "type": "function"
    },
    {
      "constant": true,
      "inputs": [
        {
          "name": "account",
          "type": "address"
        }
      ],
      "name": "isAirline",
      "outputs": [
        {
          "name": "",
          "type": "bool"
        }
      ],
      "payable": false,
      "stateMutability": "view",
      "type": "function"
    },
    {
      "constant": false,
      "inputs": [
        {
          "name": "name",
          "type": "string"
        },
        {
          "name": "account",
          "type": "address"
        },
        {
          "name": "accountRegisterBy",
          "type": "address"
        }
      ],
      "name": "addAirline",
      "outputs": [],
      "payable": false,
      "stateMutability": "nonpayable",
      "type": "function"
    },
    {
      "constant": false,
      "inputs": [
        {
          "name": "account",
          "type": "address"
        }
      ],
      "name": "renounceAirline",
      "outputs": [],
      "payable": false,
      "stateMutability": "nonpayable",
      "type": "function"
    },
    {
      "constant": true,
      "inputs": [
        {
          "name": "name",
          "type": "string"
        }
      ],
      "name": "getAirline",
      "outputs": [
        {
          "name": "",
          "type": "address"
        }
      ],
      "payable": false,
      "stateMutability": "view",
      "type": "function"
    },
    {
      "constant": false,
      "inputs": [
        {
          "name": "account",
          "type": "address"
        },
        {
          "name": "approver",
          "type": "address"
        }
      ],
      "name": "approveAirline",
      "outputs": [],
      "payable": false,
      "stateMutability": "nonpayable",
      "type": "function"
    },
    {
      "constant": false,
      "inputs": [
        {
          "name": "account",
          "type": "address"
        }
      ],
      "name": "funded",
      "outputs": [],
      "payable": false,
      "stateMutability": "nonpayable",
      "type": "function"
    }
  ],
  "bytecode": "0x6080604052600060035534801561001557600080fd5b506112df806100256000396000f3fe608060405234801561001057600080fd5b50600436106100885760003560e01c80636c8157ac1161005b5780636c8157ac146101e557806372dd8bcb1461029e5780638e6d88ca14610302578063a478bbe9146103bb57610088565b80630e248a111461008d57806345f9fc78146100e95780635689b2491461012d578063673448dd14610189575b600080fd5b6100cf600480360360208110156100a357600080fd5b81019080803573ffffffffffffffffffffffffffffffffffffffff1690602001909291905050506103ff565b604051808215151515815260200191505060405180910390f35b61012b600480360360208110156100ff57600080fd5b81019080803573ffffffffffffffffffffffffffffffffffffffff169060200190929190505050610460565b005b61016f6004803603602081101561014357600080fd5b81019080803573ffffffffffffffffffffffffffffffffffffffff1690602001909291905050506105b8565b604051808215151515815260200191505060405180910390f35b6101cb6004803603602081101561019f57600080fd5b81019080803573ffffffffffffffffffffffffffffffffffffffff169060200190929190505050610610565b604051808215151515815260200191505060405180910390f35b61029c600480360360608110156101fb57600080fd5b810190808035906020019064010000000081111561021857600080fd5b82018360208201111561022a57600080fd5b8035906020019184600183028401116401000000008311171561024c57600080fd5b9091929391929390803573ffffffffffffffffffffffffffffffffffffffff169060200190929190803573ffffffffffffffffffffffffffffffffffffffff169060200190929190505050610668565b005b610300600480360360408110156102b457600080fd5b81019080803573ffffffffffffffffffffffffffffffffffffffff169060200190929190803573ffffffffffffffffffffffffffffffffffffffff1690602001909291905050506106bd565b005b6103796004803603602081101561031857600080fd5b810190808035906020019064010000000081111561033557600080fd5b82018360208201111561034757600080fd5b8035906020019184600183028401116401000000008311171561036957600080fd5b9091929391929390505050610c36565b604051808273ffffffffffffffffffffffffffffffffffffffff1673ffffffffffffffffffffffffffffffffffffffff16815260200191505060405180910390f35b6103fd600480360360208110156103d157600080fd5b81019080803573ffffffffffffffffffffffffffffffffffffffff169060200190929190505050610c88565b005b6000806000808473ffffffffffffffffffffffffffffffffffffffff1673ffffffffffffffffffffffffffffffffffffffff168152602001908152602001600020600001805460018160011615610100020316600290049050119050919050565b8061046a816103ff565b6104dc576040517f08c379a000000000000000000000000000000000000000000000000000000000815260040180806020018281038252600e8152602001807f4e6f7420616e206169726c696e6500000000000000000000000000000000000081525060200191505060405180910390fd5b816104e6816105b8565b15610559576040517f08c379a000000000000000000000000000000000000000000000000000000000815260040180806020018281038252600e8152602001807f416c72656164792066756e64656400000000000000000000000000000000000081525060200191505060405180910390fd5b60016000808573ffffffffffffffffffffffffffffffffffffffff1673ffffffffffffffffffffffffffffffffffffffff16815260200190815260200160002060010160016101000a81548160ff021916908315150217905550505050565b60008060008373ffffffffffffffffffffffffffffffffffffffff1673ffffffffffffffffffffffffffffffffffffffff16815260200190815260200160002060010160019054906101000a900460ff169050919050565b60008060008373ffffffffffffffffffffffffffffffffffffffff1673ffffffffffffffffffffffffffffffffffffffff16815260200190815260200160002060010160009054906101000a900460ff169050919050565b6106b784848080601f016020809104026020016040519081016040528093929190818152602001838380828437600081840152601f19601f820116905080830192505050505050508383610c94565b50505050565b816106c7816103ff565b610739576040517f08c379a000000000000000000000000000000000000000000000000000000000815260040180806020018281038252600e8152602001807f4e6f7420616e206169726c696e6500000000000000000000000000000000000081525060200191505060405180910390fd5b81610743816103ff565b6107b5576040517f08c379a000000000000000000000000000000000000000000000000000000000815260040180806020018281038252600e8152602001807f4e6f7420616e206169726c696e6500000000000000000000000000000000000081525060200191505060405180910390fd5b826107bf816105b8565b610831576040517f08c379a000000000000000000000000000000000000000000000000000000000815260040180806020018281038252600a8152602001807f4e6f742066756e6465640000000000000000000000000000000000000000000081525060200191505060405180910390fd5b8484600160008373ffffffffffffffffffffffffffffffffffffffff1673ffffffffffffffffffffffffffffffffffffffff16815260200190815260200160002060008273ffffffffffffffffffffffffffffffffffffffff1673ffffffffffffffffffffffffffffffffffffffff16815260200190815260200160002060009054906101000a900460ff1615610913576040517f08c379a000000000000000000000000000000000000000000000000000000000815260040180806020018281038252602b815260200180611238602b913960400191505060405180910390fd5b8573ffffffffffffffffffffffffffffffffffffffff168773ffffffffffffffffffffffffffffffffffffffff1614156109b5576040517f08c379a00000000000000000000000000000000000000000000000000000000081526004018080602001828103825260138152602001807f43616e6e6f7420617070726f76652073656c660000000000000000000000000081525060200191505060405180910390fd5b6000808873ffffffffffffffffffffffffffffffffffffffff1673ffffffffffffffffffffffffffffffffffffffff1681526020019081526020016000206002016000815480929190600101919050555060018060008973ffffffffffffffffffffffffffffffffffffffff1673ffffffffffffffffffffffffffffffffffffffff16815260200190815260200160002060008873ffffffffffffffffffffffffffffffffffffffff1673ffffffffffffffffffffffffffffffffffffffff16815260200190815260200160002060006101000a81548160ff021916908315150217905550610bcd6000808973ffffffffffffffffffffffffffffffffffffffff1673ffffffffffffffffffffffffffffffffffffffff168152602001908152602001600020604051806080016040529081600082018054600181600116156101000203166002900480601f016020809104026020016040519081016040528092919081815260200182805460018160011615610100020316600290048015610b7f5780601f10610b5457610100808354040283529160200191610b7f565b820191906000526020600020905b815481529060010190602001808311610b6257829003601f168201915b505050505081526020016001820160009054906101000a900460ff161515151581526020016001820160019054906101000a900460ff16151515158152602001600282015481525050611081565b15610c2d5760016000808973ffffffffffffffffffffffffffffffffffffffff1673ffffffffffffffffffffffffffffffffffffffff16815260200190815260200160002060010160006101000a81548160ff0219169083151502179055505b50505050505050565b600060028383604051808383808284378083019250505092505050908152602001604051809103902060009054906101000a900473ffffffffffffffffffffffffffffffffffffffff16905092915050565b610c91816110a5565b50565b600083511415610cef576040517f08c379a00000000000000000000000000000000000000000000000000000000081526004018080602001828103825260218152602001806112636021913960400191505060405180910390fd5b6000600354118015610d0357506004600354105b15610d6757610d1181610610565b610d66576040517f08c379a00000000000000000000000000000000000000000000000000000000081526004018080602001828103825260308152602001806112846030913960400191505060405180910390fd5b5b600360008154809291906001019190505550604051806080016040528084815260200160001515815260200160001515815260200160008152506000808473ffffffffffffffffffffffffffffffffffffffff1673ffffffffffffffffffffffffffffffffffffffff1681526020019081526020016000206000820151816000019080519060200190610dfb92919061114a565b5060208201518160010160006101000a81548160ff02191690831515021790555060408201518160010160016101000a81548160ff02191690831515021790555060608201518160020155905050610f7c6000808473ffffffffffffffffffffffffffffffffffffffff1673ffffffffffffffffffffffffffffffffffffffff168152602001908152602001600020604051806080016040529081600082018054600181600116156101000203166002900480601f016020809104026020016040519081016040528092919081815260200182805460018160011615610100020316600290048015610f2e5780601f10610f0357610100808354040283529160200191610f2e565b820191906000526020600020905b815481529060010190602001808311610f1157829003601f168201915b505050505081526020016001820160009054906101000a900460ff161515151581526020016001820160019054906101000a900460ff16151515158152602001600282015481525050611081565b6000808473ffffffffffffffffffffffffffffffffffffffff1673ffffffffffffffffffffffffffffffffffffffff16815260200190815260200160002060010160006101000a81548160ff021916908315150217905550816002846040518082805190602001908083835b6020831061100b5780518252602082019150602081019050602083039250610fe8565b6001836020036101000a038019825116818451168082178552505050505050905001915050908152602001604051809103902060006101000a81548173ffffffffffffffffffffffffffffffffffffffff021916908373ffffffffffffffffffffffffffffffffffffffff160217905550505050565b600061108b61113c565b8061109e57506003548260600151600202115b9050919050565b6000808273ffffffffffffffffffffffffffffffffffffffff1673ffffffffffffffffffffffffffffffffffffffff168152602001908152602001600020600080820160006110f491906111ca565b6001820160006101000a81549060ff02191690556001820160016101000a81549060ff0219169055600282016000905550506003600081548092919060019003919050555050565b600060046003541115905090565b828054600181600116156101000203166002900490600052602060002090601f016020900481019282601f1061118b57805160ff19168380011785556111b9565b828001600101855582156111b9579182015b828111156111b857825182559160200191906001019061119d565b5b5090506111c69190611212565b5090565b50805460018160011615610100020316600290046000825580601f106111f0575061120f565b601f01602090049060005260206000209081019061120e9190611212565b5b50565b61123491905b80821115611230576000816000905550600101611218565b5090565b9056fe5468697320617070726f76657220616c726561647920617070726f7665642074686973206169726c696e654169726c696e6520636f6d70616e79206e616d65206973206d616e6461746f72794f6e6c79206578697374696e67206169726c696e65206d61792072656769737465722061206e6577206169726c696e65a165627a7a72305820d058da79feb85857237a4cc33221d1a148c46ef4e55b695f2e8dbbf3388d37950029",
  "source": "//pragma solidity ^0.4.24;\npragma solidity >=0.4.21 <0.6.0;\n\n// Define a contract 'AirlineRole' to manage this role - add, remove, check\ncontract AirlineData {\n\n  struct Airline {\n    string name;\n    bool isApproved;\n    bool isFunded;\n    uint numOfApprovers;\n  }\n  mapping(address => Airline) private airlines;\n  mapping(address => mapping(address => bool)) approved;\n  mapping(string => address) airlineByName;\n\n  uint private entries = 0;\n  uint constant private minimumAirlines = 4;                     // number of airlines that can be added without consensus\n\n  // Define 2 events, one for Adding, and other for Removing\n  //event AirlineAdded(address indexed account);\n  //event AirlineRemoved(address indexed account);\n  //event AirlineApproved(address indexed account);\n  //event AirlineFunded(address indexed account);\n\n  // // In the constructor make the address that deploys this contract the 1st Airline\n  // constructor() public {\n  //   // contractOwner = msg.sender;\n  //   //_addAirline(msg.sender);\n  // }\n\n  // Define a modifier that checks to see if msg.sender has the appropriate role\n  modifier onlyAirline(address account) {\n    require(isAirline(account), \"Not an airline\");\n    _;\n  }\n\n  modifier onlyApproved(address account) {\n    require(isApproved(account), \"No Approved\");\n    _;\n  }\n\n  modifier firstApproved(address account, address approver) {\n    require(!approved[account][approver],  \"This approver already approved this airline\");\n    _;\n  }\n\n  modifier onlyFunded(address account) {\n    require(isFunded(account), \"Not funded\");\n    _;\n  }\n\n  modifier notYetFunded(address account) {\n    require(!isFunded(account), \"Already funded\");\n    _;\n  }\n\n  function isApproved(address account)\n    public\n    view\n    returns (bool) {\n    return airlines[account].isApproved;\n  }\n\n  function isFunded(address account)\n    public\n    view\n    returns (bool) {\n    return airlines[account].isFunded;\n  }\n\n  // Define a function 'isAirline' to check this role\n  function isAirline(address account) public view returns (bool) {\n    return (bytes(airlines[account].name).length > 0);\n  }\n\n  // Define a function 'addAirline' that adds this role\n  function addAirline(\n      string calldata name,\n      address account,\n      address accountRegisterBy)\n    external\n  {\n    _addAirline(name, account, accountRegisterBy);\n  }\n\n  // Define a function 'renounceAirline' to renounce this role\n  function renounceAirline(address account) external {\n    _removeAirline(account);\n  }\n\n  // Define an internal function '_addAirline' to add this role, called by 'addAirline'\n  function _addAirline(\n      string memory _name,\n      address account,\n      address accountRegisterBy)\n    internal {\n    require(bytes(_name).length != 0, \"Airline company name is mandatory\");\n    if ((entries > 0) && (entries < 4)) { // initial airline is automatically resigered, but  others should be registered by other.already added.\n      require(isApproved(accountRegisterBy), \"Only existing airline may register a new airline\");\n    }\n\n    entries++;\n    airlines[account] = Airline({name : _name, isApproved : false, isFunded : false, numOfApprovers : 0});\n    airlines[account].isApproved = _approvable(airlines[account]); // onlyt true when _lessThanMinimum() is true\n    airlineByName[_name] = account;\n\n    //emit AirlineAdded(account);\n  }\n\n  // Define an internal function '_removeAirline' to remove this role, called by 'removeAirline'\n  function _removeAirline(address account) private {\n    delete airlines[account];\n    entries--;\n\n    //emit AirlineRemoved(account);\n  }\n\n  function getAirline(string calldata name)\n    external\n    view\n    returns (address)\n  {\n    return airlineByName[name];\n  }\n\n  function _lessThanMinimum()\n    private\n    view\n    returns (bool) {\n    return (entries <= minimumAirlines);\n  }\n\n  function _approvable(Airline memory airline)\n    private\n    view\n    returns (bool) {\n    return _lessThanMinimum() || (2 * airline.numOfApprovers > entries);\n  }\n\n  function approveAirline(address account, address approver)\n    external\n    onlyAirline(account)\n    onlyAirline(approver)\n    onlyFunded(approver)\n    firstApproved(account, approver) {\n    require(account != approver, \"Cannot approve self\");\n    airlines[account].numOfApprovers++;\n    approved[account][approver] = true;\n    if( _approvable(airlines[account])) {\n      airlines[account].isApproved = true;\n      //emit AirlineApproved(account);\n    }\n  }\n\n  function funded(address account)\n    external\n    onlyAirline(account)\n    notYetFunded(account) {\n    airlines[account].isFunded = true;\n    //emit AirlineFunded(account);\n  }\n}",
  "sourcePath": "/home/hajime/git/BlockchainDevND/projects/project_FlightSurety/contracts/AirlineData.sol",
  "compiler": {
    "name": "solc",
    "version": "0.5.8+commit.23d335f2.Emscripten.clang"
  },
  "schemaVersion": "3.0.16",
  "updatedAt": "2019-10-23T03:35:40.273Z",
  "devdoc": {
    "methods": {}
  },
  "userdoc": {
    "methods": {}
  }
}