{
  "contractName": "AirlineData",
  "abi": [
    {
      "constant": true,
      "inputs": [
        {
          "name": "account",
          "type": "address"
        }
      ],
      "name": "isApproved",
      "outputs": [
        {
          "name": "",
          "type": "bool"
        }
      ],
      "payable": false,
      "stateMutability": "view",
      "type": "function"
    },
    {
      "constant": true,
      "inputs": [
        {
          "name": "account",
          "type": "address"
        }
      ],
      "name": "isFunded",
      "outputs": [
        {
          "name": "",
          "type": "bool"
        }
      ],
      "payable": false,
      "stateMutability": "view",
      "type": "function"
    },
    {
      "constant": true,
      "inputs": [
        {
          "name": "account",
          "type": "address"
        }
      ],
      "name": "isAirline",
      "outputs": [
        {
          "name": "",
          "type": "bool"
        }
      ],
      "payable": false,
      "stateMutability": "view",
      "type": "function"
    },
    {
      "constant": false,
      "inputs": [
        {
          "name": "account",
          "type": "address"
        },
        {
          "name": "name",
          "type": "string"
        }
      ],
      "name": "addAirline",
      "outputs": [],
      "payable": false,
      "stateMutability": "nonpayable",
      "type": "function"
    },
    {
      "constant": false,
      "inputs": [
        {
          "name": "account",
          "type": "address"
        }
      ],
      "name": "renounceAirline",
      "outputs": [],
      "payable": false,
      "stateMutability": "nonpayable",
      "type": "function"
    },
    {
      "constant": true,
      "inputs": [
        {
          "name": "name",
          "type": "string"
        }
      ],
      "name": "getAirline",
      "outputs": [
        {
          "name": "",
          "type": "address"
        }
      ],
      "payable": false,
      "stateMutability": "view",
      "type": "function"
    },
    {
      "constant": false,
      "inputs": [
        {
          "name": "account",
          "type": "address"
        },
        {
          "name": "approver",
          "type": "address"
        }
      ],
      "name": "approveAirline",
      "outputs": [],
      "payable": false,
      "stateMutability": "nonpayable",
      "type": "function"
    },
    {
      "constant": false,
      "inputs": [
        {
          "name": "account",
          "type": "address"
        }
      ],
      "name": "funded",
      "outputs": [],
      "payable": false,
      "stateMutability": "nonpayable",
      "type": "function"
    }
  ],
  "bytecode": "0x6080604052600060035534801561001557600080fd5b50611211806100256000396000f3fe608060405234801561001057600080fd5b50600436106100885760003560e01c8063673448dd1161005b578063673448dd1461022257806372dd8bcb1461027e5780638e6d88ca146102e2578063a478bbe91461039b57610088565b80630e248a111461008d57806329df66cc146100e957806345f9fc78146101825780635689b249146101c6575b600080fd5b6100cf600480360360208110156100a357600080fd5b81019080803573ffffffffffffffffffffffffffffffffffffffff1690602001909291905050506103df565b604051808215151515815260200191505060405180910390f35b610180600480360360408110156100ff57600080fd5b81019080803573ffffffffffffffffffffffffffffffffffffffff1690602001909291908035906020019064010000000081111561013c57600080fd5b82018360208201111561014e57600080fd5b8035906020019184600183028401116401000000008311171561017057600080fd5b9091929391929390505050610441565b005b6101c46004803603602081101561019857600080fd5b81019080803573ffffffffffffffffffffffffffffffffffffffff169060200190929190505050610494565b005b610208600480360360208110156101dc57600080fd5b81019080803573ffffffffffffffffffffffffffffffffffffffff1690602001909291905050506105ec565b604051808215151515815260200191505060405180910390f35b6102646004803603602081101561023857600080fd5b81019080803573ffffffffffffffffffffffffffffffffffffffff169060200190929190505050610644565b604051808215151515815260200191505060405180910390f35b6102e06004803603604081101561029457600080fd5b81019080803573ffffffffffffffffffffffffffffffffffffffff169060200190929190803573ffffffffffffffffffffffffffffffffffffffff16906020019092919050505061069c565b005b610359600480360360208110156102f857600080fd5b810190808035906020019064010000000081111561031557600080fd5b82018360208201111561032757600080fd5b8035906020019184600183028401116401000000008311171561034957600080fd5b9091929391929390505050610c15565b604051808273ffffffffffffffffffffffffffffffffffffffff1673ffffffffffffffffffffffffffffffffffffffff16815260200191505060405180910390f35b6103dd600480360360208110156103b157600080fd5b81019080803573ffffffffffffffffffffffffffffffffffffffff169060200190929190505050610c67565b005b6000806000808473ffffffffffffffffffffffffffffffffffffffff1673ffffffffffffffffffffffffffffffffffffffff16815260200190815260200160002060000180546001816001161561010002031660029004905014159050919050565b61048f8383838080601f016020809104026020016040519081016040528093929190818152602001838380828437600081840152601f19601f82011690508083019250505050505050610c73565b505050565b8061049e816103df565b610510576040517f08c379a000000000000000000000000000000000000000000000000000000000815260040180806020018281038252600e8152602001807f4e6f7420616e206169726c696e6500000000000000000000000000000000000081525060200191505060405180910390fd5b8161051a816105ec565b1561058d576040517f08c379a000000000000000000000000000000000000000000000000000000000815260040180806020018281038252600e8152602001807f416c72656164792066756e64656400000000000000000000000000000000000081525060200191505060405180910390fd5b60016000808573ffffffffffffffffffffffffffffffffffffffff1673ffffffffffffffffffffffffffffffffffffffff16815260200190815260200160002060010160016101000a81548160ff021916908315150217905550505050565b60008060008373ffffffffffffffffffffffffffffffffffffffff1673ffffffffffffffffffffffffffffffffffffffff16815260200190815260200160002060010160019054906101000a900460ff169050919050565b60008060008373ffffffffffffffffffffffffffffffffffffffff1673ffffffffffffffffffffffffffffffffffffffff16815260200190815260200160002060010160009054906101000a900460ff169050919050565b816106a6816103df565b610718576040517f08c379a000000000000000000000000000000000000000000000000000000000815260040180806020018281038252600e8152602001807f4e6f7420616e206169726c696e6500000000000000000000000000000000000081525060200191505060405180910390fd5b81610722816103df565b610794576040517f08c379a000000000000000000000000000000000000000000000000000000000815260040180806020018281038252600e8152602001807f4e6f7420616e206169726c696e6500000000000000000000000000000000000081525060200191505060405180910390fd5b8261079e816105ec565b610810576040517f08c379a000000000000000000000000000000000000000000000000000000000815260040180806020018281038252600a8152602001807f4e6f742066756e6465640000000000000000000000000000000000000000000081525060200191505060405180910390fd5b8484600160008373ffffffffffffffffffffffffffffffffffffffff1673ffffffffffffffffffffffffffffffffffffffff16815260200190815260200160002060008273ffffffffffffffffffffffffffffffffffffffff1673ffffffffffffffffffffffffffffffffffffffff16815260200190815260200160002060009054906101000a900460ff16156108f2576040517f08c379a000000000000000000000000000000000000000000000000000000000815260040180806020018281038252602b8152602001806111bb602b913960400191505060405180910390fd5b8573ffffffffffffffffffffffffffffffffffffffff168773ffffffffffffffffffffffffffffffffffffffff161415610994576040517f08c379a00000000000000000000000000000000000000000000000000000000081526004018080602001828103825260138152602001807f43616e6e6f7420617070726f76652073656c660000000000000000000000000081525060200191505060405180910390fd5b6000808873ffffffffffffffffffffffffffffffffffffffff1673ffffffffffffffffffffffffffffffffffffffff1681526020019081526020016000206002016000815480929190600101919050555060018060008973ffffffffffffffffffffffffffffffffffffffff1673ffffffffffffffffffffffffffffffffffffffff16815260200190815260200160002060008873ffffffffffffffffffffffffffffffffffffffff1673ffffffffffffffffffffffffffffffffffffffff16815260200190815260200160002060006101000a81548160ff021916908315150217905550610bac6000808973ffffffffffffffffffffffffffffffffffffffff1673ffffffffffffffffffffffffffffffffffffffff168152602001908152602001600020604051806080016040529081600082018054600181600116156101000203166002900480601f016020809104026020016040519081016040528092919081815260200182805460018160011615610100020316600290048015610b5e5780601f10610b3357610100808354040283529160200191610b5e565b820191906000526020600020905b815481529060010190602001808311610b4157829003601f168201915b505050505081526020016001820160009054906101000a900460ff161515151581526020016001820160019054906101000a900460ff16151515158152602001600282015481525050611004565b15610c0c5760016000808973ffffffffffffffffffffffffffffffffffffffff1673ffffffffffffffffffffffffffffffffffffffff16815260200190815260200160002060010160006101000a81548160ff0219169083151502179055505b50505050505050565b600060028383604051808383808284378083019250505092505050908152602001604051809103902060009054906101000a900473ffffffffffffffffffffffffffffffffffffffff16905092915050565b610c7081611028565b50565b600081511415610ceb576040517f08c379a00000000000000000000000000000000000000000000000000000000081526004018080602001828103825260208152602001807f4169726c696e6520636f6d70616e7920616d65206973206d616e6461746f727981525060200191505060405180910390fd5b600360008154809291906001019190505550604051806080016040528082815260200160001515815260200160001515815260200160008152506000808473ffffffffffffffffffffffffffffffffffffffff1673ffffffffffffffffffffffffffffffffffffffff1681526020019081526020016000206000820151816000019080519060200190610d7f9291906110cd565b5060208201518160010160006101000a81548160ff02191690831515021790555060408201518160010160016101000a81548160ff02191690831515021790555060608201518160020155905050610f006000808473ffffffffffffffffffffffffffffffffffffffff1673ffffffffffffffffffffffffffffffffffffffff168152602001908152602001600020604051806080016040529081600082018054600181600116156101000203166002900480601f016020809104026020016040519081016040528092919081815260200182805460018160011615610100020316600290048015610eb25780601f10610e8757610100808354040283529160200191610eb2565b820191906000526020600020905b815481529060010190602001808311610e9557829003601f168201915b505050505081526020016001820160009054906101000a900460ff161515151581526020016001820160019054906101000a900460ff16151515158152602001600282015481525050611004565b6000808473ffffffffffffffffffffffffffffffffffffffff1673ffffffffffffffffffffffffffffffffffffffff16815260200190815260200160002060010160006101000a81548160ff021916908315150217905550816002826040518082805190602001908083835b60208310610f8f5780518252602082019150602081019050602083039250610f6c565b6001836020036101000a038019825116818451168082178552505050505050905001915050908152602001604051809103902060006101000a81548173ffffffffffffffffffffffffffffffffffffffff021916908373ffffffffffffffffffffffffffffffffffffffff1602179055505050565b600061100e6110bf565b8061102157506003548260600151600202115b9050919050565b6000808273ffffffffffffffffffffffffffffffffffffffff1673ffffffffffffffffffffffffffffffffffffffff16815260200190815260200160002060008082016000611077919061114d565b6001820160006101000a81549060ff02191690556001820160016101000a81549060ff0219169055600282016000905550506003600081548092919060019003919050555050565b600060046003541115905090565b828054600181600116156101000203166002900490600052602060002090601f016020900481019282601f1061110e57805160ff191683800117855561113c565b8280016001018555821561113c579182015b8281111561113b578251825591602001919060010190611120565b5b5090506111499190611195565b5090565b50805460018160011615610100020316600290046000825580601f106111735750611192565b601f0160209004906000526020600020908101906111919190611195565b5b50565b6111b791905b808211156111b357600081600090555060010161119b565b5090565b9056fe5468697320617070726f76657220616c726561647920617070726f7665642074686973206169726c696e65a165627a7a72305820c0d89c452d5812f643f0f451ea82f95b365f436321791f1ab483650eab99e8370029",
  "source": "//pragma solidity ^0.4.24;\npragma solidity >=0.4.21 <0.6.0;\n\n// Define a contract 'AirlineRole' to manage this role - add, remove, check\ncontract AirlineData {\n\n  struct Airline {\n    string name;\n    bool isApproved;\n    bool isFunded;\n    uint numOfApprovers;\n  }\n  mapping(address => Airline) private airlines;\n  mapping(address => mapping(address => bool)) approved;\n  mapping(string => address) airlineByName;\n\n  uint private entries = 0;\n  uint constant private minimumAirlines = 4;                     // number of airlines that can be added without consensus\n\n  // Define 2 events, one for Adding, and other for Removing\n  //event AirlineAdded(address indexed account);\n  //event AirlineRemoved(address indexed account);\n  //event AirlineApproved(address indexed account);\n  //event AirlineFunded(address indexed account);\n\n  // // In the constructor make the address that deploys this contract the 1st Airline\n  // constructor() public {\n  //   // contractOwner = msg.sender;\n  //   //_addAirline(msg.sender);\n  // }\n\n  // Define a modifier that checks to see if msg.sender has the appropriate role\n  modifier onlyAirline(address account) {\n    require(isAirline(account), \"Not an airline\");\n    _;\n  }\n\n  modifier onlyApproved(address account) {\n    require(isApproved(account), \"No Approved\");\n    _;\n  }\n\n  modifier firstApproved(address account, address approver) {\n    require(!approved[account][approver],  \"This approver already approved this airline\");\n    _;\n  }\n\n  modifier onlyFunded(address account) {\n    require(isFunded(account), \"Not funded\");\n    _;\n  }\n\n  modifier notYetFunded(address account) {\n    require(!isFunded(account), \"Already funded\");\n    _;\n  }\n\n  function isApproved(address account)\n    public\n    view\n    returns (bool) {\n    return airlines[account].isApproved;\n  }\n\n  function isFunded(address account)\n    public\n    view\n    returns (bool) {\n    return airlines[account].isFunded;\n  }\n\n  // Define a function 'isAirline' to check this role\n  function isAirline(address account) public view returns (bool) {\n    return (bytes(airlines[account].name).length != 0);\n  }\n\n  // Define a function 'addAirline' that adds this role\n  function addAirline(\n      address account,\n      string calldata name)\n    external\n  {\n    _addAirline(account, name);\n  }\n\n  // Define a function 'renounceAirline' to renounce this role\n  function renounceAirline(address account) external {\n    _removeAirline(account);\n  }\n\n  // Define an internal function '_addAirline' to add this role, called by 'addAirline'\n  function _addAirline(\n      address account,\n      string memory name)\n    internal {\n    require(bytes(name).length != 0, \"Airline company ame is mandatory\");\n\n    entries++;\n    airlines[account] = Airline({name : name, isApproved : false, isFunded : false, numOfApprovers : 0});\n    airlines[account].isApproved = _approvable(airlines[account]); // onlyt true when _lessThanMinimum() is true\n    airlineByName[name] = account;\n\n    //emit AirlineAdded(account);\n  }\n\n  // Define an internal function '_removeAirline' to remove this role, called by 'removeAirline'\n  function _removeAirline(address account) private {\n    delete airlines[account];\n    entries--;\n\n    //emit AirlineRemoved(account);\n  }\n\n  function getAirline(string calldata name)\n    external\n    view\n    returns (address)\n  {\n    return airlineByName[name];\n  }\n\n  function _lessThanMinimum()\n    private\n    view\n    returns (bool) {\n    return (entries <= minimumAirlines);\n  }\n\n  function _approvable(Airline memory airline)\n    private\n    view\n    returns (bool) {\n    return _lessThanMinimum() || (2 * airline.numOfApprovers > entries);\n  }\n\n  function approveAirline(address account, address approver)\n    external\n    onlyAirline(account)\n    onlyAirline(approver)\n    onlyFunded(approver)\n    firstApproved(account, approver) {\n    require(account != approver, \"Cannot approve self\");\n    airlines[account].numOfApprovers++;\n    approved[account][approver] = true;\n    if( _approvable(airlines[account])) {\n      airlines[account].isApproved = true;\n      //emit AirlineApproved(account);\n    }\n  }\n\n  function funded(address account)\n    external\n    onlyAirline(account)\n    notYetFunded(account) {\n    airlines[account].isFunded = true;\n    //emit AirlineFunded(account);\n  }\n}",
  "sourcePath": "/home/hajime/git/BlockchainDevND/projects/project_FlightSurety/contracts/accesscontrol/AirlineData.sol",
  "compiler": {
    "name": "solc",
    "version": "0.5.8+commit.23d335f2.Emscripten.clang"
  },
  "schemaVersion": "3.0.11",
  "updatedAt": "2019-09-26T08:04:12.659Z",
  "devdoc": {
    "methods": {}
  },
  "userdoc": {
    "methods": {}
  }
}