{
  "contractName": "FlightSuretyData",
  "abi": [
    {
      "constant": true,
      "inputs": [
        {
          "name": "account",
          "type": "address"
        }
      ],
      "name": "isAirline",
      "outputs": [
        {
          "name": "",
          "type": "bool"
        }
      ],
      "payable": false,
      "stateMutability": "view",
      "type": "function"
    },
    {
      "constant": true,
      "inputs": [
        {
          "name": "account",
          "type": "address"
        }
      ],
      "name": "isPassenger",
      "outputs": [
        {
          "name": "",
          "type": "bool"
        }
      ],
      "payable": false,
      "stateMutability": "view",
      "type": "function"
    },
    {
      "constant": false,
      "inputs": [
        {
          "name": "account",
          "type": "address"
        }
      ],
      "name": "funded",
      "outputs": [],
      "payable": false,
      "stateMutability": "nonpayable",
      "type": "function"
    },
    {
      "constant": true,
      "inputs": [
        {
          "name": "account",
          "type": "address"
        }
      ],
      "name": "isFunded",
      "outputs": [
        {
          "name": "",
          "type": "bool"
        }
      ],
      "payable": false,
      "stateMutability": "view",
      "type": "function"
    },
    {
      "constant": true,
      "inputs": [
        {
          "name": "account",
          "type": "address"
        }
      ],
      "name": "isApproved",
      "outputs": [
        {
          "name": "",
          "type": "bool"
        }
      ],
      "payable": false,
      "stateMutability": "view",
      "type": "function"
    },
    {
      "constant": false,
      "inputs": [
        {
          "name": "name",
          "type": "string"
        },
        {
          "name": "account",
          "type": "address"
        },
        {
          "name": "accountRegisterBy",
          "type": "address"
        }
      ],
      "name": "addAirline",
      "outputs": [],
      "payable": false,
      "stateMutability": "nonpayable",
      "type": "function"
    },
    {
      "constant": false,
      "inputs": [
        {
          "name": "account",
          "type": "address"
        },
        {
          "name": "approver",
          "type": "address"
        }
      ],
      "name": "approveAirline",
      "outputs": [],
      "payable": false,
      "stateMutability": "nonpayable",
      "type": "function"
    },
    {
      "constant": true,
      "inputs": [
        {
          "name": "name",
          "type": "string"
        }
      ],
      "name": "getAirline",
      "outputs": [
        {
          "name": "",
          "type": "address"
        }
      ],
      "payable": false,
      "stateMutability": "view",
      "type": "function"
    },
    {
      "constant": false,
      "inputs": [],
      "name": "renouncePassenger",
      "outputs": [],
      "payable": false,
      "stateMutability": "nonpayable",
      "type": "function"
    },
    {
      "constant": false,
      "inputs": [
        {
          "name": "account",
          "type": "address"
        }
      ],
      "name": "renounceAirline",
      "outputs": [],
      "payable": false,
      "stateMutability": "nonpayable",
      "type": "function"
    },
    {
      "constant": true,
      "inputs": [
        {
          "name": "name",
          "type": "string"
        }
      ],
      "name": "getPassenger",
      "outputs": [
        {
          "name": "",
          "type": "address"
        }
      ],
      "payable": false,
      "stateMutability": "view",
      "type": "function"
    },
    {
      "constant": false,
      "inputs": [
        {
          "name": "account",
          "type": "address"
        },
        {
          "name": "name",
          "type": "string"
        }
      ],
      "name": "addPassenger",
      "outputs": [],
      "payable": false,
      "stateMutability": "nonpayable",
      "type": "function"
    },
    {
      "constant": false,
      "inputs": [
        {
          "name": "passenger",
          "type": "address"
        },
        {
          "name": "amount",
          "type": "uint256"
        }
      ],
      "name": "withdraw",
      "outputs": [],
      "payable": false,
      "stateMutability": "nonpayable",
      "type": "function"
    },
    {
      "inputs": [
        {
          "name": "_owner",
          "type": "address"
        }
      ],
      "payable": false,
      "stateMutability": "nonpayable",
      "type": "constructor"
    },
    {
      "payable": true,
      "stateMutability": "payable",
      "type": "fallback"
    },
    {
      "constant": false,
      "inputs": [
        {
          "name": "flightKey",
          "type": "bytes32"
        },
        {
          "name": "insurancee",
          "type": "string"
        },
        {
          "name": "payamount",
          "type": "uint256"
        }
      ],
      "name": "insurance",
      "outputs": [],
      "payable": false,
      "stateMutability": "nonpayable",
      "type": "function"
    },
    {
      "constant": false,
      "inputs": [
        {
          "name": "flightKey",
          "type": "bytes32"
        }
      ],
      "name": "addPayment",
      "outputs": [],
      "payable": false,
      "stateMutability": "nonpayable",
      "type": "function"
    },
    {
      "constant": true,
      "inputs": [],
      "name": "isOperational",
      "outputs": [
        {
          "name": "",
          "type": "bool"
        }
      ],
      "payable": false,
      "stateMutability": "view",
      "type": "function"
    },
    {
      "constant": false,
      "inputs": [
        {
          "name": "mode",
          "type": "bool"
        }
      ],
      "name": "setOperational",
      "outputs": [],
      "payable": false,
      "stateMutability": "nonpayable",
      "type": "function"
    }
  ],
  "bytecode": "0x608060405260006003556001600760146101000a81548160ff02191690831515021790555034801561003057600080fd5b5060405160208061261d8339810180604052602081101561005057600080fd5b810190808051906020019092919050505080600760006101000a81548173ffffffffffffffffffffffffffffffffffffffff021916908373ffffffffffffffffffffffffffffffffffffffff1602179055505061256b806100b26000396000f3fe6080604052600436106100fe5760003560e01c80638e6d88ca11610095578063c4e9bd2c11610064578063c4e9bd2c146105d2578063cb1b1a8a146106da578063cd905dff14610780578063f3eb52a3146107af578063f3fef3a314610849576100fe565b80638e6d88ca146104695780639bbd77681461052f578063a478bbe914610546578063a8d81fb414610597576100fe565b80635689b249116100d15780635689b24914610260578063673448dd146102c95780636c8157ac1461033257806372dd8bcb146103f8576100fe565b80630e248a11146101005780631dd13a1d1461016957806345f9fc78146101d2578063500b94aa14610223575b005b34801561010c57600080fd5b5061014f6004803603602081101561012357600080fd5b81019080803573ffffffffffffffffffffffffffffffffffffffff1690602001909291905050506108a4565b604051808215151515815260200191505060405180910390f35b34801561017557600080fd5b506101b86004803603602081101561018c57600080fd5b81019080803573ffffffffffffffffffffffffffffffffffffffff169060200190929190505050610905565b604051808215151515815260200191505060405180910390f35b3480156101de57600080fd5b50610221600480360360208110156101f557600080fd5b81019080803573ffffffffffffffffffffffffffffffffffffffff169060200190929190505050610967565b005b34801561022f57600080fd5b5061025e6004803603602081101561024657600080fd5b81019080803515159060200190929190505050610abf565b005b34801561026c57600080fd5b506102af6004803603602081101561028357600080fd5b81019080803573ffffffffffffffffffffffffffffffffffffffff169060200190929190505050610b9f565b604051808215151515815260200191505060405180910390f35b3480156102d557600080fd5b50610318600480360360208110156102ec57600080fd5b81019080803573ffffffffffffffffffffffffffffffffffffffff169060200190929190505050610bf7565b604051808215151515815260200191505060405180910390f35b34801561033e57600080fd5b506103f66004803603606081101561035557600080fd5b810190808035906020019064010000000081111561037257600080fd5b82018360208201111561038457600080fd5b803590602001918460018302840111640100000000831117156103a657600080fd5b9091929391929390803573ffffffffffffffffffffffffffffffffffffffff169060200190929190803573ffffffffffffffffffffffffffffffffffffffff169060200190929190505050610c4f565b005b34801561040457600080fd5b506104676004803603604081101561041b57600080fd5b81019080803573ffffffffffffffffffffffffffffffffffffffff169060200190929190803573ffffffffffffffffffffffffffffffffffffffff169060200190929190505050610ca4565b005b34801561047557600080fd5b506104ed6004803603602081101561048c57600080fd5b81019080803590602001906401000000008111156104a957600080fd5b8201836020820111156104bb57600080fd5b803590602001918460018302840111640100000000831117156104dd57600080fd5b909192939192939050505061121d565b604051808273ffffffffffffffffffffffffffffffffffffffff1673ffffffffffffffffffffffffffffffffffffffff16815260200191505060405180910390f35b34801561053b57600080fd5b5061054461126f565b005b34801561055257600080fd5b506105956004803603602081101561056957600080fd5b81019080803573ffffffffffffffffffffffffffffffffffffffff16906020019092919050505061127a565b005b3480156105a357600080fd5b506105d0600480360360208110156105ba57600080fd5b8101908080359060200190929190505050611286565b005b3480156105de57600080fd5b50610698600480360360208110156105f557600080fd5b810190808035906020019064010000000081111561061257600080fd5b82018360208201111561062457600080fd5b8035906020019184600183028401116401000000008311171561064657600080fd5b91908080601f016020809104026020016040519081016040528093929190818152602001838380828437600081840152601f19601f820116905080830192505050505050509192919290505050611513565b604051808273ffffffffffffffffffffffffffffffffffffffff1673ffffffffffffffffffffffffffffffffffffffff16815260200191505060405180910390f35b3480156106e657600080fd5b5061077e600480360360408110156106fd57600080fd5b81019080803573ffffffffffffffffffffffffffffffffffffffff1690602001909291908035906020019064010000000081111561073a57600080fd5b82018360208201111561074c57600080fd5b8035906020019184600183028401116401000000008311171561076e57600080fd5b90919293919293905050506115a6565b005b34801561078c57600080fd5b506107956115f9565b604051808215151515815260200191505060405180910390f35b3480156107bb57600080fd5b50610847600480360360608110156107d257600080fd5b8101908080359060200190929190803590602001906401000000008111156107f957600080fd5b82018360208201111561080b57600080fd5b8035906020019184600183028401116401000000008311171561082d57600080fd5b909192939192939080359060200190929190505050611610565b005b34801561085557600080fd5b506108a26004803603604081101561086c57600080fd5b81019080803573ffffffffffffffffffffffffffffffffffffffff16906020019092919080359060200190929190505050611723565b005b6000806000808473ffffffffffffffffffffffffffffffffffffffff1673ffffffffffffffffffffffffffffffffffffffff168152602001908152602001600020600001805460018160011615610100020316600290049050119050919050565b600080600460008473ffffffffffffffffffffffffffffffffffffffff1673ffffffffffffffffffffffffffffffffffffffff168152602001908152602001600020600001805460018160011615610100020316600290049050119050919050565b80610971816108a4565b6109e3576040517f08c379a000000000000000000000000000000000000000000000000000000000815260040180806020018281038252600e8152602001807f4e6f7420616e206169726c696e6500000000000000000000000000000000000081525060200191505060405180910390fd5b816109ed81610b9f565b15610a60576040517f08c379a000000000000000000000000000000000000000000000000000000000815260040180806020018281038252600e8152602001807f416c72656164792066756e64656400000000000000000000000000000000000081525060200191505060405180910390fd5b60016000808573ffffffffffffffffffffffffffffffffffffffff1673ffffffffffffffffffffffffffffffffffffffff16815260200190815260200160002060010160016101000a81548160ff021916908315150217905550505050565b600760009054906101000a900473ffffffffffffffffffffffffffffffffffffffff1673ffffffffffffffffffffffffffffffffffffffff163373ffffffffffffffffffffffffffffffffffffffff1614610b82576040517f08c379a000000000000000000000000000000000000000000000000000000000815260040180806020018281038252601c8152602001807f43616c6c6572206973206e6f7420636f6e7472616374206f776e65720000000081525060200191505060405180910390fd5b80600760146101000a81548160ff02191690831515021790555050565b60008060008373ffffffffffffffffffffffffffffffffffffffff1673ffffffffffffffffffffffffffffffffffffffff16815260200190815260200160002060010160019054906101000a900460ff169050919050565b60008060008373ffffffffffffffffffffffffffffffffffffffff1673ffffffffffffffffffffffffffffffffffffffff16815260200190815260200160002060010160009054906101000a900460ff169050919050565b610c9e84848080601f016020809104026020016040519081016040528093929190818152602001838380828437600081840152601f19601f820116905080830192505050505050508383611876565b50505050565b81610cae816108a4565b610d20576040517f08c379a000000000000000000000000000000000000000000000000000000000815260040180806020018281038252600e8152602001807f4e6f7420616e206169726c696e6500000000000000000000000000000000000081525060200191505060405180910390fd5b81610d2a816108a4565b610d9c576040517f08c379a000000000000000000000000000000000000000000000000000000000815260040180806020018281038252600e8152602001807f4e6f7420616e206169726c696e6500000000000000000000000000000000000081525060200191505060405180910390fd5b82610da681610b9f565b610e18576040517f08c379a000000000000000000000000000000000000000000000000000000000815260040180806020018281038252600a8152602001807f4e6f742066756e6465640000000000000000000000000000000000000000000081525060200191505060405180910390fd5b8484600160008373ffffffffffffffffffffffffffffffffffffffff1673ffffffffffffffffffffffffffffffffffffffff16815260200190815260200160002060008273ffffffffffffffffffffffffffffffffffffffff1673ffffffffffffffffffffffffffffffffffffffff16815260200190815260200160002060009054906101000a900460ff1615610efa576040517f08c379a000000000000000000000000000000000000000000000000000000000815260040180806020018281038252602b815260200180612468602b913960400191505060405180910390fd5b8573ffffffffffffffffffffffffffffffffffffffff168773ffffffffffffffffffffffffffffffffffffffff161415610f9c576040517f08c379a00000000000000000000000000000000000000000000000000000000081526004018080602001828103825260138152602001807f43616e6e6f7420617070726f76652073656c660000000000000000000000000081525060200191505060405180910390fd5b6000808873ffffffffffffffffffffffffffffffffffffffff1673ffffffffffffffffffffffffffffffffffffffff1681526020019081526020016000206002016000815480929190600101919050555060018060008973ffffffffffffffffffffffffffffffffffffffff1673ffffffffffffffffffffffffffffffffffffffff16815260200190815260200160002060008873ffffffffffffffffffffffffffffffffffffffff1673ffffffffffffffffffffffffffffffffffffffff16815260200190815260200160002060006101000a81548160ff0219169083151502179055506111b46000808973ffffffffffffffffffffffffffffffffffffffff1673ffffffffffffffffffffffffffffffffffffffff168152602001908152602001600020604051806080016040529081600082018054600181600116156101000203166002900480601f0160208091040260200160405190810160405280929190818152602001828054600181600116156101000203166002900480156111665780601f1061113b57610100808354040283529160200191611166565b820191906000526020600020905b81548152906001019060200180831161114957829003601f168201915b505050505081526020016001820160009054906101000a900460ff161515151581526020016001820160019054906101000a900460ff16151515158152602001600282015481525050611c63565b156112145760016000808973ffffffffffffffffffffffffffffffffffffffff1673ffffffffffffffffffffffffffffffffffffffff16815260200190815260200160002060010160006101000a81548160ff0219169083151502179055505b50505050505050565b600060028383604051808383808284378083019250505092505050908152602001604051809103902060009054906101000a900473ffffffffffffffffffffffffffffffffffffffff16905092915050565b61127833611c87565b565b61128381611db1565b50565b600760149054906101000a900460ff166112eb576040517f08c379a00000000000000000000000000000000000000000000000000000000081526004018080602001828103825260258152602001806124eb6025913960400191505060405180910390fd5b600060096000838152602001908152602001600020905060008090505b81805490508160ff16101561150e576000836113d4848460ff168154811061132c57fe5b906000526020600020018054600181600116156101000203166002900480601f0160208091040260200160405190810160405280929190818152602001828054600181600116156101000203166002900480156113ca5780601f1061139f576101008083540402835291602001916113ca565b820191906000526020600020905b8154815290600101906020018083116113ad57829003601f168201915b5050505050611513565b604051602001808381526020018273ffffffffffffffffffffffffffffffffffffffff1673ffffffffffffffffffffffffffffffffffffffff1660601b815260140192505050604051602081830303815290604052805190602001209050611500838360ff168154811061144457fe5b906000526020600020018054600181600116156101000203166002900480601f0160208091040260200160405190810160405280929190818152602001828054600181600116156101000203166002900480156114e25780601f106114b7576101008083540402835291602001916114e2565b820191906000526020600020905b8154815290600101906020018083116114c557829003601f168201915b50505050506008600084815260200190815260200160002054611e48565b508080600101915050611308565b505050565b60006005826040518082805190602001908083835b6020831061154b5780518252602082019150602081019050602083039250611528565b6001836020036101000a038019825116818451168082178552505050505050905001915050908152602001604051809103902060009054906101000a900473ffffffffffffffffffffffffffffffffffffffff169050919050565b6115f48383838080601f016020809104026020016040519081016040528093929190818152602001838380828437600081840152601f19601f82011690508083019250505050505050612013565b505050565b6000600760149054906101000a900460ff16905090565b600760149054906101000a900460ff16611675576040517f08c379a00000000000000000000000000000000000000000000000000000000081526004018080602001828103825260258152602001806124eb6025913960400191505060405180910390fd5b6000848484604051602001808481526020018383808284378083019250505093505050506040516020818303038152906040528051906020012090508160086000838152602001908152602001600020819055506009600086815260200190815260200160002084849091806001815401808255809150509060018203906000526020600020016000909192939091929390919290919250919061171a92919061227a565b50505050505050565b8161172d81610905565b61173657600080fd5b6000600660008573ffffffffffffffffffffffffffffffffffffffff1673ffffffffffffffffffffffffffffffffffffffff168152602001908152602001600020549050828110156117d3576040517f08c379a00000000000000000000000000000000000000000000000000000000081526004018080602001828103825260378152602001806124936037913960400191505060405180910390fd5b6117e6838261215b90919063ffffffff16565b600660008673ffffffffffffffffffffffffffffffffffffffff1673ffffffffffffffffffffffffffffffffffffffff168152602001908152602001600020819055508373ffffffffffffffffffffffffffffffffffffffff166108fc849081150290604051600060405180830381858888f1935050505015801561186f573d6000803e3d6000fd5b5050505050565b6000835114156118d1576040517f08c379a00000000000000000000000000000000000000000000000000000000081526004018080602001828103825260218152602001806124ca6021913960400191505060405180910390fd5b60006003541180156118e557506004600354105b15611949576118f381610bf7565b611948576040517f08c379a00000000000000000000000000000000000000000000000000000000081526004018080602001828103825260308152602001806125106030913960400191505060405180910390fd5b5b600360008154809291906001019190505550604051806080016040528084815260200160001515815260200160001515815260200160008152506000808473ffffffffffffffffffffffffffffffffffffffff1673ffffffffffffffffffffffffffffffffffffffff16815260200190815260200160002060008201518160000190805190602001906119dd9291906122fa565b5060208201518160010160006101000a81548160ff02191690831515021790555060408201518160010160016101000a81548160ff02191690831515021790555060608201518160020155905050611b5e6000808473ffffffffffffffffffffffffffffffffffffffff1673ffffffffffffffffffffffffffffffffffffffff168152602001908152602001600020604051806080016040529081600082018054600181600116156101000203166002900480601f016020809104026020016040519081016040528092919081815260200182805460018160011615610100020316600290048015611b105780601f10611ae557610100808354040283529160200191611b10565b820191906000526020600020905b815481529060010190602001808311611af357829003601f168201915b505050505081526020016001820160009054906101000a900460ff161515151581526020016001820160019054906101000a900460ff16151515158152602001600282015481525050611c63565b6000808473ffffffffffffffffffffffffffffffffffffffff1673ffffffffffffffffffffffffffffffffffffffff16815260200190815260200160002060010160006101000a81548160ff021916908315150217905550816002846040518082805190602001908083835b60208310611bed5780518252602082019150602081019050602083039250611bca565b6001836020036101000a038019825116818451168082178552505050505050905001915050908152602001604051809103902060006101000a81548173ffffffffffffffffffffffffffffffffffffffff021916908373ffffffffffffffffffffffffffffffffffffffff160217905550505050565b6000611c6d6121e4565b80611c8057506003548260600151600202115b9050919050565b6005600460008373ffffffffffffffffffffffffffffffffffffffff1673ffffffffffffffffffffffffffffffffffffffff1681526020019081526020016000206000016040518082805460018160011615610100020316600290048015611d265780601f10611d04576101008083540402835291820191611d26565b820191906000526020600020905b815481529060010190602001808311611d12575b5050915050908152602001604051809103902060006101000a81549073ffffffffffffffffffffffffffffffffffffffff0219169055600460008273ffffffffffffffffffffffffffffffffffffffff1673ffffffffffffffffffffffffffffffffffffffff16815260200190815260200160002060008082016000611dac919061237a565b505050565b6000808273ffffffffffffffffffffffffffffffffffffffff1673ffffffffffffffffffffffffffffffffffffffff16815260200190815260200160002060008082016000611e00919061237a565b6001820160006101000a81549060ff02191690556001820160016101000a81549060ff0219169055600282016000905550506003600081548092919060019003919050555050565b6005826040518082805190602001908083835b60208310611e7e5780518252602082019150602081019050602083039250611e5b565b6001836020036101000a038019825116818451168082178552505050505050905001915050908152602001604051809103902060009054906101000a900473ffffffffffffffffffffffffffffffffffffffff16611edb81610905565b611ee457600080fd5b60006005846040518082805190602001908083835b60208310611f1c5780518252602082019150602081019050602083039250611ef9565b6001836020036101000a038019825116818451168082178552505050505050905001915050908152602001604051809103902060009054906101000a900473ffffffffffffffffffffffffffffffffffffffff1690506000600660008373ffffffffffffffffffffffffffffffffffffffff1673ffffffffffffffffffffffffffffffffffffffff168152602001908152602001600020549050611fc984826121f290919063ffffffff16565b600660008473ffffffffffffffffffffffffffffffffffffffff1673ffffffffffffffffffffffffffffffffffffffff168152602001908152602001600020819055505050505050565b80600460008473ffffffffffffffffffffffffffffffffffffffff1673ffffffffffffffffffffffffffffffffffffffff16815260200190815260200160002060000190805190602001906120699291906123c2565b50816005826040518082805190602001908083835b602083106120a1578051825260208201915060208101905060208303925061207e565b6001836020036101000a038019825116818451168082178552505050505050905001915050908152602001604051809103902060006101000a81548173ffffffffffffffffffffffffffffffffffffffff021916908373ffffffffffffffffffffffffffffffffffffffff1602179055506000600660008473ffffffffffffffffffffffffffffffffffffffff1673ffffffffffffffffffffffffffffffffffffffff168152602001908152602001600020819055505050565b6000828211156121d3576040517f08c379a000000000000000000000000000000000000000000000000000000000815260040180806020018281038252601e8152602001807f536166654d6174683a207375627472616374696f6e206f766572666c6f77000081525060200191505060405180910390fd5b600082840390508091505092915050565b600060046003541115905090565b600080828401905083811015612270576040517f08c379a000000000000000000000000000000000000000000000000000000000815260040180806020018281038252601b8152602001807f536166654d6174683a206164646974696f6e206f766572666c6f77000000000081525060200191505060405180910390fd5b8091505092915050565b828054600181600116156101000203166002900490600052602060002090601f016020900481019282601f106122bb57803560ff19168380011785556122e9565b828001600101855582156122e9579182015b828111156122e85782358255916020019190600101906122cd565b5b5090506122f69190612442565b5090565b828054600181600116156101000203166002900490600052602060002090601f016020900481019282601f1061233b57805160ff1916838001178555612369565b82800160010185558215612369579182015b8281111561236857825182559160200191906001019061234d565b5b5090506123769190612442565b5090565b50805460018160011615610100020316600290046000825580601f106123a057506123bf565b601f0160209004906000526020600020908101906123be9190612442565b5b50565b828054600181600116156101000203166002900490600052602060002090601f016020900481019282601f1061240357805160ff1916838001178555612431565b82800160010185558215612431579182015b82811115612430578251825591602001919060010190612415565b5b50905061243e9190612442565b5090565b61246491905b80821115612460576000816000905550600101612448565b5090565b9056fe5468697320617070726f76657220616c726561647920617070726f7665642074686973206169726c696e6550617373656e676572732063616e6e6f742072657175657374206d6f7265207468616e20776974686472617761626c6520616d6f756e744169726c696e6520636f6d70616e79206e616d65206973206d616e6461746f7279436f6e74726163742069732063757272656e746c79206e6f74206f7065726174696f6e616c4f6e6c79206578697374696e67206169726c696e65206d61792072656769737465722061206e6577206169726c696e65a165627a7a723058202c49b36c9f8913ed9d687666b2b8a2351fced97394832b57a1f7916935f906640029",
  "source": "//pragma solidity ^0.4.25;\npragma solidity >=0.4.21 < 0.6.0;\n\nimport \"../node_modules/openzeppelin-solidity/contracts/math/SafeMath.sol\";\n\nimport \"./AirlineData.sol\";\nimport \"./PassengerData.sol\";\n\n\ncontract FlightSuretyData is AirlineData, PassengerData {\n    using SafeMath for uint256;\n\n    /********************************************************************************************/\n    /*                                       DATA VARIABLES                                     */\n    /********************************************************************************************/\n\n    address private contractOwner;                                      // Account used to deploy contract\n    bool private operational = true;                                    // Blocks all state changes throughout the contract if false\n    mapping(bytes32 => uint256) private insurances;\n    mapping(bytes32 => string[]) private flightInsurancees;\n\n    /********************************************************************************************/\n    /*                                       EVENT DEFINITIONS                                  */\n    /********************************************************************************************/\n\n    /**\n    * @dev Constructor\n    *      The deploying account becomes contractOwner\n    */\n    constructor (address _owner)\n        public\n    {\n        contractOwner = _owner;\n    }\n\n    function insurance(bytes32 flightKey, string calldata insurancee, uint256 payamount)\n        external\n        requireIsOperational\n    {\n        bytes32 insuranceId = keccak256(\n                    abi.encodePacked(\n                        flightKey,\n                        insurancee));\n        insurances[insuranceId] = payamount;\n        flightInsurancees[flightKey].push(insurancee);\n    }\n\n    function addPayment(bytes32 flightKey)\n        external\n        requireIsOperational\n     {\n        string[] storage paids = flightInsurancees[flightKey];\n        for(uint8 i = 0; i < paids.length; i++) {\n            bytes32 insuranceID = keccak256(\n                    abi.encodePacked(\n                        flightKey,\n                        getPassenger(paids[i])));\n            pay(paids[i], insurances[insuranceID]);\n        }\n    }\n\n    /********************************************************************************************/\n    /*                                       FUNCTION MODIFIERS                                 */\n    /********************************************************************************************/\n\n    // Modifiers help avoid duplication of code. They are typically used to validate something\n    // before a function is allowed to be executed.\n\n    /**\n    * @dev Modifier that requires the \"operational\" boolean variable to be \"true\"\n    *      This is used on all state changing functions to pause the contract in\n    *      the event there is an issue that needs to be fixed\n    */\n    modifier requireIsOperational()\n    {\n        require(operational, \"Contract is currently not operational\");\n        _;  // All modifiers require an \"_\" which indicates where the function body will be added\n    }\n\n    /**\n    * @dev Modifier that requires the \"ContractOwner\" account to be the function caller\n    */\n    modifier requireContractOwner()\n    {\n        require(msg.sender == contractOwner, \"Caller is not contract owner\");\n        _;\n    }\n\n    /********************************************************************************************/\n    /*                                       UTILITY FUNCTIONS                                  */\n    /********************************************************************************************/\n\n    /**\n    * @dev Get operating stadaaaaaaaaaaaatus of contract\n    *\n    * @return A bool that is the current operating status\n    */\n    function isOperational()\n        public\n        view\n        returns(bool)\n    {\n        return operational;\n    }\n\n\n    /**\n    * @dev Sets contract operations on/off\n    *\n    * When operational mode is disabled, all write transactions except for this one will fail\n    */\n    function setOperational(\n            bool mode )\n        external\n        requireContractOwner\n    {\n        operational = mode;\n    }\n\n    function getFlightKey\n                        (\n                            address airline,\n                            string memory flight,\n                            uint256 timestamp\n                        )\n                        pure\n                        internal\n                        returns(bytes32)\n    {\n        return keccak256(abi.encodePacked(airline, flight, timestamp));\n    }\n\n    /**\n    * @dev Fallback function for funding smart contract.\n    *\n    */\n    function()\n                            external\n                            payable\n    {\n        // fund();\n    }\n}\n\n",
  "sourcePath": "/home/hajime/git/BlockchainDevND/projects/project_FlightSurety/contracts/FlightSuretyData.sol",
  "compiler": {
    "name": "solc",
    "version": "0.5.8+commit.23d335f2.Emscripten.clang"
  },
  "schemaVersion": "3.0.16",
  "updatedAt": "2019-10-23T05:29:09.135Z",
  "devdoc": {
    "methods": {
      "constructor": {
        "details": "Constructor     The deploying account becomes contractOwner"
      },
      "isOperational()": {
        "details": "Get operating stadaaaaaaaaaaaatus of contract",
        "return": "A bool that is the current operating status"
      },
      "setOperational(bool)": {
        "details": "Sets contract operations on/off    * When operational mode is disabled, all write transactions except for this one will fail"
      }
    }
  },
  "userdoc": {
    "methods": {}
  }
}