{
  "contractName": "PassengerRole",
  "abi": [
    {
      "inputs": [],
      "payable": false,
      "stateMutability": "nonpayable",
      "type": "constructor"
    },
    {
      "anonymous": false,
      "inputs": [
        {
          "indexed": true,
          "name": "account",
          "type": "address"
        }
      ],
      "name": "PassengerAdded",
      "type": "event"
    },
    {
      "anonymous": false,
      "inputs": [
        {
          "indexed": true,
          "name": "account",
          "type": "address"
        }
      ],
      "name": "PassengerRemoved",
      "type": "event"
    },
    {
      "constant": true,
      "inputs": [
        {
          "name": "account",
          "type": "address"
        }
      ],
      "name": "isPassenger",
      "outputs": [
        {
          "name": "",
          "type": "bool"
        }
      ],
      "payable": false,
      "stateMutability": "view",
      "type": "function"
    },
    {
      "constant": false,
      "inputs": [
        {
          "name": "account",
          "type": "address"
        }
      ],
      "name": "addPassenger",
      "outputs": [],
      "payable": false,
      "stateMutability": "nonpayable",
      "type": "function"
    },
    {
      "constant": false,
      "inputs": [],
      "name": "renouncePassenger",
      "outputs": [],
      "payable": false,
      "stateMutability": "nonpayable",
      "type": "function"
    }
  ],
  "bytecode": "0x608060405234801561001057600080fd5b506100203361002560201b60201c565b6101c7565b61003d81600061008360201b6103271790919060201c565b8073ffffffffffffffffffffffffffffffffffffffff167f621e907b0b61084a1f2660c5627f80111a59ab9291ce55345a6145057946e9cc60405160405180910390a250565b600073ffffffffffffffffffffffffffffffffffffffff168173ffffffffffffffffffffffffffffffffffffffff1614156100bd57600080fd5b6100cd828261013560201b60201c565b156100d757600080fd5b60018260000160008373ffffffffffffffffffffffffffffffffffffffff1673ffffffffffffffffffffffffffffffffffffffff16815260200190815260200160002060006101000a81548160ff0219169083151502179055505050565b60008073ffffffffffffffffffffffffffffffffffffffff168273ffffffffffffffffffffffffffffffffffffffff16141561017057600080fd5b8260000160008373ffffffffffffffffffffffffffffffffffffffff1673ffffffffffffffffffffffffffffffffffffffff16815260200190815260200160002060009054906101000a900460ff16905092915050565b6103ff806101d66000396000f3fe608060405234801561001057600080fd5b50600436106100415760003560e01c80631dd13a1d146100465780639bbd7768146100a2578063ec0004f9146100ac575b600080fd5b6100886004803603602081101561005c57600080fd5b81019080803573ffffffffffffffffffffffffffffffffffffffff1690602001909291905050506100f0565b604051808215151515815260200191505060405180910390f35b6100aa61010d565b005b6100ee600480360360208110156100c257600080fd5b81019080803573ffffffffffffffffffffffffffffffffffffffff169060200190929190505050610118565b005b600061010682600061013690919063ffffffff16565b9050919050565b610116336101c8565b565b610121336100f0565b61012a57600080fd5b61013381610222565b50565b60008073ffffffffffffffffffffffffffffffffffffffff168273ffffffffffffffffffffffffffffffffffffffff16141561017157600080fd5b8260000160008373ffffffffffffffffffffffffffffffffffffffff1673ffffffffffffffffffffffffffffffffffffffff16815260200190815260200160002060009054906101000a900460ff16905092915050565b6101dc81600061027c90919063ffffffff16565b8073ffffffffffffffffffffffffffffffffffffffff167f97444fa4b41e1f5173a20f39d2102723bc0067ea6342d82913e0b07dc7b19a3d60405160405180910390a250565b61023681600061032790919063ffffffff16565b8073ffffffffffffffffffffffffffffffffffffffff167f621e907b0b61084a1f2660c5627f80111a59ab9291ce55345a6145057946e9cc60405160405180910390a250565b600073ffffffffffffffffffffffffffffffffffffffff168173ffffffffffffffffffffffffffffffffffffffff1614156102b657600080fd5b6102c08282610136565b6102c957600080fd5b60008260000160008373ffffffffffffffffffffffffffffffffffffffff1673ffffffffffffffffffffffffffffffffffffffff16815260200190815260200160002060006101000a81548160ff0219169083151502179055505050565b600073ffffffffffffffffffffffffffffffffffffffff168173ffffffffffffffffffffffffffffffffffffffff16141561036157600080fd5b61036b8282610136565b1561037557600080fd5b60018260000160008373ffffffffffffffffffffffffffffffffffffffff1673ffffffffffffffffffffffffffffffffffffffff16815260200190815260200160002060006101000a81548160ff021916908315150217905550505056fea165627a7a7230582038cd9c23733a155e22186b0bfef6009b8e0c9dbb7685f43512679c81d9e0f4860029",
  "source": "//pragma solidity ^0.4.24;\npragma solidity >=0.4.21 <0.6.0;\n\n// Import the library 'Roles'\nimport \"./Roles.sol\";\n\n// Define a contract 'PassengerRole' to manage this role - add, remove, check\ncontract PassengerRole {\n  using Roles for Roles.Role;\n\n  // Define 2 events, one for Adding, and other for Removing\n  event PassengerAdded(address indexed account);\n  event PassengerRemoved(address indexed account);\n\n  // Define a struct 'Passengers' by inheriting from 'Roles' library, struct Role\n  Roles.Role private Passengers;\n\n  // In the constructor make the address that deploys this contract the 1st Passenger\n  constructor() public {\n    _addPassenger(msg.sender);\n  }\n\n  // Define a modifier that checks to see if msg.sender has the appropriate role\n  modifier onlyPassenger() {\n    require(isPassenger(msg.sender));\n    _;\n  }\n\n  // Define a function 'isPassenger' to check this role\n  function isPassenger(address account) public view returns (bool) {\n    return Passengers.has(account);\n  }\n\n  // Define a function 'addPassenger' that adds this role\n  function addPassenger(address account) public onlyPassenger {\n    _addPassenger(account);\n  }\n\n  // Define a function 'renouncePassenger' to renounce this role\n  function renouncePassenger() public {\n    _removePassenger(msg.sender);\n  }\n\n  // Define an internal function '_addPassenger' to add this role, called by 'addPassenger'\n  function _addPassenger(address account) internal {\n    Passengers.add(account);\n    emit PassengerAdded(account);\n  }\n\n  // Define an internal function '_removePassenger' to remove this role, called by 'removePassenger'\n  function _removePassenger(address account) internal {\n    Passengers.remove(account);\n    emit PassengerRemoved(account);\n  }\n}",
  "sourcePath": "/home/hajime/git/BlockchainDevND/projects/project_FlightSurety/contracts/accesscontrol/PassengerRole.sol",
  "compiler": {
    "name": "solc",
    "version": "0.5.8+commit.23d335f2.Emscripten.clang"
  },
  "schemaVersion": "3.0.11",
  "updatedAt": "2019-09-15T07:48:28.200Z",
  "devdoc": {
    "methods": {}
  },
  "userdoc": {
    "methods": {}
  }
}