{
  "contractName": "PassengerData",
  "abi": [
    {
      "constant": true,
      "inputs": [
        {
          "name": "account",
          "type": "address"
        }
      ],
      "name": "isPassenger",
      "outputs": [
        {
          "name": "",
          "type": "bool"
        }
      ],
      "payable": false,
      "stateMutability": "view",
      "type": "function"
    },
    {
      "constant": false,
      "inputs": [
        {
          "name": "account",
          "type": "address"
        },
        {
          "name": "name",
          "type": "string"
        }
      ],
      "name": "addPassenger",
      "outputs": [],
      "payable": false,
      "stateMutability": "nonpayable",
      "type": "function"
    },
    {
      "constant": false,
      "inputs": [],
      "name": "renouncePassenger",
      "outputs": [],
      "payable": false,
      "stateMutability": "nonpayable",
      "type": "function"
    },
    {
      "constant": true,
      "inputs": [
        {
          "name": "name",
          "type": "string"
        }
      ],
      "name": "getPassenger",
      "outputs": [
        {
          "name": "",
          "type": "address"
        }
      ],
      "payable": false,
      "stateMutability": "view",
      "type": "function"
    },
    {
      "constant": false,
      "inputs": [
        {
          "name": "passenger",
          "type": "address"
        },
        {
          "name": "amount",
          "type": "uint256"
        }
      ],
      "name": "withdraw",
      "outputs": [],
      "payable": false,
      "stateMutability": "nonpayable",
      "type": "function"
    }
  ],
  "bytecode": "0x608060405234801561001057600080fd5b50610991806100206000396000f3fe608060405234801561001057600080fd5b50600436106100575760003560e01c80631dd13a1d1461005c5780639bbd7768146100b8578063c4e9bd2c146100c2578063cb1b1a8a146101bd578063f3fef3a314610256575b600080fd5b61009e6004803603602081101561007257600080fd5b81019080803573ffffffffffffffffffffffffffffffffffffffff1690602001909291905050506102a4565b604051808215151515815260200191505060405180910390f35b6100c0610305565b005b61017b600480360360208110156100d857600080fd5b81019080803590602001906401000000008111156100f557600080fd5b82018360208201111561010757600080fd5b8035906020019184600183028401116401000000008311171561012957600080fd5b91908080601f016020809104026020016040519081016040528093929190818152602001838380828437600081840152601f19601f820116905080830192505050505050509192919290505050610310565b604051808273ffffffffffffffffffffffffffffffffffffffff1673ffffffffffffffffffffffffffffffffffffffff16815260200191505060405180910390f35b610254600480360360408110156101d357600080fd5b81019080803573ffffffffffffffffffffffffffffffffffffffff1690602001909291908035906020019064010000000081111561021057600080fd5b82018360208201111561022257600080fd5b8035906020019184600183028401116401000000008311171561024457600080fd5b90919293919293905050506103a3565b005b6102a26004803603604081101561026c57600080fd5b81019080803573ffffffffffffffffffffffffffffffffffffffff169060200190929190803590602001909291905050506103f6565b005b6000806000808473ffffffffffffffffffffffffffffffffffffffff1673ffffffffffffffffffffffffffffffffffffffff168152602001908152602001600020600001805460018160011615610100020316600290049050119050919050565b61030e33610549565b565b60006001826040518082805190602001908083835b602083106103485780518252602082019150602081019050602083039250610325565b6001836020036101000a038019825116818451168082178552505050505050905001915050908152602001604051809103902060009054906101000a900473ffffffffffffffffffffffffffffffffffffffff169050919050565b6103f18383838080601f016020809104026020016040519081016040528093929190818152602001838380828437600081840152601f19601f82011690508083019250505050505050610671565b505050565b81610400816102a4565b61040957600080fd5b6000600260008573ffffffffffffffffffffffffffffffffffffffff1673ffffffffffffffffffffffffffffffffffffffff168152602001908152602001600020549050828110156104a6576040517f08c379a000000000000000000000000000000000000000000000000000000000815260040180806020018281038252603781526020018061092f6037913960400191505060405180910390fd5b6104b983826107b890919063ffffffff16565b600260008673ffffffffffffffffffffffffffffffffffffffff1673ffffffffffffffffffffffffffffffffffffffff168152602001908152602001600020819055508373ffffffffffffffffffffffffffffffffffffffff166108fc849081150290604051600060405180830381858888f19350505050158015610542573d6000803e3d6000fd5b5050505050565b60016000808373ffffffffffffffffffffffffffffffffffffffff1673ffffffffffffffffffffffffffffffffffffffff16815260200190815260200160002060000160405180828054600181600116156101000203166002900480156105e75780601f106105c55761010080835404028352918201916105e7565b820191906000526020600020905b8154815290600101906020018083116105d3575b5050915050908152602001604051809103902060006101000a81549073ffffffffffffffffffffffffffffffffffffffff02191690556000808273ffffffffffffffffffffffffffffffffffffffff1673ffffffffffffffffffffffffffffffffffffffff1681526020019081526020016000206000808201600061066c9190610841565b505050565b806000808473ffffffffffffffffffffffffffffffffffffffff1673ffffffffffffffffffffffffffffffffffffffff16815260200190815260200160002060000190805190602001906106c6929190610889565b50816001826040518082805190602001908083835b602083106106fe57805182526020820191506020810190506020830392506106db565b6001836020036101000a038019825116818451168082178552505050505050905001915050908152602001604051809103902060006101000a81548173ffffffffffffffffffffffffffffffffffffffff021916908373ffffffffffffffffffffffffffffffffffffffff1602179055506000600260008473ffffffffffffffffffffffffffffffffffffffff1673ffffffffffffffffffffffffffffffffffffffff168152602001908152602001600020819055505050565b600082821115610830576040517f08c379a000000000000000000000000000000000000000000000000000000000815260040180806020018281038252601e8152602001807f536166654d6174683a207375627472616374696f6e206f766572666c6f77000081525060200191505060405180910390fd5b600082840390508091505092915050565b50805460018160011615610100020316600290046000825580601f106108675750610886565b601f0160209004906000526020600020908101906108859190610909565b5b50565b828054600181600116156101000203166002900490600052602060002090601f016020900481019282601f106108ca57805160ff19168380011785556108f8565b828001600101855582156108f8579182015b828111156108f75782518255916020019190600101906108dc565b5b5090506109059190610909565b5090565b61092b91905b8082111561092757600081600090555060010161090f565b5090565b9056fe50617373656e676572732063616e6e6f742072657175657374206d6f7265207468616e20776974686472617761626c6520616d6f756e74a165627a7a7230582088fe4988e6e84c6a90a75a46b1d2098cc1e888f22f57d4f8e7c99eccd87287330029",
  "source": "//pragma solidity ^0.4.24;\npragma solidity >=0.4.21 <0.6.0;\n\nimport \"../node_modules/openzeppelin-solidity/contracts/math/SafeMath.sol\";\n\n// Define a contract 'PassengerRole' to manage this role - add, remove, check\ncontract PassengerData {\n  using SafeMath for uint256; // Allow SafeMath functions to be called for all uint256 types (similar to \"prototype\" in Javascript)\n  struct Passenger {\n    string name;\n  }\n  mapping(address => Passenger) private passengers;\n  mapping(string => address payable) private passengerByName;\n  mapping(address => uint) private withdrawable;\n\n  // Define 2 events, one for Adding, and other for Removing\n  //event PassengerAdded(address indexed account);\n  //event PassengerRemoved(address indexed account);\n\n  // constructor() public {\n  //   ;\n  // }\n\n  // Define a modifier that checks to see if msg.sender has the appropriate role\n  modifier onlyPassenger(address account) {\n    require(isPassenger(account));\n    _;\n  }\n\n  // Define a function 'isPassenger' to check this role\n  function isPassenger(address account) public view returns (bool) {\n    return (bytes(passengers[account].name).length > 0);\n  }\n\n  // Define a function 'addPassenger' that adds this role\n  function addPassenger(address payable account, string calldata name) external {\n    _addPassenger(account, name);\n  }\n\n  // Define a function 'renouncePassenger' to renounce this role\n  function renouncePassenger() public {\n    _removePassenger(msg.sender);\n  }\n\n  // Define an internal function '_addPassenger' to add this role, called by 'addPassenger'\n  function _addPassenger(address payable account, string memory name) private {\n    passengers[account].name = name;\n    passengerByName[name] = account;\n    withdrawable[account] = 0;\n  }\n\n  // Define an internal function '_removePassenger' to remove this role, called by 'removePassenger'\n  function _removePassenger(address account) private {\n    delete passengerByName[passengers[account].name];\n    delete passengers[account];\n    //emit PassengerRemoved(account);\n  }\n\n  function getPassenger(string memory name)\n    public\n    view\n    returns (address)\n  {\n    return passengerByName[name];\n  }\n\n  function pay(string memory passengerName, uint256 payment)\n    internal\n    onlyPassenger(passengerByName[passengerName])\n  {\n    address payable passenger = passengerByName[passengerName];\n    uint256 currentAmount = withdrawable[passenger];\n    withdrawable[passenger] = currentAmount.add(payment);\n  }\n\n  function withdraw(address payable passenger, uint256 amount)\n    external\n    onlyPassenger(passenger)\n  {\n    uint256 currentAmount = withdrawable[passenger];\n    require(currentAmount >= amount, \"Passengers cannot request more than withdrawable amount\");\n    withdrawable[passenger] = currentAmount.sub(amount);\n    passenger.transfer(amount);\n  }\n\n}",
  "sourcePath": "/home/hajime/git/BlockchainDevND/projects/project_FlightSurety/contracts/PassengerData.sol",
  "compiler": {
    "name": "solc",
    "version": "0.5.8+commit.23d335f2.Emscripten.clang"
  },
  "schemaVersion": "3.0.16",
  "updatedAt": "2019-10-23T05:17:55.072Z",
  "devdoc": {
    "methods": {}
  },
  "userdoc": {
    "methods": {}
  }
}